{"lib/rain.factory/src/concrete/CloneFactory.sol":{"CloneFactory":{"abi":[{"inputs":[{"components":[{"internalType":"address","name":"deployer","type":"address"},{"internalType":"bytes","name":"meta","type":"bytes"}],"internalType":"struct DeployerDiscoverableMetaV1ConstructionConfig","name":"config_","type":"tuple"}],"stateMutability":"nonpayable","type":"constructor"},{"inputs":[{"internalType":"bytes","name":"unmeta","type":"bytes"}],"name":"NotRainMetaV1","type":"error"},{"inputs":[{"internalType":"bytes32","name":"expectedHash","type":"bytes32"},{"internalType":"bytes32","name":"actualHash","type":"bytes32"}],"name":"UnexpectedMetaHash","type":"error"},{"inputs":[],"name":"ZeroImplementation","type":"error"},{"anonymous":false,"inputs":[{"indexed":false,"internalType":"address","name":"sender","type":"address"},{"indexed":false,"internalType":"uint256","name":"subject","type":"uint256"},{"indexed":false,"internalType":"bytes","name":"meta","type":"bytes"}],"name":"MetaV1","type":"event"},{"anonymous":false,"inputs":[{"indexed":false,"internalType":"address","name":"sender","type":"address"},{"indexed":false,"internalType":"address","name":"implementation","type":"address"},{"indexed":false,"internalType":"address","name":"clone","type":"address"}],"name":"NewClone","type":"event"},{"inputs":[{"internalType":"address","name":"implementation_","type":"address"},{"internalType":"bytes","name":"data_","type":"bytes"}],"name":"clone","outputs":[{"internalType":"address","name":"","type":"address"}],"stateMutability":"nonpayable","type":"function"}],"evm":{"bytecode":{"linkReferences":{},"object":"60806040523480156200001157600080fd5b5060405162000c5e38038062000c5e8339810160408190526200003491620002fa565b7fae0fb5b68fe1791c72509bf46ea6abf6a982d21451265be0a017f7959712a67e60001b8162000074828260200151620000d860201b620001af1760201c565b60208101516040517fbea766d03fa1efd3f81cc8634d08320bc62bb0ed9234ac59bbaafa5893fb6b1391620000ad913391309162000408565b60405180910390a1620000cf81600001516200011f60201b6200020c1760201c565b5050506200057a565b805160208201208281146200010f5760405163074fe10f60e41b815260048101849052602481018290526044015b60405180910390fd5b6200011a82620001ea565b505050565b60408051600080825260208201909252819081906001600160a01b03851690635511cb67908362000161565b60608152602001906001900390816200014b5790505b5060408051600080825260208201908152818301928390526001600160e01b031960e086901b169092526200019b92916044820162000477565b6060604051808303816000875af1158015620001bb573d6000803e3d6000fd5b505050506040513d601f19601f82011682018060405250810190620001e191906200050a565b50505050505050565b620001f5816200021a565b620002175780604051630c89984b60e31b81526004016200010691906200055e565b50565b60006008825110156200022f57506000919050565b50600801516001600160401b031667ff0a89c674ee78741490565b634e487b7160e01b600052604160045260246000fd5b604080519081016001600160401b03811182821017156200028557620002856200024a565b60405290565b604051601f8201601f191681016001600160401b0381118282101715620002b657620002b66200024a565b604052919050565b6001600160a01b03811681146200021757600080fd5b60005b83811015620002f1578181015183820152602001620002d7565b50506000910152565b600060208083850312156200030e57600080fd5b82516001600160401b03808211156200032657600080fd5b90840190604082870312156200033b57600080fd5b6200034562000260565b82516200035281620002be565b815282840151828111156200036657600080fd5b80840193505086601f8401126200037c57600080fd5b8251828111156200039157620003916200024a565b620003a5601f8201601f191686016200028b565b92508083528785828601011115620003bc57600080fd5b620003cd81868501878701620002d4565b5092830152509392505050565b60008151808452620003f4816020860160208601620002d4565b601f01601f19169290920160200192915050565b60018060a01b0384168152826020820152606060408201526000620004316060830184620003da565b95945050505050565b600081518084526020808501945080840160005b838110156200046c578151875295820195908201906001016200044e565b509495945050505050565b6000606082016060835280865180835260808501915060808160051b8601019250602080890160005b83811015620004d257607f19888703018552620004bf868351620003da565b95509382019390820190600101620004a0565b505085840381870152505050620004ea81866200043a565b905082810360408401526200050081856200043a565b9695505050505050565b6000806000606084860312156200052057600080fd5b83516200052d81620002be565b60208501519093506200054081620002be565b60408501519092506200055381620002be565b809150509250925092565b602081526000620005736020830184620003da565b9392505050565b6106d4806200058a6000396000f3fe608060405234801561001057600080fd5b506004361061002b5760003560e01c80630fbe133c14610030575b600080fd5b61004361003e366004610453565b61006c565b60405173ffffffffffffffffffffffffffffffffffffffff909116815260200160405180910390f35b600073ffffffffffffffffffffffffffffffffffffffff84166100bb576040517f4208d2eb00000000000000000000000000000000000000000000000000000000815260040160405180910390fd5b60006100c6856102f5565b6040805133815273ffffffffffffffffffffffffffffffffffffffff888116602083015283168183015290519192507f274b5f356634f32a865af65bdc3d8205939d9413d75e1f367652e4f3b24d0c3a919081900360600190a16040517f439fab9100000000000000000000000000000000000000000000000000000000815273ffffffffffffffffffffffffffffffffffffffff82169063439fab919061017490879087906004016104d8565b600060405180830381600087803b15801561018e57600080fd5b505af11580156101a2573d6000803e3d6000fd5b5092979650505050505050565b805160208201208281146101fe576040517f74fe10f000000000000000000000000000000000000000000000000000000000815260048101849052602481018290526044015b60405180910390fd5b610207826103bd565b505050565b604080516000808252602082019092528190819073ffffffffffffffffffffffffffffffffffffffff851690635511cb679083610259565b60608152602001906001900390816102445790505b5060408051600080825260208201908152818301928390527fffffffff0000000000000000000000000000000000000000000000000000000060e086901b169092526102a99291604482016105c4565b6060604051808303816000875af11580156102c8573d6000803e3d6000fd5b505050506040513d601f19601f820116820180604052508101906102ec919061066d565b50505050505050565b6000763d602d80600a3d3981f3363d3d373d3d3d363d730000008260601b60e81c176000526e5af43d82803e903d91602b57fd5bf38260781b17602052603760096000f0905073ffffffffffffffffffffffffffffffffffffffff81166103b8576040517f08c379a000000000000000000000000000000000000000000000000000000000815260206004820152601660248201527f455243313136373a20637265617465206661696c65640000000000000000000060448201526064016101f5565b919050565b6103c681610401565b6103fe57806040517f644cc2580000000000000000000000000000000000000000000000000000000081526004016101f591906106ba565b50565b600060088251101561041557506000919050565b506008015167ffffffffffffffff1667ff0a89c674ee78741490565b73ffffffffffffffffffffffffffffffffffffffff811681146103fe57600080fd5b60008060006040848603121561046857600080fd5b833561047381610431565b9250602084013567ffffffffffffffff8082111561049057600080fd5b818601915086601f8301126104a457600080fd5b8135818111156104b357600080fd5b8760208285010111156104c557600080fd5b6020830194508093505050509250925092565b60208152816020820152818360408301376000818301604090810191909152601f9092017fffffffffffffffffffffffffffffffffffffffffffffffffffffffffffffffe0160101919050565b6000815180845260005b8181101561054b5760208185018101518683018201520161052f565b5060006020828601015260207fffffffffffffffffffffffffffffffffffffffffffffffffffffffffffffffe0601f83011685010191505092915050565b600081518084526020808501945080840160005b838110156105b95781518752958201959082019060010161059d565b509495945050505050565b6000606082016060835280865180835260808501915060808160051b8601019250602080890160005b83811015610639577fffffffffffffffffffffffffffffffffffffffffffffffffffffffffffffff80888703018552610627868351610525565b955093820193908201906001016105ed565b50508584038187015250505061064f8186610589565b905082810360408401526106638185610589565b9695505050505050565b60008060006060848603121561068257600080fd5b835161068d81610431565b602085015190935061069e81610431565b60408501519092506106af81610431565b809150509250925092565b6020815260006106cd6020830184610525565b939250505056","opcodes":"PUSH1 0x80 PUSH1 0x40 MSTORE CALLVALUE DUP1 ISZERO PUSH3 0x11 JUMPI PUSH1 0x0 DUP1 REVERT JUMPDEST POP PUSH1 0x40 MLOAD PUSH3 0xC5E CODESIZE SUB DUP1 PUSH3 0xC5E DUP4 CODECOPY DUP2 ADD PUSH1 0x40 DUP2 SWAP1 MSTORE PUSH3 0x34 SWAP2 PUSH3 0x2FA JUMP JUMPDEST PUSH32 0xAE0FB5B68FE1791C72509BF46EA6ABF6A982D21451265BE0A017F7959712A67E PUSH1 0x0 SHL DUP2 PUSH3 0x74 DUP3 DUP3 PUSH1 0x20 ADD MLOAD PUSH3 0xD8 PUSH1 0x20 SHL PUSH3 0x1AF OR PUSH1 0x20 SHR JUMP JUMPDEST PUSH1 0x20 DUP2 ADD MLOAD PUSH1 0x40 MLOAD PUSH32 0xBEA766D03FA1EFD3F81CC8634D08320BC62BB0ED9234AC59BBAAFA5893FB6B13 SWAP2 PUSH3 0xAD SWAP2 CALLER SWAP2 ADDRESS SWAP2 PUSH3 0x408 JUMP JUMPDEST PUSH1 0x40 MLOAD DUP1 SWAP2 SUB SWAP1 LOG1 PUSH3 0xCF DUP2 PUSH1 0x0 ADD MLOAD PUSH3 0x11F PUSH1 0x20 SHL PUSH3 0x20C OR PUSH1 0x20 SHR JUMP JUMPDEST POP POP POP PUSH3 0x57A JUMP JUMPDEST DUP1 MLOAD PUSH1 0x20 DUP3 ADD KECCAK256 DUP3 DUP2 EQ PUSH3 0x10F JUMPI PUSH1 0x40 MLOAD PUSH4 0x74FE10F PUSH1 0xE4 SHL DUP2 MSTORE PUSH1 0x4 DUP2 ADD DUP5 SWAP1 MSTORE PUSH1 0x24 DUP2 ADD DUP3 SWAP1 MSTORE PUSH1 0x44 ADD JUMPDEST PUSH1 0x40 MLOAD DUP1 SWAP2 SUB SWAP1 REVERT JUMPDEST PUSH3 0x11A DUP3 PUSH3 0x1EA JUMP JUMPDEST POP POP POP JUMP JUMPDEST PUSH1 0x40 DUP1 MLOAD PUSH1 0x0 DUP1 DUP3 MSTORE PUSH1 0x20 DUP3 ADD SWAP1 SWAP3 MSTORE DUP2 SWAP1 DUP2 SWAP1 PUSH1 0x1 PUSH1 0x1 PUSH1 0xA0 SHL SUB DUP6 AND SWAP1 PUSH4 0x5511CB67 SWAP1 DUP4 PUSH3 0x161 JUMP JUMPDEST PUSH1 0x60 DUP2 MSTORE PUSH1 0x20 ADD SWAP1 PUSH1 0x1 SWAP1 SUB SWAP1 DUP2 PUSH3 0x14B JUMPI SWAP1 POP JUMPDEST POP PUSH1 0x40 DUP1 MLOAD PUSH1 0x0 DUP1 DUP3 MSTORE PUSH1 0x20 DUP3 ADD SWAP1 DUP2 MSTORE DUP2 DUP4 ADD SWAP3 DUP4 SWAP1 MSTORE PUSH1 0x1 PUSH1 0x1 PUSH1 0xE0 SHL SUB NOT PUSH1 0xE0 DUP7 SWAP1 SHL AND SWAP1 SWAP3 MSTORE PUSH3 0x19B SWAP3 SWAP2 PUSH1 0x44 DUP3 ADD PUSH3 0x477 JUMP JUMPDEST PUSH1 0x60 PUSH1 0x40 MLOAD DUP1 DUP4 SUB DUP2 PUSH1 0x0 DUP8 GAS CALL ISZERO DUP1 ISZERO PUSH3 0x1BB JUMPI RETURNDATASIZE PUSH1 0x0 DUP1 RETURNDATACOPY RETURNDATASIZE PUSH1 0x0 REVERT JUMPDEST POP POP POP POP PUSH1 0x40 MLOAD RETURNDATASIZE PUSH1 0x1F NOT PUSH1 0x1F DUP3 ADD AND DUP3 ADD DUP1 PUSH1 0x40 MSTORE POP DUP2 ADD SWAP1 PUSH3 0x1E1 SWAP2 SWAP1 PUSH3 0x50A JUMP JUMPDEST POP POP POP POP POP POP POP JUMP JUMPDEST PUSH3 0x1F5 DUP2 PUSH3 0x21A JUMP JUMPDEST PUSH3 0x217 JUMPI DUP1 PUSH1 0x40 MLOAD PUSH4 0xC89984B PUSH1 0xE3 SHL DUP2 MSTORE PUSH1 0x4 ADD PUSH3 0x106 SWAP2 SWAP1 PUSH3 0x55E JUMP JUMPDEST POP JUMP JUMPDEST PUSH1 0x0 PUSH1 0x8 DUP3 MLOAD LT ISZERO PUSH3 0x22F JUMPI POP PUSH1 0x0 SWAP2 SWAP1 POP JUMP JUMPDEST POP PUSH1 0x8 ADD MLOAD PUSH1 0x1 PUSH1 0x1 PUSH1 0x40 SHL SUB AND PUSH8 0xFF0A89C674EE7874 EQ SWAP1 JUMP JUMPDEST PUSH4 0x4E487B71 PUSH1 0xE0 SHL PUSH1 0x0 MSTORE PUSH1 0x41 PUSH1 0x4 MSTORE PUSH1 0x24 PUSH1 0x0 REVERT JUMPDEST PUSH1 0x40 DUP1 MLOAD SWAP1 DUP2 ADD PUSH1 0x1 PUSH1 0x1 PUSH1 0x40 SHL SUB DUP2 GT DUP3 DUP3 LT OR ISZERO PUSH3 0x285 JUMPI PUSH3 0x285 PUSH3 0x24A JUMP JUMPDEST PUSH1 0x40 MSTORE SWAP1 JUMP JUMPDEST PUSH1 0x40 MLOAD PUSH1 0x1F DUP3 ADD PUSH1 0x1F NOT AND DUP2 ADD PUSH1 0x1 PUSH1 0x1 PUSH1 0x40 SHL SUB DUP2 GT DUP3 DUP3 LT OR ISZERO PUSH3 0x2B6 JUMPI PUSH3 0x2B6 PUSH3 0x24A JUMP JUMPDEST PUSH1 0x40 MSTORE SWAP2 SWAP1 POP JUMP JUMPDEST PUSH1 0x1 PUSH1 0x1 PUSH1 0xA0 SHL SUB DUP2 AND DUP2 EQ PUSH3 0x217 JUMPI PUSH1 0x0 DUP1 REVERT JUMPDEST PUSH1 0x0 JUMPDEST DUP4 DUP2 LT ISZERO PUSH3 0x2F1 JUMPI DUP2 DUP2 ADD MLOAD DUP4 DUP3 ADD MSTORE PUSH1 0x20 ADD PUSH3 0x2D7 JUMP JUMPDEST POP POP PUSH1 0x0 SWAP2 ADD MSTORE JUMP JUMPDEST PUSH1 0x0 PUSH1 0x20 DUP1 DUP4 DUP6 SUB SLT ISZERO PUSH3 0x30E JUMPI PUSH1 0x0 DUP1 REVERT JUMPDEST DUP3 MLOAD PUSH1 0x1 PUSH1 0x1 PUSH1 0x40 SHL SUB DUP1 DUP3 GT ISZERO PUSH3 0x326 JUMPI PUSH1 0x0 DUP1 REVERT JUMPDEST SWAP1 DUP5 ADD SWAP1 PUSH1 0x40 DUP3 DUP8 SUB SLT ISZERO PUSH3 0x33B JUMPI PUSH1 0x0 DUP1 REVERT JUMPDEST PUSH3 0x345 PUSH3 0x260 JUMP JUMPDEST DUP3 MLOAD PUSH3 0x352 DUP2 PUSH3 0x2BE JUMP JUMPDEST DUP2 MSTORE DUP3 DUP5 ADD MLOAD DUP3 DUP2 GT ISZERO PUSH3 0x366 JUMPI PUSH1 0x0 DUP1 REVERT JUMPDEST DUP1 DUP5 ADD SWAP4 POP POP DUP7 PUSH1 0x1F DUP5 ADD SLT PUSH3 0x37C JUMPI PUSH1 0x0 DUP1 REVERT JUMPDEST DUP3 MLOAD DUP3 DUP2 GT ISZERO PUSH3 0x391 JUMPI PUSH3 0x391 PUSH3 0x24A JUMP JUMPDEST PUSH3 0x3A5 PUSH1 0x1F DUP3 ADD PUSH1 0x1F NOT AND DUP7 ADD PUSH3 0x28B JUMP JUMPDEST SWAP3 POP DUP1 DUP4 MSTORE DUP8 DUP6 DUP3 DUP7 ADD ADD GT ISZERO PUSH3 0x3BC JUMPI PUSH1 0x0 DUP1 REVERT JUMPDEST PUSH3 0x3CD DUP2 DUP7 DUP6 ADD DUP8 DUP8 ADD PUSH3 0x2D4 JUMP JUMPDEST POP SWAP3 DUP4 ADD MSTORE POP SWAP4 SWAP3 POP POP POP JUMP JUMPDEST PUSH1 0x0 DUP2 MLOAD DUP1 DUP5 MSTORE PUSH3 0x3F4 DUP2 PUSH1 0x20 DUP7 ADD PUSH1 0x20 DUP7 ADD PUSH3 0x2D4 JUMP JUMPDEST PUSH1 0x1F ADD PUSH1 0x1F NOT AND SWAP3 SWAP1 SWAP3 ADD PUSH1 0x20 ADD SWAP3 SWAP2 POP POP JUMP JUMPDEST PUSH1 0x1 DUP1 PUSH1 0xA0 SHL SUB DUP5 AND DUP2 MSTORE DUP3 PUSH1 0x20 DUP3 ADD MSTORE PUSH1 0x60 PUSH1 0x40 DUP3 ADD MSTORE PUSH1 0x0 PUSH3 0x431 PUSH1 0x60 DUP4 ADD DUP5 PUSH3 0x3DA JUMP JUMPDEST SWAP6 SWAP5 POP POP POP POP POP JUMP JUMPDEST PUSH1 0x0 DUP2 MLOAD DUP1 DUP5 MSTORE PUSH1 0x20 DUP1 DUP6 ADD SWAP5 POP DUP1 DUP5 ADD PUSH1 0x0 JUMPDEST DUP4 DUP2 LT ISZERO PUSH3 0x46C JUMPI DUP2 MLOAD DUP8 MSTORE SWAP6 DUP3 ADD SWAP6 SWAP1 DUP3 ADD SWAP1 PUSH1 0x1 ADD PUSH3 0x44E JUMP JUMPDEST POP SWAP5 SWAP6 SWAP5 POP POP POP POP POP JUMP JUMPDEST PUSH1 0x0 PUSH1 0x60 DUP3 ADD PUSH1 0x60 DUP4 MSTORE DUP1 DUP7 MLOAD DUP1 DUP4 MSTORE PUSH1 0x80 DUP6 ADD SWAP2 POP PUSH1 0x80 DUP2 PUSH1 0x5 SHL DUP7 ADD ADD SWAP3 POP PUSH1 0x20 DUP1 DUP10 ADD PUSH1 0x0 JUMPDEST DUP4 DUP2 LT ISZERO PUSH3 0x4D2 JUMPI PUSH1 0x7F NOT DUP9 DUP8 SUB ADD DUP6 MSTORE PUSH3 0x4BF DUP7 DUP4 MLOAD PUSH3 0x3DA JUMP JUMPDEST SWAP6 POP SWAP4 DUP3 ADD SWAP4 SWAP1 DUP3 ADD SWAP1 PUSH1 0x1 ADD PUSH3 0x4A0 JUMP JUMPDEST POP POP DUP6 DUP5 SUB DUP2 DUP8 ADD MSTORE POP POP POP PUSH3 0x4EA DUP2 DUP7 PUSH3 0x43A JUMP JUMPDEST SWAP1 POP DUP3 DUP2 SUB PUSH1 0x40 DUP5 ADD MSTORE PUSH3 0x500 DUP2 DUP6 PUSH3 0x43A JUMP JUMPDEST SWAP7 SWAP6 POP POP POP POP POP POP JUMP JUMPDEST PUSH1 0x0 DUP1 PUSH1 0x0 PUSH1 0x60 DUP5 DUP7 SUB SLT ISZERO PUSH3 0x520 JUMPI PUSH1 0x0 DUP1 REVERT JUMPDEST DUP4 MLOAD PUSH3 0x52D DUP2 PUSH3 0x2BE JUMP JUMPDEST PUSH1 0x20 DUP6 ADD MLOAD SWAP1 SWAP4 POP PUSH3 0x540 DUP2 PUSH3 0x2BE JUMP JUMPDEST PUSH1 0x40 DUP6 ADD MLOAD SWAP1 SWAP3 POP PUSH3 0x553 DUP2 PUSH3 0x2BE JUMP JUMPDEST DUP1 SWAP2 POP POP SWAP3 POP SWAP3 POP SWAP3 JUMP JUMPDEST PUSH1 0x20 DUP2 MSTORE PUSH1 0x0 PUSH3 0x573 PUSH1 0x20 DUP4 ADD DUP5 PUSH3 0x3DA JUMP JUMPDEST SWAP4 SWAP3 POP POP POP JUMP JUMPDEST PUSH2 0x6D4 DUP1 PUSH3 0x58A PUSH1 0x0 CODECOPY PUSH1 0x0 RETURN INVALID PUSH1 0x80 PUSH1 0x40 MSTORE CALLVALUE DUP1 ISZERO PUSH2 0x10 JUMPI PUSH1 0x0 DUP1 REVERT JUMPDEST POP PUSH1 0x4 CALLDATASIZE LT PUSH2 0x2B JUMPI PUSH1 0x0 CALLDATALOAD PUSH1 0xE0 SHR DUP1 PUSH4 0xFBE133C EQ PUSH2 0x30 JUMPI JUMPDEST PUSH1 0x0 DUP1 REVERT JUMPDEST PUSH2 0x43 PUSH2 0x3E CALLDATASIZE PUSH1 0x4 PUSH2 0x453 JUMP JUMPDEST PUSH2 0x6C JUMP JUMPDEST PUSH1 0x40 MLOAD PUSH20 0xFFFFFFFFFFFFFFFFFFFFFFFFFFFFFFFFFFFFFFFF SWAP1 SWAP2 AND DUP2 MSTORE PUSH1 0x20 ADD PUSH1 0x40 MLOAD DUP1 SWAP2 SUB SWAP1 RETURN JUMPDEST PUSH1 0x0 PUSH20 0xFFFFFFFFFFFFFFFFFFFFFFFFFFFFFFFFFFFFFFFF DUP5 AND PUSH2 0xBB JUMPI PUSH1 0x40 MLOAD PUSH32 0x4208D2EB00000000000000000000000000000000000000000000000000000000 DUP2 MSTORE PUSH1 0x4 ADD PUSH1 0x40 MLOAD DUP1 SWAP2 SUB SWAP1 REVERT JUMPDEST PUSH1 0x0 PUSH2 0xC6 DUP6 PUSH2 0x2F5 JUMP JUMPDEST PUSH1 0x40 DUP1 MLOAD CALLER DUP2 MSTORE PUSH20 0xFFFFFFFFFFFFFFFFFFFFFFFFFFFFFFFFFFFFFFFF DUP9 DUP2 AND PUSH1 0x20 DUP4 ADD MSTORE DUP4 AND DUP2 DUP4 ADD MSTORE SWAP1 MLOAD SWAP2 SWAP3 POP PUSH32 0x274B5F356634F32A865AF65BDC3D8205939D9413D75E1F367652E4F3B24D0C3A SWAP2 SWAP1 DUP2 SWAP1 SUB PUSH1 0x60 ADD SWAP1 LOG1 PUSH1 0x40 MLOAD PUSH32 0x439FAB9100000000000000000000000000000000000000000000000000000000 DUP2 MSTORE PUSH20 0xFFFFFFFFFFFFFFFFFFFFFFFFFFFFFFFFFFFFFFFF DUP3 AND SWAP1 PUSH4 0x439FAB91 SWAP1 PUSH2 0x174 SWAP1 DUP8 SWAP1 DUP8 SWAP1 PUSH1 0x4 ADD PUSH2 0x4D8 JUMP JUMPDEST PUSH1 0x0 PUSH1 0x40 MLOAD DUP1 DUP4 SUB DUP2 PUSH1 0x0 DUP8 DUP1 EXTCODESIZE ISZERO DUP1 ISZERO PUSH2 0x18E JUMPI PUSH1 0x0 DUP1 REVERT JUMPDEST POP GAS CALL ISZERO DUP1 ISZERO PUSH2 0x1A2 JUMPI RETURNDATASIZE PUSH1 0x0 DUP1 RETURNDATACOPY RETURNDATASIZE PUSH1 0x0 REVERT JUMPDEST POP SWAP3 SWAP8 SWAP7 POP POP POP POP POP POP POP JUMP JUMPDEST DUP1 MLOAD PUSH1 0x20 DUP3 ADD KECCAK256 DUP3 DUP2 EQ PUSH2 0x1FE JUMPI PUSH1 0x40 MLOAD PUSH32 0x74FE10F000000000000000000000000000000000000000000000000000000000 DUP2 MSTORE PUSH1 0x4 DUP2 ADD DUP5 SWAP1 MSTORE PUSH1 0x24 DUP2 ADD DUP3 SWAP1 MSTORE PUSH1 0x44 ADD JUMPDEST PUSH1 0x40 MLOAD DUP1 SWAP2 SUB SWAP1 REVERT JUMPDEST PUSH2 0x207 DUP3 PUSH2 0x3BD JUMP JUMPDEST POP POP POP JUMP JUMPDEST PUSH1 0x40 DUP1 MLOAD PUSH1 0x0 DUP1 DUP3 MSTORE PUSH1 0x20 DUP3 ADD SWAP1 SWAP3 MSTORE DUP2 SWAP1 DUP2 SWAP1 PUSH20 0xFFFFFFFFFFFFFFFFFFFFFFFFFFFFFFFFFFFFFFFF DUP6 AND SWAP1 PUSH4 0x5511CB67 SWAP1 DUP4 PUSH2 0x259 JUMP JUMPDEST PUSH1 0x60 DUP2 MSTORE PUSH1 0x20 ADD SWAP1 PUSH1 0x1 SWAP1 SUB SWAP1 DUP2 PUSH2 0x244 JUMPI SWAP1 POP JUMPDEST POP PUSH1 0x40 DUP1 MLOAD PUSH1 0x0 DUP1 DUP3 MSTORE PUSH1 0x20 DUP3 ADD SWAP1 DUP2 MSTORE DUP2 DUP4 ADD SWAP3 DUP4 SWAP1 MSTORE PUSH32 0xFFFFFFFF00000000000000000000000000000000000000000000000000000000 PUSH1 0xE0 DUP7 SWAP1 SHL AND SWAP1 SWAP3 MSTORE PUSH2 0x2A9 SWAP3 SWAP2 PUSH1 0x44 DUP3 ADD PUSH2 0x5C4 JUMP JUMPDEST PUSH1 0x60 PUSH1 0x40 MLOAD DUP1 DUP4 SUB DUP2 PUSH1 0x0 DUP8 GAS CALL ISZERO DUP1 ISZERO PUSH2 0x2C8 JUMPI RETURNDATASIZE PUSH1 0x0 DUP1 RETURNDATACOPY RETURNDATASIZE PUSH1 0x0 REVERT JUMPDEST POP POP POP POP PUSH1 0x40 MLOAD RETURNDATASIZE PUSH1 0x1F NOT PUSH1 0x1F DUP3 ADD AND DUP3 ADD DUP1 PUSH1 0x40 MSTORE POP DUP2 ADD SWAP1 PUSH2 0x2EC SWAP2 SWAP1 PUSH2 0x66D JUMP JUMPDEST POP POP POP POP POP POP POP JUMP JUMPDEST PUSH1 0x0 PUSH23 0x3D602D80600A3D3981F3363D3D373D3D3D363D73000000 DUP3 PUSH1 0x60 SHL PUSH1 0xE8 SHR OR PUSH1 0x0 MSTORE PUSH15 0x5AF43D82803E903D91602B57FD5BF3 DUP3 PUSH1 0x78 SHL OR PUSH1 0x20 MSTORE PUSH1 0x37 PUSH1 0x9 PUSH1 0x0 CREATE SWAP1 POP PUSH20 0xFFFFFFFFFFFFFFFFFFFFFFFFFFFFFFFFFFFFFFFF DUP2 AND PUSH2 0x3B8 JUMPI PUSH1 0x40 MLOAD PUSH32 0x8C379A000000000000000000000000000000000000000000000000000000000 DUP2 MSTORE PUSH1 0x20 PUSH1 0x4 DUP3 ADD MSTORE PUSH1 0x16 PUSH1 0x24 DUP3 ADD MSTORE PUSH32 0x455243313136373A20637265617465206661696C656400000000000000000000 PUSH1 0x44 DUP3 ADD MSTORE PUSH1 0x64 ADD PUSH2 0x1F5 JUMP JUMPDEST SWAP2 SWAP1 POP JUMP JUMPDEST PUSH2 0x3C6 DUP2 PUSH2 0x401 JUMP JUMPDEST PUSH2 0x3FE JUMPI DUP1 PUSH1 0x40 MLOAD PUSH32 0x644CC25800000000000000000000000000000000000000000000000000000000 DUP2 MSTORE PUSH1 0x4 ADD PUSH2 0x1F5 SWAP2 SWAP1 PUSH2 0x6BA JUMP JUMPDEST POP JUMP JUMPDEST PUSH1 0x0 PUSH1 0x8 DUP3 MLOAD LT ISZERO PUSH2 0x415 JUMPI POP PUSH1 0x0 SWAP2 SWAP1 POP JUMP JUMPDEST POP PUSH1 0x8 ADD MLOAD PUSH8 0xFFFFFFFFFFFFFFFF AND PUSH8 0xFF0A89C674EE7874 EQ SWAP1 JUMP JUMPDEST PUSH20 0xFFFFFFFFFFFFFFFFFFFFFFFFFFFFFFFFFFFFFFFF DUP2 AND DUP2 EQ PUSH2 0x3FE JUMPI PUSH1 0x0 DUP1 REVERT JUMPDEST PUSH1 0x0 DUP1 PUSH1 0x0 PUSH1 0x40 DUP5 DUP7 SUB SLT ISZERO PUSH2 0x468 JUMPI PUSH1 0x0 DUP1 REVERT JUMPDEST DUP4 CALLDATALOAD PUSH2 0x473 DUP2 PUSH2 0x431 JUMP JUMPDEST SWAP3 POP PUSH1 0x20 DUP5 ADD CALLDATALOAD PUSH8 0xFFFFFFFFFFFFFFFF DUP1 DUP3 GT ISZERO PUSH2 0x490 JUMPI PUSH1 0x0 DUP1 REVERT JUMPDEST DUP2 DUP7 ADD SWAP2 POP DUP7 PUSH1 0x1F DUP4 ADD SLT PUSH2 0x4A4 JUMPI PUSH1 0x0 DUP1 REVERT JUMPDEST DUP2 CALLDATALOAD DUP2 DUP2 GT ISZERO PUSH2 0x4B3 JUMPI PUSH1 0x0 DUP1 REVERT JUMPDEST DUP8 PUSH1 0x20 DUP3 DUP6 ADD ADD GT ISZERO PUSH2 0x4C5 JUMPI PUSH1 0x0 DUP1 REVERT JUMPDEST PUSH1 0x20 DUP4 ADD SWAP5 POP DUP1 SWAP4 POP POP POP POP SWAP3 POP SWAP3 POP SWAP3 JUMP JUMPDEST PUSH1 0x20 DUP2 MSTORE DUP2 PUSH1 0x20 DUP3 ADD MSTORE DUP2 DUP4 PUSH1 0x40 DUP4 ADD CALLDATACOPY PUSH1 0x0 DUP2 DUP4 ADD PUSH1 0x40 SWAP1 DUP2 ADD SWAP2 SWAP1 SWAP2 MSTORE PUSH1 0x1F SWAP1 SWAP3 ADD PUSH32 0xFFFFFFFFFFFFFFFFFFFFFFFFFFFFFFFFFFFFFFFFFFFFFFFFFFFFFFFFFFFFFFE0 AND ADD ADD SWAP2 SWAP1 POP JUMP JUMPDEST PUSH1 0x0 DUP2 MLOAD DUP1 DUP5 MSTORE PUSH1 0x0 JUMPDEST DUP2 DUP2 LT ISZERO PUSH2 0x54B JUMPI PUSH1 0x20 DUP2 DUP6 ADD DUP2 ADD MLOAD DUP7 DUP4 ADD DUP3 ADD MSTORE ADD PUSH2 0x52F JUMP JUMPDEST POP PUSH1 0x0 PUSH1 0x20 DUP3 DUP7 ADD ADD MSTORE PUSH1 0x20 PUSH32 0xFFFFFFFFFFFFFFFFFFFFFFFFFFFFFFFFFFFFFFFFFFFFFFFFFFFFFFFFFFFFFFE0 PUSH1 0x1F DUP4 ADD AND DUP6 ADD ADD SWAP2 POP POP SWAP3 SWAP2 POP POP JUMP JUMPDEST PUSH1 0x0 DUP2 MLOAD DUP1 DUP5 MSTORE PUSH1 0x20 DUP1 DUP6 ADD SWAP5 POP DUP1 DUP5 ADD PUSH1 0x0 JUMPDEST DUP4 DUP2 LT ISZERO PUSH2 0x5B9 JUMPI DUP2 MLOAD DUP8 MSTORE SWAP6 DUP3 ADD SWAP6 SWAP1 DUP3 ADD SWAP1 PUSH1 0x1 ADD PUSH2 0x59D JUMP JUMPDEST POP SWAP5 SWAP6 SWAP5 POP POP POP POP POP JUMP JUMPDEST PUSH1 0x0 PUSH1 0x60 DUP3 ADD PUSH1 0x60 DUP4 MSTORE DUP1 DUP7 MLOAD DUP1 DUP4 MSTORE PUSH1 0x80 DUP6 ADD SWAP2 POP PUSH1 0x80 DUP2 PUSH1 0x5 SHL DUP7 ADD ADD SWAP3 POP PUSH1 0x20 DUP1 DUP10 ADD PUSH1 0x0 JUMPDEST DUP4 DUP2 LT ISZERO PUSH2 0x639 JUMPI PUSH32 0xFFFFFFFFFFFFFFFFFFFFFFFFFFFFFFFFFFFFFFFFFFFFFFFFFFFFFFFFFFFFFF80 DUP9 DUP8 SUB ADD DUP6 MSTORE PUSH2 0x627 DUP7 DUP4 MLOAD PUSH2 0x525 JUMP JUMPDEST SWAP6 POP SWAP4 DUP3 ADD SWAP4 SWAP1 DUP3 ADD SWAP1 PUSH1 0x1 ADD PUSH2 0x5ED JUMP JUMPDEST POP POP DUP6 DUP5 SUB DUP2 DUP8 ADD MSTORE POP POP POP PUSH2 0x64F DUP2 DUP7 PUSH2 0x589 JUMP JUMPDEST SWAP1 POP DUP3 DUP2 SUB PUSH1 0x40 DUP5 ADD MSTORE PUSH2 0x663 DUP2 DUP6 PUSH2 0x589 JUMP JUMPDEST SWAP7 SWAP6 POP POP POP POP POP POP JUMP JUMPDEST PUSH1 0x0 DUP1 PUSH1 0x0 PUSH1 0x60 DUP5 DUP7 SUB SLT ISZERO PUSH2 0x682 JUMPI PUSH1 0x0 DUP1 REVERT JUMPDEST DUP4 MLOAD PUSH2 0x68D DUP2 PUSH2 0x431 JUMP JUMPDEST PUSH1 0x20 DUP6 ADD MLOAD SWAP1 SWAP4 POP PUSH2 0x69E DUP2 PUSH2 0x431 JUMP JUMPDEST PUSH1 0x40 DUP6 ADD MLOAD SWAP1 SWAP3 POP PUSH2 0x6AF DUP2 PUSH2 0x431 JUMP JUMPDEST DUP1 SWAP2 POP POP SWAP3 POP SWAP3 POP SWAP3 JUMP JUMPDEST PUSH1 0x20 DUP2 MSTORE PUSH1 0x0 PUSH2 0x6CD PUSH1 0x20 DUP4 ADD DUP5 PUSH2 0x525 JUMP JUMPDEST SWAP4 SWAP3 POP POP POP JUMP "},"methodIdentifiers":{"clone(address,bytes)":"0fbe133c"}}}}}