{
  "_format": "hh-sol-artifact-1",
  "contractName": "CloneFactory",
  "sourceName": "lib/rain.factory/src/concrete/CloneFactory.sol",
  "abi": [
    {
      "inputs": [
        {
          "components": [
            {
              "internalType": "address",
              "name": "deployer",
              "type": "address"
            },
            {
              "internalType": "bytes",
              "name": "meta",
              "type": "bytes"
            }
          ],
          "internalType": "struct DeployerDiscoverableMetaV1ConstructionConfig",
          "name": "config_",
          "type": "tuple"
        }
      ],
      "stateMutability": "nonpayable",
      "type": "constructor"
    },
    {
      "inputs": [
        {
          "internalType": "bytes",
          "name": "unmeta",
          "type": "bytes"
        }
      ],
      "name": "NotRainMetaV1",
      "type": "error"
    },
    {
      "inputs": [
        {
          "internalType": "bytes32",
          "name": "expectedHash",
          "type": "bytes32"
        },
        {
          "internalType": "bytes32",
          "name": "actualHash",
          "type": "bytes32"
        }
      ],
      "name": "UnexpectedMetaHash",
      "type": "error"
    },
    {
      "inputs": [],
      "name": "ZeroImplementation",
      "type": "error"
    },
    {
      "anonymous": false,
      "inputs": [
        {
          "indexed": false,
          "internalType": "address",
          "name": "sender",
          "type": "address"
        },
        {
          "indexed": false,
          "internalType": "uint256",
          "name": "subject",
          "type": "uint256"
        },
        {
          "indexed": false,
          "internalType": "bytes",
          "name": "meta",
          "type": "bytes"
        }
      ],
      "name": "MetaV1",
      "type": "event"
    },
    {
      "anonymous": false,
      "inputs": [
        {
          "indexed": false,
          "internalType": "address",
          "name": "sender",
          "type": "address"
        },
        {
          "indexed": false,
          "internalType": "address",
          "name": "implementation",
          "type": "address"
        },
        {
          "indexed": false,
          "internalType": "address",
          "name": "clone",
          "type": "address"
        }
      ],
      "name": "NewClone",
      "type": "event"
    },
    {
      "inputs": [
        {
          "internalType": "address",
          "name": "implementation_",
          "type": "address"
        },
        {
          "internalType": "bytes",
          "name": "data_",
          "type": "bytes"
        }
      ],
      "name": "clone",
      "outputs": [
        {
          "internalType": "address",
          "name": "",
          "type": "address"
        }
      ],
      "stateMutability": "nonpayable",
      "type": "function"
    }
  ],
  "bytecode": "0x60806040523480156200001157600080fd5b5060405162000c5e38038062000c5e8339810160408190526200003491620002fa565b7fae0fb5b68fe1791c72509bf46ea6abf6a982d21451265be0a017f7959712a67e60001b8162000074828260200151620000d860201b620001af1760201c565b60208101516040517fbea766d03fa1efd3f81cc8634d08320bc62bb0ed9234ac59bbaafa5893fb6b1391620000ad913391309162000408565b60405180910390a1620000cf81600001516200011f60201b6200020c1760201c565b5050506200057a565b805160208201208281146200010f5760405163074fe10f60e41b815260048101849052602481018290526044015b60405180910390fd5b6200011a82620001ea565b505050565b60408051600080825260208201909252819081906001600160a01b03851690635511cb67908362000161565b60608152602001906001900390816200014b5790505b5060408051600080825260208201908152818301928390526001600160e01b031960e086901b169092526200019b92916044820162000477565b6060604051808303816000875af1158015620001bb573d6000803e3d6000fd5b505050506040513d601f19601f82011682018060405250810190620001e191906200050a565b50505050505050565b620001f5816200021a565b620002175780604051630c89984b60e31b81526004016200010691906200055e565b50565b60006008825110156200022f57506000919050565b50600801516001600160401b031667ff0a89c674ee78741490565b634e487b7160e01b600052604160045260246000fd5b604080519081016001600160401b03811182821017156200028557620002856200024a565b60405290565b604051601f8201601f191681016001600160401b0381118282101715620002b657620002b66200024a565b604052919050565b6001600160a01b03811681146200021757600080fd5b60005b83811015620002f1578181015183820152602001620002d7565b50506000910152565b600060208083850312156200030e57600080fd5b82516001600160401b03808211156200032657600080fd5b90840190604082870312156200033b57600080fd5b6200034562000260565b82516200035281620002be565b815282840151828111156200036657600080fd5b80840193505086601f8401126200037c57600080fd5b8251828111156200039157620003916200024a565b620003a5601f8201601f191686016200028b565b92508083528785828601011115620003bc57600080fd5b620003cd81868501878701620002d4565b5092830152509392505050565b60008151808452620003f4816020860160208601620002d4565b601f01601f19169290920160200192915050565b60018060a01b0384168152826020820152606060408201526000620004316060830184620003da565b95945050505050565b600081518084526020808501945080840160005b838110156200046c578151875295820195908201906001016200044e565b509495945050505050565b6000606082016060835280865180835260808501915060808160051b8601019250602080890160005b83811015620004d257607f19888703018552620004bf868351620003da565b95509382019390820190600101620004a0565b505085840381870152505050620004ea81866200043a565b905082810360408401526200050081856200043a565b9695505050505050565b6000806000606084860312156200052057600080fd5b83516200052d81620002be565b60208501519093506200054081620002be565b60408501519092506200055381620002be565b809150509250925092565b602081526000620005736020830184620003da565b9392505050565b6106d4806200058a6000396000f3fe608060405234801561001057600080fd5b506004361061002b5760003560e01c80630fbe133c14610030575b600080fd5b61004361003e366004610453565b61006c565b60405173ffffffffffffffffffffffffffffffffffffffff909116815260200160405180910390f35b600073ffffffffffffffffffffffffffffffffffffffff84166100bb576040517f4208d2eb00000000000000000000000000000000000000000000000000000000815260040160405180910390fd5b60006100c6856102f5565b6040805133815273ffffffffffffffffffffffffffffffffffffffff888116602083015283168183015290519192507f274b5f356634f32a865af65bdc3d8205939d9413d75e1f367652e4f3b24d0c3a919081900360600190a16040517f439fab9100000000000000000000000000000000000000000000000000000000815273ffffffffffffffffffffffffffffffffffffffff82169063439fab919061017490879087906004016104d8565b600060405180830381600087803b15801561018e57600080fd5b505af11580156101a2573d6000803e3d6000fd5b5092979650505050505050565b805160208201208281146101fe576040517f74fe10f000000000000000000000000000000000000000000000000000000000815260048101849052602481018290526044015b60405180910390fd5b610207826103bd565b505050565b604080516000808252602082019092528190819073ffffffffffffffffffffffffffffffffffffffff851690635511cb679083610259565b60608152602001906001900390816102445790505b5060408051600080825260208201908152818301928390527fffffffff0000000000000000000000000000000000000000000000000000000060e086901b169092526102a99291604482016105c4565b6060604051808303816000875af11580156102c8573d6000803e3d6000fd5b505050506040513d601f19601f820116820180604052508101906102ec919061066d565b50505050505050565b6000763d602d80600a3d3981f3363d3d373d3d3d363d730000008260601b60e81c176000526e5af43d82803e903d91602b57fd5bf38260781b17602052603760096000f0905073ffffffffffffffffffffffffffffffffffffffff81166103b8576040517f08c379a000000000000000000000000000000000000000000000000000000000815260206004820152601660248201527f455243313136373a20637265617465206661696c65640000000000000000000060448201526064016101f5565b919050565b6103c681610401565b6103fe57806040517f644cc2580000000000000000000000000000000000000000000000000000000081526004016101f591906106ba565b50565b600060088251101561041557506000919050565b506008015167ffffffffffffffff1667ff0a89c674ee78741490565b73ffffffffffffffffffffffffffffffffffffffff811681146103fe57600080fd5b60008060006040848603121561046857600080fd5b833561047381610431565b9250602084013567ffffffffffffffff8082111561049057600080fd5b818601915086601f8301126104a457600080fd5b8135818111156104b357600080fd5b8760208285010111156104c557600080fd5b6020830194508093505050509250925092565b60208152816020820152818360408301376000818301604090810191909152601f9092017fffffffffffffffffffffffffffffffffffffffffffffffffffffffffffffffe0160101919050565b6000815180845260005b8181101561054b5760208185018101518683018201520161052f565b5060006020828601015260207fffffffffffffffffffffffffffffffffffffffffffffffffffffffffffffffe0601f83011685010191505092915050565b600081518084526020808501945080840160005b838110156105b95781518752958201959082019060010161059d565b509495945050505050565b6000606082016060835280865180835260808501915060808160051b8601019250602080890160005b83811015610639577fffffffffffffffffffffffffffffffffffffffffffffffffffffffffffffff80888703018552610627868351610525565b955093820193908201906001016105ed565b50508584038187015250505061064f8186610589565b905082810360408401526106638185610589565b9695505050505050565b60008060006060848603121561068257600080fd5b835161068d81610431565b602085015190935061069e81610431565b60408501519092506106af81610431565b809150509250925092565b6020815260006106cd6020830184610525565b939250505056",
  "linkReferences": {},
  "deployedLinkReferences": {}
}