{
  "abi": [
    {
      "inputs": [
        {
          "internalType": "address",
          "name": "account_",
          "type": "address"
        }
      ],
      "name": "bytecode",
      "outputs": [
        {
          "internalType": "bytes",
          "name": "",
          "type": "bytes"
        }
      ],
      "stateMutability": "view",
      "type": "function"
    },
    {
      "inputs": [
        {
          "internalType": "address",
          "name": "account_",
          "type": "address"
        }
      ],
      "name": "bytecodeHash",
      "outputs": [
        {
          "internalType": "bytes32",
          "name": "",
          "type": "bytes32"
        }
      ],
      "stateMutability": "view",
      "type": "function"
    },
    {
      "inputs": [
        {
          "internalType": "address",
          "name": "account_",
          "type": "address"
        }
      ],
      "name": "scanEVMOpcodesPresentInAccount",
      "outputs": [
        {
          "internalType": "uint256",
          "name": "",
          "type": "uint256"
        }
      ],
      "stateMutability": "view",
      "type": "function"
    },
    {
      "inputs": [
        {
          "internalType": "address",
          "name": "interpreter_",
          "type": "address"
        }
      ],
      "name": "scanOnlyAllowedInterpreterEVMOpcodes",
      "outputs": [
        {
          "internalType": "bool",
          "name": "",
          "type": "bool"
        }
      ],
      "stateMutability": "view",
      "type": "function"
    }
  ],
  "bytecode": {
    "object": "0x608060405234801561001057600080fd5b5061028b806100206000396000f3fe608060405234801561001057600080fd5b506004361061004c5760003560e01c806339676bce14610051578063b8270b1e1461008c578063c7338a02146100af578063f5ac6335146100cf575b600080fd5b61007961005f3660046101e9565b73ffffffffffffffffffffffffffffffffffffffff163f90565b6040519081526020015b60405180910390f35b61009f61009a3660046101e9565b6100e2565b6040519015158152602001610083565b6100c26100bd3660046101e9565b610116565b604051610083919061021f565b6100796100dd3660046101e9565b610151565b60007f80370000000000000000001f000000000000000000300000000000000000000061010e83610151565b161592915050565b60608173ffffffffffffffffffffffffffffffffffffffff16803b806020016040519081016040528181526000908060200190933c92915050565b6000808273ffffffffffffffffffffffffffffffffffffffff16803b806020016040519081016040528181526000908060200190933c905061019760208201825161019e565b9392505050565b60006020830392508183015b808410156101e25760018401935060ff8451166001811b8317925060608103905060208110156101dc57938401600101935b506101aa565b5092915050565b6000602082840312156101fb57600080fd5b813573ffffffffffffffffffffffffffffffffffffffff8116811461019757600080fd5b600060208083528351808285015260005b8181101561024c57858101830151858201604001528201610230565b5060006040828601015260407fffffffffffffffffffffffffffffffffffffffffffffffffffffffffffffffe0601f830116850101925050509291505056",
    "linkReferences": {}
  },
  "methodIdentifiers": {
    "bytecode(address)": "c7338a02",
    "bytecodeHash(address)": "39676bce",
    "scanEVMOpcodesPresentInAccount(address)": "f5ac6335",
    "scanOnlyAllowedInterpreterEVMOpcodes(address)": "b8270b1e"
  },
  "id": 20
}