{
  "abi": [
    {
      "inputs": [
        {
          "internalType": "address",
          "name": "account",
          "type": "address"
        }
      ],
      "name": "bytecode",
      "outputs": [
        {
          "internalType": "bytes",
          "name": "",
          "type": "bytes"
        }
      ],
      "stateMutability": "view",
      "type": "function"
    },
    {
      "inputs": [
        {
          "internalType": "address",
          "name": "account",
          "type": "address"
        }
      ],
      "name": "bytecodeHash",
      "outputs": [
        {
          "internalType": "bytes32",
          "name": "",
          "type": "bytes32"
        }
      ],
      "stateMutability": "view",
      "type": "function"
    },
    {
      "inputs": [
        {
          "internalType": "address",
          "name": "account",
          "type": "address"
        }
      ],
      "name": "scanEVMOpcodesPresentInAccount",
      "outputs": [
        {
          "internalType": "uint256",
          "name": "",
          "type": "uint256"
        }
      ],
      "stateMutability": "view",
      "type": "function"
    },
    {
      "inputs": [
        {
          "internalType": "address",
          "name": "account",
          "type": "address"
        }
      ],
      "name": "scanEVMOpcodesReachableInAccount",
      "outputs": [
        {
          "internalType": "uint256",
          "name": "",
          "type": "uint256"
        }
      ],
      "stateMutability": "view",
      "type": "function"
    },
    {
      "inputs": [
        {
          "internalType": "address",
          "name": "interpreter",
          "type": "address"
        }
      ],
      "name": "scanOnlyAllowedInterpreterEVMOpcodes",
      "outputs": [
        {
          "internalType": "bool",
          "name": "",
          "type": "bool"
        }
      ],
      "stateMutability": "view",
      "type": "function"
    }
  ],
  "bytecode": {
    "object": "0x608060405234801561001057600080fd5b506103c4806100206000396000f3fe608060405234801561001057600080fd5b50600436106100675760003560e01c8063b8270b1e11610050578063b8270b1e146100ba578063c7338a02146100dd578063f5ac6335146100fd57600080fd5b806339676bce1461006c5780637d82a692146100a7575b600080fd5b61009461007a36600461031b565b73ffffffffffffffffffffffffffffffffffffffff163f90565b6040519081526020015b60405180910390f35b6100946100b536600461031b565b610110565b6100cd6100c836600461031b565b610153565b604051901515815260200161009e565b6100f06100eb36600461031b565b610187565b60405161009e9190610358565b61009461010b36600461031b565b6101c2565b600061014d8273ffffffffffffffffffffffffffffffffffffffff16803b806020016040519081016040528181526000908060200190933c6101ff565b92915050565b60007f80370000000000000000001f000000000000000000300000000000000000000061017f83610110565b161592915050565b60608173ffffffffffffffffffffffffffffffffffffffff16803b806020016040519081016040528181526000908060200190933c92915050565b600061014d8273ffffffffffffffffffffffffffffffffffffffff16803b806020016040519081016040528181526000908060200190933c6102b4565b80516000908290808201605b7fe008000000000000000000000000000000000000000000000000000000000001855b838610156102a95760018601955060ff8651168160008114610257576001811461028e57600080fd5b6001821b988917988416156102715760019250505061022e565b60608203602081101561028657978801600101975b50505061022e565b8482036102a257600092506001821b891798505b505061022e565b505050505050919050565b805160009082908082015b80831015610313576001928301805160ff1693841b9490941793927fffffffffffffffffffffffffffffffffffffffffffffffffffffffffffffffa001602081101561030d57928301600101925b506102bf565b505050919050565b60006020828403121561032d57600080fd5b813573ffffffffffffffffffffffffffffffffffffffff8116811461035157600080fd5b9392505050565b600060208083528351808285015260005b8181101561038557858101830151858201604001528201610369565b5060006040828601015260407fffffffffffffffffffffffffffffffffffffffffffffffffffffffffffffffe0601f830116850101925050509291505056",
    "linkReferences": {}
  },
  "methodIdentifiers": {
    "bytecode(address)": "c7338a02",
    "bytecodeHash(address)": "39676bce",
    "scanEVMOpcodesPresentInAccount(address)": "f5ac6335",
    "scanEVMOpcodesReachableInAccount(address)": "7d82a692",
    "scanOnlyAllowedInterpreterEVMOpcodes(address)": "b8270b1e"
  },
  "id": 20
}