{
  "_format": "hh-sol-artifact-1",
  "contractName": "RainterpreterExpressionDeployer",
  "sourceName": "contracts/interpreter/shared/RainterpreterExpressionDeployer.sol",
  "abi": [
    {
      "inputs": [
        {
          "components": [
            {
              "internalType": "address",
              "name": "interpreter",
              "type": "address"
            },
            {
              "internalType": "address",
              "name": "store",
              "type": "address"
            },
            {
              "internalType": "bytes",
              "name": "opMeta",
              "type": "bytes"
            }
          ],
          "internalType": "struct RainterpreterExpressionDeployerConstructionConfig",
          "name": "config_",
          "type": "tuple"
        }
      ],
      "stateMutability": "nonpayable",
      "type": "constructor"
    },
    {
      "inputs": [
        {
          "internalType": "uint256",
          "name": "dynamicLength",
          "type": "uint256"
        },
        {
          "internalType": "uint256",
          "name": "standardOpsLength",
          "type": "uint256"
        }
      ],
      "name": "BadDynamicLength",
      "type": "error"
    },
    {
      "inputs": [
        {
          "internalType": "uint256",
          "name": "inputs",
          "type": "uint256"
        }
      ],
      "name": "DoWhileMaxInputs",
      "type": "error"
    },
    {
      "inputs": [
        {
          "internalType": "uint256",
          "name": "inputs",
          "type": "uint256"
        },
        {
          "internalType": "uint256",
          "name": "outputs",
          "type": "uint256"
        }
      ],
      "name": "InsufficientLoopOutputs",
      "type": "error"
    },
    {
      "inputs": [
        {
          "internalType": "uint256",
          "name": "minStackOutputs",
          "type": "uint256"
        },
        {
          "internalType": "uint256",
          "name": "actualStackOutputs",
          "type": "uint256"
        }
      ],
      "name": "MinFinalStack",
      "type": "error"
    },
    {
      "inputs": [],
      "name": "MinStackBottom",
      "type": "error"
    },
    {
      "inputs": [
        {
          "internalType": "uint256",
          "name": "expectedEntrypoints",
          "type": "uint256"
        },
        {
          "internalType": "uint256",
          "name": "actualEntrypoints",
          "type": "uint256"
        }
      ],
      "name": "MissingEntrypoint",
      "type": "error"
    },
    {
      "inputs": [
        {
          "internalType": "int256",
          "name": "price",
          "type": "int256"
        }
      ],
      "name": "NotPosIntPrice",
      "type": "error"
    },
    {
      "inputs": [
        {
          "internalType": "uint256",
          "name": "constantsLength",
          "type": "uint256"
        },
        {
          "internalType": "uint256",
          "name": "constantsRead",
          "type": "uint256"
        }
      ],
      "name": "OutOfBoundsConstantsRead",
      "type": "error"
    },
    {
      "inputs": [
        {
          "internalType": "uint256",
          "name": "stackTopIndex",
          "type": "uint256"
        },
        {
          "internalType": "uint256",
          "name": "stackRead",
          "type": "uint256"
        }
      ],
      "name": "OutOfBoundsStackRead",
      "type": "error"
    },
    {
      "inputs": [
        {
          "internalType": "uint256",
          "name": "stackHighwaterIndex",
          "type": "uint256"
        },
        {
          "internalType": "uint256",
          "name": "stackTopIndex",
          "type": "uint256"
        }
      ],
      "name": "StackPopUnderflow",
      "type": "error"
    },
    {
      "inputs": [
        {
          "internalType": "uint256",
          "name": "updatedAt",
          "type": "uint256"
        },
        {
          "internalType": "uint256",
          "name": "staleAfter",
          "type": "uint256"
        }
      ],
      "name": "StalePrice",
      "type": "error"
    },
    {
      "inputs": [
        {
          "internalType": "bytes32",
          "name": "actualBytecodeHash",
          "type": "bytes32"
        }
      ],
      "name": "UnexpectedInterpreterBytecodeHash",
      "type": "error"
    },
    {
      "inputs": [
        {
          "internalType": "bytes32",
          "name": "actualOpMeta",
          "type": "bytes32"
        }
      ],
      "name": "UnexpectedOpMetaHash",
      "type": "error"
    },
    {
      "inputs": [
        {
          "internalType": "bytes",
          "name": "actualPointers",
          "type": "bytes"
        }
      ],
      "name": "UnexpectedPointers",
      "type": "error"
    },
    {
      "inputs": [
        {
          "internalType": "bytes32",
          "name": "actualBytecodeHash",
          "type": "bytes32"
        }
      ],
      "name": "UnexpectedStoreBytecodeHash",
      "type": "error"
    },
    {
      "inputs": [],
      "name": "WriteError",
      "type": "error"
    },
    {
      "inputs": [],
      "name": "ZeroInputs",
      "type": "error"
    },
    {
      "anonymous": false,
      "inputs": [
        {
          "indexed": false,
          "internalType": "address",
          "name": "sender",
          "type": "address"
        },
        {
          "indexed": false,
          "internalType": "address",
          "name": "deployer",
          "type": "address"
        },
        {
          "indexed": false,
          "internalType": "address",
          "name": "interpreter",
          "type": "address"
        },
        {
          "indexed": false,
          "internalType": "address",
          "name": "store",
          "type": "address"
        },
        {
          "indexed": false,
          "internalType": "bytes",
          "name": "opMeta",
          "type": "bytes"
        }
      ],
      "name": "DISpair",
      "type": "event"
    },
    {
      "anonymous": false,
      "inputs": [
        {
          "indexed": false,
          "internalType": "address",
          "name": "sender",
          "type": "address"
        },
        {
          "indexed": false,
          "internalType": "address",
          "name": "expression",
          "type": "address"
        }
      ],
      "name": "ExpressionAddress",
      "type": "event"
    },
    {
      "anonymous": false,
      "inputs": [
        {
          "indexed": false,
          "internalType": "address",
          "name": "sender",
          "type": "address"
        },
        {
          "indexed": false,
          "internalType": "bytes[]",
          "name": "sources",
          "type": "bytes[]"
        },
        {
          "indexed": false,
          "internalType": "uint256[]",
          "name": "constants",
          "type": "uint256[]"
        },
        {
          "indexed": false,
          "internalType": "uint256[]",
          "name": "minOutputs",
          "type": "uint256[]"
        }
      ],
      "name": "NewExpression",
      "type": "event"
    },
    {
      "inputs": [
        {
          "internalType": "bytes[]",
          "name": "sources_",
          "type": "bytes[]"
        },
        {
          "internalType": "uint256[]",
          "name": "constants_",
          "type": "uint256[]"
        },
        {
          "internalType": "uint256[]",
          "name": "minOutputs_",
          "type": "uint256[]"
        }
      ],
      "name": "deployExpression",
      "outputs": [
        {
          "internalType": "contract IInterpreterV1",
          "name": "",
          "type": "address"
        },
        {
          "internalType": "contract IInterpreterStoreV1",
          "name": "",
          "type": "address"
        },
        {
          "internalType": "address",
          "name": "",
          "type": "address"
        }
      ],
      "stateMutability": "nonpayable",
      "type": "function"
    },
    {
      "inputs": [],
      "name": "interpreter",
      "outputs": [
        {
          "internalType": "contract IInterpreterV1",
          "name": "",
          "type": "address"
        }
      ],
      "stateMutability": "view",
      "type": "function"
    },
    {
      "inputs": [],
      "name": "store",
      "outputs": [
        {
          "internalType": "contract IInterpreterStoreV1",
          "name": "",
          "type": "address"
        }
      ],
      "stateMutability": "view",
      "type": "function"
    },
    {
      "inputs": [
        {
          "internalType": "bytes4",
          "name": "interfaceId_",
          "type": "bytes4"
        }
      ],
      "name": "supportsInterface",
      "outputs": [
        {
          "internalType": "bool",
          "name": "",
          "type": "bool"
        }
      ],
      "stateMutability": "view",
      "type": "function"
    }
  ],
  "bytecode": "0x60c06040523480156200001157600080fd5b506040516200381f3803806200381f833981016040819052620000349162000453565b6000816000015190506000816001600160a01b031663f933c72f6040518163ffffffff1660e01b8152600401600060405180830381865afa1580156200007e573d6000803e3d6000fd5b505050506040513d6000823e601f3d908101601f19168201604052620000a8919081019062000504565b90506040518060a00160405280607c8152602001620037a3607c913980519060200120818051906020012014620000ff5780604051634c1af20160e11b8152600401620000f6919062000572565b60405180910390fd5b813f7f2d1cf087af0d73e9a308d42157b4379262a5848dd771d9b1250d192fd765a70081146200014657604051630eec293f60e11b815260048101829052602401620000f6565b6020840151803f7ff968c3941e35db24dbf3ce43f8beb7bd5e6070969d50ef898fe1c5dd9ab9a53d8114620001925760405163cc0415fd60e01b815260048101829052602401620000f6565b604086015180516020909101207f2a6c09f4f6f06767c090f420a23ae6037eeb1f714835ec810ab1aa0e00292ead8114620001e4576040516343d0fe5760e11b815260048101829052602401620000f6565b6001600160a01b03808716608052831660a052865160208801516040808a015190517f1788931a083e1bfada6cb062b5426ea97c7866b814b4d1173909e4018f2122f1936200023793339330936200058e565b60405180910390a1604080518082018252601581527f4945787072657373696f6e4465706c6f79657256310000000000000000000000602082015290516365ba36c160e01b8152731820a4b7618bde71dce8cdc73aab6c95905fad24916329965a1d91309184916365ba36c191620002b29160040162000572565b602060405180830381865afa158015620002d0573d6000803e3d6000fd5b505050506040513d601f19601f82011682018060405250810190620002f69190620005d7565b6040516001600160e01b031960e085901b1681526001600160a01b0390921660048301526024820152306044820152606401600060405180830381600087803b1580156200034357600080fd5b505af115801562000358573d6000803e3d6000fd5b5050505050505050505050620005f1565b634e487b7160e01b600052604160045260246000fd5b80516001600160a01b03811681146200039757600080fd5b919050565b60005b83811015620003b95781810151838201526020016200039f565b50506000910152565b600082601f830112620003d457600080fd5b81516001600160401b0380821115620003f157620003f162000369565b604051601f8301601f19908116603f011681019082821181831017156200041c576200041c62000369565b816040528381528660208588010111156200043657600080fd5b620004498460208301602089016200039c565b9695505050505050565b6000602082840312156200046657600080fd5b81516001600160401b03808211156200047e57600080fd5b90830190606082860312156200049357600080fd5b604051606081018181108382111715620004b157620004b162000369565b604052620004bf836200037f565b8152620004cf602084016200037f565b6020820152604083015182811115620004e757600080fd5b620004f587828601620003c2565b60408301525095945050505050565b6000602082840312156200051757600080fd5b81516001600160401b038111156200052e57600080fd5b6200053c84828501620003c2565b949350505050565b600081518084526200055e8160208601602086016200039c565b601f01601f19169290920160200192915050565b60208152600062000587602083018462000544565b9392505050565b6001600160a01b038681168252858116602083015284811660408301528316606082015260a060808201819052600090620005cc9083018462000544565b979650505050505050565b600060208284031215620005ea57600080fd5b5051919050565b60805160a05161317f620006246000396000818161011401526103c5015260008181607e01526103a3015261317f6000f3fe608060405234801561001057600080fd5b506004361061004c5760003560e01c806301ffc9a7146100515780633a35cf17146100795780635511cb67146100c5578063975057e71461010f575b600080fd5b61006461005f3660046126c3565b610136565b60405190151581526020015b60405180910390f35b6100a07f000000000000000000000000000000000000000000000000000000000000000081565b60405173ffffffffffffffffffffffffffffffffffffffff9091168152602001610070565b6100d86100d3366004612812565b6101cf565b6040805173ffffffffffffffffffffffffffffffffffffffff94851681529284166020840152921691810191909152606001610070565b6100a07f000000000000000000000000000000000000000000000000000000000000000081565b60007fffffffff0000000000000000000000000000000000000000000000000000000082167f5511cb670000000000000000000000000000000000000000000000000000000014806101c957507fffffffff0000000000000000000000000000000000000000000000000000000082167f01ffc9a700000000000000000000000000000000000000000000000000000000145b92915050565b600080600085518451111561022257835186516040517f7d2d70db000000000000000000000000000000000000000000000000000000008152600481019290925260248201526044015b60405180910390fd5b600061023687876102316103f5565b610437565b604081015160608201519192509060005b87518110156102c05760408401839052606084018290526102ad848261028e60027fffffffffffffffffffffffffffffffffffffffffffffffffffffffffffffffff6129db565b8b85815181106102a0576102a06129ef565b602002602001015161054c565b50806102b881612a1e565b915050610247565b5060006102de8460800151856040015161067590919063ffffffff16565b90507ff66a0c19428b142e06d7aa23d5f18b9b9ff08408fefcdfb8bb27cb34929f7786338b8b8b6040516103159493929190612ab5565b60405180910390a160006103438b8b846040518060a00160405280607c81526020016130ce607c913961067e565b9050600061035082610785565b6040805133815273ffffffffffffffffffffffffffffffffffffffff831660208201529192507fce6e4a4a7b561c65155990775d2faf8a581292f97859ce67e366fd53686b31f1910160405180910390a17f00000000000000000000000000000000000000000000000000000000000000009c7f00000000000000000000000000000000000000000000000000000000000000009c50909a5098505050505050505050565b604080516000808252602082019092526060919081610425565b6126b981526020019060019003908161040f5790505b50905061043181610810565b91505090565b6104706040518060c001604052806060815260200160008152602001600081526020016000815260200160008152602001606081525090565b6040805160c081018252858152845160208201529081016104b260027fffffffffffffffffffffffffffffffffffffffffffffffffffffffffffffffff6129db565b815260200161050a6104e560027fffffffffffffffffffffffffffffffffffffffffffffffffffffffffffffffff6129db565b7fffffffffffffffffffffffffffffffffffffffffffffffffffffffffffffffe00190565b815260200161053a60027fffffffffffffffffffffffffffffffffffffffffffffffffffffffffffffffff6129db565b815260200183905290505b9392505050565b600060027fffffffffffffffffffffffffffffffffffffffffffffffffffffffffffffffff04856040015110156105af576040517f271592cf00000000000000000000000000000000000000000000000000000000815260040160405180910390fd5b845160208581029091010151805181015b8082101561061a57600080600484019350835161ffff8116915061ffff8160101c169250506106118982898c60a001518681518110610601576106016129ef565b602002602001015163ffffffff16565b965050506105c0565b604087015160209086030480851115610669576040517ff993c6e70000000000000000000000000000000000000000000000000000000081526004810186905260248101829052604401610219565b50939695505050505050565b60209190030490565b825160609060200260400160005b86518110156106c5576106b98782815181106106aa576106aa6129ef565b60200260200101515160200190565b9091019060010161068c565b5060008167ffffffffffffffff8111156106e1576106e1612705565b6040519080825280601f01601f19166020018201604052801561070b576020820181803683370190505b509050600061071b825b60200190565b868152602001905061072d8188610a5a565b9050606060005b89518110156107775789818151811061074f5761074f6129ef565b602002602001015191506107638288610a7a565b61076d8383610ad9565b9250600101610734565b509198975050505050505050565b6000806107b08360405160200161079c9190612ba6565b604051602081830303815290604052610af9565b90508051602082016000f0915073ffffffffffffffffffffffffffffffffffffffff821661080a576040517f08d4abb600000000000000000000000000000000000000000000000000000000815260040160405180910390fd5b50919050565b60606000604051806107e00160405280610828603e90565b67ffffffffffffffff1667ffffffffffffffff168152602001610b258152602001610b348152602001610bc98152602001610bd58152602001610bee8152602001610c0b8152602001610c7b8152602001610cf68152602001610bd58152602001610d628152602001610df98152602001610edb8152602001610eeb8152602001610efb8152602001610f0a8152602001610f1a8152602001610f298152602001610f388152602001610f478152602001610f568152602001610f1a8152602001610f658152602001610f748152602001610bc98152602001610bc98152602001610f848152602001610f9c8152602001610fac8152602001610fbc8152602001610fcc8152602001610fdc8152602001610fec8152602001610ffc815260200161100c815260200161101c815260200161102b815260200161103a8152602001611049815260200161105881526020016110678152602001611076815260200161108781526020016110a4815260200161107681526020016110b381526020016110c281526020016110d181526020016110e081526020016110f081526020016111008152602001611110815260200161111f815260200161112e815260200161113d815260200161114c815260200161115b815260200161116a81526020016111798152602001611189815260200161119981526020016111a881526020016111fc81525090506000610a3c8261120b565b9050610a48818561125a565b805b949350505050565b815260200190565b600061054582610a74845186610a5290919063ffffffff16565b90611290565b815161ffff907fffffffffffffffffffffffffffffffffffffffffffffffffffffffffffff000090840160028481019086015b82811015610ad05780518581166002028301518616908516178152600401610aad565b50505050505050565b600061054582610af3845186610a5290919063ffffffff16565b906112a8565b6060815182604051602001610b0f929190612bcc565b6040516020818303038152906040529050919050565b6000610a4a84836112ca6112d6565b60408301516060840151600091600f85811692600487901c90911691600887901c91610b618988876112ee565b60408a01527fffffffffffffffffffffffffffffffffffffffffffffffffffffffffffffffe0870160608a0152610b9a8984898761054c565b50606089018190526040890151610bb3908a9086611310565b6040999099019190915250959695505050505050565b6000610a4a8483611364565b60006126b9610be5858483611373565b95945050505050565b6000826003811115610c0257610c02612c63565b50909392505050565b600060ff8316600f8110610c4e576040517f316e6a3700000000000000000000000000000000000000000000000000000000815260048101829052602401610219565b60018101600481901b8517610c70610c67888388610b34565b88906001611382565b979650505050505050565b6020830151600090601f84811691600586901c90911690600a86901c908110610ce05760208701516040517f890a8e6a000000000000000000000000000000000000000000000000000000008152600481019190915260248101829052604401610219565b610c70610cee8887866112ee565b889084611310565b6000600f83811690600885811c91821691600c87901c91828401917efffffffffffffffffffffffffffffffffffffffffffffffffffffffffffff0169088901b610f0016178117610d4889888661138f565b9650610d55898289610b34565b9998505050505050505050565b6000600c83901c600f80851690600486901c1681811015610db9576040517f508a8d2f0000000000000000000000000000000000000000000000000000000081526004810183905260248101829052604401610219565b6060870151610fff87169060005b85811015610deb5760608a01829052610de18a848a610b34565b9750600101610dc7565b509598975050505050505050565b600060018381169084901c81610e7a576040860151602090850304808210610e57576040517f1cb73c160000000000000000000000000000000000000000000000000000000081526004810182905260248101839052604401610219565b60408701516060880151610e6f9160208502016113a3565b606088015250610ec7565b85602001518110610ec75760208601516040517f890a8e6a000000000000000000000000000000000000000000000000000000008152600481019190915260248101829052604401610219565b610ed18685611364565b9695505050505050565b60006126b9610be58584836113b9565b6000610a4a84836113c786611416565b6000610a4a84836114266114c0565b6000610a4a84836114d18661158b565b6000610a4a84836115a96112d6565b6000610a4a848361163e611373565b6000610a4a84836116af6114c0565b6000610a4a848361170e6112d6565b6000610a4a8483611764611373565b6000610a4a84836117f16112d6565b6000610a4a84836118a0866118ad565b6000610a4a610f9385846118ba565b85906008611310565b6000610a4a84836118e886611416565b6000610a4a84836118f486611416565b6000610a4a848361190086611416565b6000610a4a84836113a386611416565b6000610a4a848361190c86611416565b6000610a4a848361191b86611416565b6000610a4a848361192786611416565b6000610a4a848361193386611416565b6000610a4a848361193f611373565b6000610a4a84836119666112d6565b6000610a4a848361197f6112d6565b6000610a4a848361199a6112d6565b6000610a4a84836119b3611373565b6000610a4a84836119c0611373565b60006126b9610be585848387611416565b6000610a4a826119cd61109b866001612c92565b8792919061158b565b6000610a4a84836119dd6112d6565b6000610a4a84836119e16112d6565b6000610a4a84836119e5611373565b6000610a4a84836119e96112d6565b6000610a4a84836119ed86611416565b6000610a4a8483611a2886611416565b6000610a4a8483611a5986611416565b6000610a4a8483611a6f611b31565b6000610a4a8483611b42611373565b6000610a4a8483611b8f611373565b6000610a4a8483611bdc611373565b6000610a4a8483611c5e611373565b6000610a4a8483611cab611373565b6000610a4a8483611cf86114c0565b6000610a4a8483611d5786611dae565b6000610a4a8483611dc186611e5b565b6000610a4a8483611e6e6112d6565b600060ff83168082036111e7576040517f904c1f6d00000000000000000000000000000000000000000000000000000000815260040160405180910390fd5b610be56111f58685846112ee565b8690611364565b6000610a4a8483611ecd6112d6565b80518190603e146112555780516040517fc8b569010000000000000000000000000000000000000000000000000000000081526004810191909152603e6024820152604401610219565b919050565b60405182518251602080830286010183111561127557600080fd5b60208102830160405201835261128b8282611ee5565b505050565b600061129c8284611ee5565b81516020028301610545565b60006112c18383516112ba6107158690565b9190611ef9565b81518301610545565b60006105458383611f75565b6000610a4a6112e7858560026112ee565b8590611364565b600081156113085760208202830392506113088484612101565b509092915050565b60006020820283019250600182111561135a576113547fffffffffffffffffffffffffffffffffffffffffffffffffffffffffffffffe084016060860151906113a3565b60608501525b6113088484612165565b602001600061080a8383612165565b6000610a4a6112e785856118ba565b6000602082028303610a4a565b600060208202830192506113088484612165565b60008183116113b25781610545565b5090919050565b6000610a4a848460026112ee565b6000816040516020016113da9190612ca5565b604080517fffffffffffffffffffffffffffffffffffffffffffffffffffffffffffffffe0818403018152919052805160209091012092915050565b6000610be56111f58686856112ee565b6040517efdd58e00000000000000000000000000000000000000000000000000000000815273ffffffffffffffffffffffffffffffffffffffff8381166004830152602482018390526000919085169062fdd58e906044015b602060405180830381865afa15801561149c573d6000803e3d6000fd5b505050506040513d601f19601f82011682018060405250810190610a4a9190612cdb565b6000610a4a6112e7858560036112ee565b6040517f4e1273f400000000000000000000000000000000000000000000000000000000815260609073ffffffffffffffffffffffffffffffffffffffff851690634e1273f4906115289086908690600401612cf4565b600060405180830381865afa158015611545573d6000803e3d6000fd5b505050506040513d6000823e601f3d9081017fffffffffffffffffffffffffffffffffffffffffffffffffffffffffffffffe0168201604052610a4a9190810190612d57565b6000610be56115a18686600160028702016112ee565b869084611310565b6040517f70a0823100000000000000000000000000000000000000000000000000000000815273ffffffffffffffffffffffffffffffffffffffff8281166004830152600091908416906370a08231906024015b602060405180830381865afa15801561161a573d6000803e3d6000fd5b505050506040513d601f19601f820116820180604052508101906105459190612cdb565b60008173ffffffffffffffffffffffffffffffffffffffff166318160ddd6040518163ffffffff1660e01b8152600401602060405180830381865afa15801561168b573d6000803e3d6000fd5b505050506040513d601f19601f820116820180604052508101906101c99190612cdb565b6040517f4ee2cd7e00000000000000000000000000000000000000000000000000000000815273ffffffffffffffffffffffffffffffffffffffff83811660048301526024820183905260009190851690634ee2cd7e9060440161147f565b6040517f981b24d00000000000000000000000000000000000000000000000000000000081526004810182905260009073ffffffffffffffffffffffffffffffffffffffff84169063981b24d0906024016115fd565b60008173ffffffffffffffffffffffffffffffffffffffff16638da5cb5b6040518163ffffffff1660e01b8152600401602060405180830381865afa1580156117b1573d6000803e3d6000fd5b505050506040513d601f19601f820116820180604052508101906117d59190612ddd565b73ffffffffffffffffffffffffffffffffffffffff1692915050565b6040517f6352211e0000000000000000000000000000000000000000000000000000000081526004810182905260009073ffffffffffffffffffffffffffffffffffffffff841690636352211e90602401602060405180830381865afa15801561185f573d6000803e3d6000fd5b505050506040513d601f19601f820116820180604052508101906118839190612ddd565b73ffffffffffffffffffffffffffffffffffffffff169392505050565b806118aa57600080fd5b50565b6000610be58585846112ee565b7fffffffffffffffffffffffffffffffffffffffffffffffffffffffffffffffe001600061080a8383612101565b60006105458284612c92565b600061054582846129db565b60006105458284612f33565b60008183106113b25781610545565b60006105458284612f3f565b60006105458284612f53565b60006105458284612f6a565b6000610545600184901c60018516600281111561195e5761195e612c63565b84919061217a565b6000610a4a828261197886888361217a565b91906121e9565b6000610a4a8360018616600281111561195e5761195e612c63565b6000610a4a82826119ac86888361217a565b91906121ff565b6000610545828483612215565b6000610545828483612264565b6060600084116113085781610a4a565b1490565b1090565b1590565b1190565b60008282018381106119ff5780610a4a565b7fffffffffffffffffffffffffffffffffffffffffffffffffffffffffffffffff949350505050565b600082600003611a3a575060006101c9565b82820282848281611a4d57611a4d61297d565b04036119ff5780610a4a565b6000818311611a69576000610545565b50900390565b6040517fd97b2e4800000000000000000000000000000000000000000000000000000000815273ffffffffffffffffffffffffffffffffffffffff84811660048301528381166024830152604482018390526000919086169063d97b2e4890606401602060405180830381865afa158015611aee573d6000803e3d6000fd5b505050506040513d601f19601f82011682018060405250810190611b129190612cdb565b73ffffffffffffffffffffffffffffffffffffffff1695945050505050565b6000610a4a6112e7858560046112ee565b60008173ffffffffffffffffffffffffffffffffffffffff1663ec14b06e6040518163ffffffff1660e01b8152600401602060405180830381865afa15801561168b573d6000803e3d6000fd5b60008173ffffffffffffffffffffffffffffffffffffffff1663cd3293de6040518163ffffffff1660e01b8152600401602060405180830381865afa1580156117b1573d6000803e3d6000fd5b60008173ffffffffffffffffffffffffffffffffffffffff1663f9020e336040518163ffffffff1660e01b8152600401602060405180830381865afa158015611c29573d6000803e3d6000fd5b505050506040513d601f19601f82011682018060405250810190611c4d9190612f7d565b60038111156101c9576101c9612c63565b60008173ffffffffffffffffffffffffffffffffffffffff1663fc0c546a6040518163ffffffff1660e01b8152600401602060405180830381865afa1580156117b1573d6000803e3d6000fd5b60008173ffffffffffffffffffffffffffffffffffffffff166347e4bbb96040518163ffffffff1660e01b8152600401602060405180830381865afa15801561168b573d6000803e3d6000fd5b6040517fdb8554fc00000000000000000000000000000000000000000000000000000000815273ffffffffffffffffffffffffffffffffffffffff8381166004830152602482018390526000919085169063db8554fc9060440161147f565b6040517f88d6860400000000000000000000000000000000000000000000000000000000815260009073ffffffffffffffffffffffffffffffffffffffff8516906388d686049061147f9086908690600401612f9e565b6000610be56111f58686600286016112ee565b6040517fcaa0eb3b00000000000000000000000000000000000000000000000000000000815260009073ffffffffffffffffffffffffffffffffffffffff86169063caa0eb3b90611e1a90879087908790600401612fcd565b602060405180830381865afa158015611e37573d6000803e3d6000fd5b505050506040513d601f19601f82011682018060405250810190610be59190612cdb565b6000610be56111f58686600386016112ee565b60008060015b60088111611ec5576000611e8886836122c4565b90506000611e9686846122c4565b90506000611ea48383611a59565b9050611eb485600186038361237c565b94505060019092019150611e749050565b509392505050565b6000610a4a8385600f16600487901c600f1685612406565b600060208301905061128b818385516124ac565b5b60208110611f375782518252602092830192909101907fffffffffffffffffffffffffffffffffffffffffffffffffffffffffffffffe001611efa565b801561128b577fffffffffffffffffffffffffffffffffffffffffffffffffffffffffffffffff600882021c80835116811985511617835250505050565b60008060008473ffffffffffffffffffffffffffffffffffffffff1663feaf968c6040518163ffffffff1660e01b815260040160a060405180830381865afa158015611fc5573d6000803e3d6000fd5b505050506040513d601f19601f82011682018060405250810190611fe9919061301c565b509350509250506000821361202d576040517f3351e26f00000000000000000000000000000000000000000000000000000000815260048101839052602401610219565b836120388242612f6a565b111561207a576040517f2730eb480000000000000000000000000000000000000000000000000000000081526004810182905260248101859052604401610219565b610be58573ffffffffffffffffffffffffffffffffffffffff1663313ce5676040518163ffffffff1660e01b8152600401602060405180830381865afa1580156120c8573d6000803e3d6000fd5b505050506040513d601f19601f820116820180604052508101906120ec919061306c565b60ff1660016120fa856124d4565b919061217a565b816060015181116121615760608201516040830151602091030460408301516020908303046040517f625e32e400000000000000000000000000000000000000000000000000000000815260048101929092526024820152604401610219565b5050565b81608001518111156121615760809190910152565b6000808360120361218e5784915050610545565b83601211156121ba575060128390036121b26121ab82600a612f33565b8690611a28565b915050610545565b507fffffffffffffffffffffffffffffffffffffffffffffffffffffffffffffffee83016121b2858285612544565b6000610a4a84670de0b6b3a7640000858561259c565b6000610a4a8484670de0b6b3a76400008561259c565b60008260000b600003612229575082610545565b60008360000b13156122515761224a61224384600a61308f565b8590611a28565b9050610545565b60ff6000849003166121b2858285612544565b600080601284036122785784915050610545565b8360121115612292578360120390506121b2858285612544565b507fffffffffffffffffffffffffffffffffffffffffffffffffffffffffffffffee83016121b26121ab82600a612f33565b6000816008811115612332576040517f08c379a000000000000000000000000000000000000000000000000000000000815260206004820152600860248201527f4d41585f544945520000000000000000000000000000000000000000000000006044820152606401610219565b826000036123435760009150612375565b63ffffffff60207fffffffffffffffffffffffffffffffffffffffffffffffffffffffffffffffff85010285901c1691505b5092915050565b60008260088111156123ea576040517f08c379a000000000000000000000000000000000000000000000000000000000815260206004820152600860248201527f4d41585f544945520000000000000000000000000000000000000000000000006044820152606401610219565b505060209190910290811b63ffffffff90911b19919091161790565b6000826008811115612474576040517f08c379a000000000000000000000000000000000000000000000000000000000815260206004820152600860248201527f4d41585f544945520000000000000000000000000000000000000000000000006044820152606401610219565b6000855b858110156124a05763ffffffff6020820290811b199890981685891b17979150600101612478565b50959695505050505050565b8060200283015b808410156124ce5783518352602093840193909201916124b3565b50505050565b600080821215612540576040517f08c379a000000000000000000000000000000000000000000000000000000000815260206004820181905260248201527f53616665436173743a2076616c7565206d75737420626520706f7369746976656044820152606401610219565b5090565b60008061255284600a612f33565b9050600061256082876129db565b9050600184600281111561257657612576612c63565b14801561258c57506125888282612f53565b8614155b15610be557610ed1600182612c92565b6000806125aa8686866125ec565b905060018360028111156125c0576125c0612c63565b14801561258c5750600084806125d8576125d861297d565b8688091115610be557610ed1600182612c92565b600080807fffffffffffffffffffffffffffffffffffffffffffffffffffffffffffffffff858709858702925082811083820303915050806000036126445783828161263a5761263a61297d565b0492505050610545565b80841161265057600080fd5b60008486880960026001871981018816978890046003810283188082028403028082028403028082028403028082028403028082028403029081029092039091026000889003889004909101858311909403939093029303949094049190911702949350505050565b6126c161309e565b565b6000602082840312156126d557600080fd5b81357fffffffff000000000000000000000000000000000000000000000000000000008116811461054557600080fd5b7f4e487b7100000000000000000000000000000000000000000000000000000000600052604160045260246000fd5b604051601f82017fffffffffffffffffffffffffffffffffffffffffffffffffffffffffffffffe016810167ffffffffffffffff8111828210171561277b5761277b612705565b604052919050565b600067ffffffffffffffff82111561279d5761279d612705565b5060051b60200190565b600082601f8301126127b857600080fd5b813560206127cd6127c883612783565b612734565b82815260059290921b840181019181810190868411156127ec57600080fd5b8286015b8481101561280757803583529183019183016127f0565b509695505050505050565b60008060006060848603121561282757600080fd5b833567ffffffffffffffff8082111561283f57600080fd5b818601915086601f83011261285357600080fd5b813560206128636127c883612783565b82815260059290921b8401810191818101908a84111561288257600080fd5b8286015b8481101561292d5780358681111561289e5760008081fd5b8701603f81018d136128b05760008081fd5b848101356040888211156128c6576128c6612705565b6128f6877fffffffffffffffffffffffffffffffffffffffffffffffffffffffffffffffe0601f85011601612734565b8281528f8284860101111561290b5760008081fd5b8282850189830137600092810188019290925250845250918301918301612886565b509750508701359250508082111561294457600080fd5b612950878388016127a7565b9350604086013591508082111561296657600080fd5b50612973868287016127a7565b9150509250925092565b7f4e487b7100000000000000000000000000000000000000000000000000000000600052601260045260246000fd5b7f4e487b7100000000000000000000000000000000000000000000000000000000600052601160045260246000fd5b6000826129ea576129ea61297d565b500490565b7f4e487b7100000000000000000000000000000000000000000000000000000000600052603260045260246000fd5b60007fffffffffffffffffffffffffffffffffffffffffffffffffffffffffffffffff8203612a4f57612a4f6129ac565b5060010190565b60005b83811015612a71578181015183820152602001612a59565b50506000910152565b600081518084526020808501945080840160005b83811015612aaa57815187529582019590820190600101612a8e565b509495945050505050565b60006080820173ffffffffffffffffffffffffffffffffffffffff87168352602060808185015281875180845260a08601915060a08160051b870101935082890160005b82811015612b7b577fffffffffffffffffffffffffffffffffffffffffffffffffffffffffffffff6088870301845281518051808852612b3e81888a01898501612a56565b601f017fffffffffffffffffffffffffffffffffffffffffffffffffffffffffffffffe01696909601850195509284019290840190600101612af9565b50505050508281036040840152612b928186612a7a565b90508281036060840152610c708185612a7a565b6000815260008251612bbf816001850160208701612a56565b9190910160010192915050565b7f630000000000000000000000000000000000000000000000000000000000000081527fffffffff000000000000000000000000000000000000000000000000000000008360e01b1660018201527f80600e6000396000f30000000000000000000000000000000000000000000000600582015260008251612c5581600e850160208701612a56565b91909101600e019392505050565b7f4e487b7100000000000000000000000000000000000000000000000000000000600052602160045260246000fd5b808201808211156101c9576101c96129ac565b815160009082906020808601845b83811015612ccf57815185529382019390820190600101612cb3565b50929695505050505050565b600060208284031215612ced57600080fd5b5051919050565b604080825283519082018190526000906020906060840190828701845b82811015612d4357815173ffffffffffffffffffffffffffffffffffffffff1684529284019290840190600101612d11565b50505083810382850152610ed18186612a7a565b60006020808385031215612d6a57600080fd5b825167ffffffffffffffff811115612d8157600080fd5b8301601f81018513612d9257600080fd5b8051612da06127c882612783565b81815260059190911b82018301908381019087831115612dbf57600080fd5b928401925b82841015610c7057835182529284019290840190612dc4565b600060208284031215612def57600080fd5b815173ffffffffffffffffffffffffffffffffffffffff8116811461054557600080fd5b600181815b80851115612e6c57817fffffffffffffffffffffffffffffffffffffffffffffffffffffffffffffffff04821115612e5257612e526129ac565b80851615612e5f57918102915b93841c9390800290612e18565b509250929050565b600082612e83575060016101c9565b81612e90575060006101c9565b8160018114612ea65760028114612eb057612ecc565b60019150506101c9565b60ff841115612ec157612ec16129ac565b50506001821b6101c9565b5060208310610133831016604e8410600b8410161715612eef575081810a6101c9565b612ef98383612e13565b807fffffffffffffffffffffffffffffffffffffffffffffffffffffffffffffffff04821115612f2b57612f2b6129ac565b029392505050565b60006105458383612e74565b600082612f4e57612f4e61297d565b500690565b80820281158282048414176101c9576101c96129ac565b818103818111156101c9576101c96129ac565b600060208284031215612f8f57600080fd5b81516004811061054557600080fd5b73ffffffffffffffffffffffffffffffffffffffff83168152604060208201526000610a4a6040830184612a7a565b73ffffffffffffffffffffffffffffffffffffffff84168152826020820152606060408201526000610be56060830184612a7a565b805169ffffffffffffffffffff8116811461125557600080fd5b600080600080600060a0868803121561303457600080fd5b61303d86613002565b945060208601519350604086015192506060860151915061306060808701613002565b90509295509295909350565b60006020828403121561307e57600080fd5b815160ff8116811461054557600080fd5b600061054560ff841683612e74565b7f4e487b7100000000000000000000000000000000000000000000000000000000600052605160045260246000fdfe0a940aa20af80b4a0bc80bf40c8d0e180ee21017104c106a10f21101110f111e112c113a11481156111e116411721181118f119d121512241233124212511260126f127e128d129c12ab12ba12c912d812e713301342135013821390139e13ac13bb13ca13d913e713f514031411141f142d143b144a1459146714d9a2646970667358221220ac5a1b695f93d13ff1d03f1cf1d126d7600a3c64c8b611e9e4943292d5e88f5464736f6c634300081100330a940aa20af80b4a0bc80bf40c8d0e180ee21017104c106a10f21101110f111e112c113a11481156111e116411721181118f119d121512241233124212511260126f127e128d129c12ab12ba12c912d812e713301342135013821390139e13ac13bb13ca13d913e713f514031411141f142d143b144a1459146714d9",
  "linkReferences": {},
  "deployedLinkReferences": {}
}