{
  "_format": "hh-sol-artifact-1",
  "contractName": "Rainterpreter",
  "sourceName": "contracts/interpreter/shared/Rainterpreter.sol",
  "abi": [
    {
      "inputs": [
        {
          "internalType": "uint256",
          "name": "dynamicLength",
          "type": "uint256"
        },
        {
          "internalType": "uint256",
          "name": "standardOpsLength",
          "type": "uint256"
        }
      ],
      "name": "BadDynamicLength",
      "type": "error"
    },
    {
      "inputs": [
        {
          "internalType": "uint256",
          "name": "expected",
          "type": "uint256"
        },
        {
          "internalType": "uint256",
          "name": "actual",
          "type": "uint256"
        }
      ],
      "name": "BadExternResultsLength",
      "type": "error"
    },
    {
      "inputs": [
        {
          "internalType": "uint256",
          "name": "_size",
          "type": "uint256"
        },
        {
          "internalType": "uint256",
          "name": "_start",
          "type": "uint256"
        },
        {
          "internalType": "uint256",
          "name": "_end",
          "type": "uint256"
        }
      ],
      "name": "InvalidCodeAtRange",
      "type": "error"
    },
    {
      "inputs": [
        {
          "internalType": "MemoryKVPtr",
          "name": "ptr",
          "type": "uint256"
        }
      ],
      "name": "InvalidPtr",
      "type": "error"
    },
    {
      "inputs": [
        {
          "internalType": "int256",
          "name": "price",
          "type": "int256"
        }
      ],
      "name": "NotPosIntPrice",
      "type": "error"
    },
    {
      "inputs": [
        {
          "internalType": "uint256",
          "name": "updatedAt",
          "type": "uint256"
        },
        {
          "internalType": "uint256",
          "name": "staleAfter",
          "type": "uint256"
        }
      ],
      "name": "StalePrice",
      "type": "error"
    },
    {
      "inputs": [
        {
          "internalType": "uint256",
          "name": "expectedLength",
          "type": "uint256"
        },
        {
          "internalType": "uint256",
          "name": "actualLength",
          "type": "uint256"
        }
      ],
      "name": "UnexpectedResultLength",
      "type": "error"
    },
    {
      "inputs": [
        {
          "internalType": "contract IInterpreterStoreV1",
          "name": "store_",
          "type": "address"
        },
        {
          "internalType": "StateNamespace",
          "name": "namespace_",
          "type": "uint256"
        },
        {
          "internalType": "EncodedDispatch",
          "name": "dispatch_",
          "type": "uint256"
        },
        {
          "internalType": "uint256[][]",
          "name": "context_",
          "type": "uint256[][]"
        }
      ],
      "name": "eval",
      "outputs": [
        {
          "internalType": "uint256[]",
          "name": "",
          "type": "uint256[]"
        },
        {
          "internalType": "uint256[]",
          "name": "",
          "type": "uint256[]"
        }
      ],
      "stateMutability": "view",
      "type": "function"
    },
    {
      "inputs": [],
      "name": "functionPointers",
      "outputs": [
        {
          "internalType": "bytes",
          "name": "",
          "type": "bytes"
        }
      ],
      "stateMutability": "view",
      "type": "function"
    },
    {
      "inputs": [
        {
          "internalType": "bytes4",
          "name": "interfaceId_",
          "type": "bytes4"
        }
      ],
      "name": "supportsInterface",
      "outputs": [
        {
          "internalType": "bool",
          "name": "",
          "type": "bool"
        }
      ],
      "stateMutability": "view",
      "type": "function"
    }
  ],
  "bytecode": "0x608060405234801561001057600080fd5b50613b10806100206000396000f3fe608060405234801561001057600080fd5b50600436106100415760003560e01c806301ffc9a7146100465780636715f8251461006e578063f933c72f1461008f575b600080fd5b61005961005436600461327f565b6100a4565b60405190151581526020015b60405180910390f35b61008161007c366004613385565b61013d565b6040516100659291906134fb565b610097610220565b6040516100659190613584565b60007fffffffff0000000000000000000000000000000000000000000000000000000082167f9e263f0a00000000000000000000000000000000000000000000000000000000148061013757507fffffffff0000000000000000000000000000000000000000000000000000000082167f01ffc9a700000000000000000000000000000000000000000000000000000000145b92915050565b606080602084901c60ff601086901c8116908616600061016461015f85610270565b61029e565b60006040820152905061017689610531565b606082015273ffffffffffffffffffffffffffffffffffffffff8a16608082015260a0810187905280516000906101b090839086906105a9565b825190915060209082030460006101fb6101ca83876105ff565b7fffffffffffffffffffffffffffffffffffffffffffffffffffffffffffffffe06020820286030180519181529091565b9150508061020c8560400151610615565b985098505050505050505094509492505050565b604080516000808252602082019092526060919081610250565b61327581526020019060019003908161023a5790505b50905061026a610265610262836106a5565b90565b610913565b91505090565b60606101378260017fffffffffffffffffffffffffffffffffffffffffffffffffffffffffffffffff6109a3565b6102f46040518060e0016040528060008152602001600081526020016000815260200160008152602001600073ffffffffffffffffffffffffffffffffffffffff16815260200160608152602001606081525090565b61034a6040518060e0016040528060008152602001600081526020016000815260200160008152602001600073ffffffffffffffffffffffffffffffffffffffff16815260200160608152602001606081525090565b6040805160008082526020820190925290610375565b60608152602001906001900390816103605790505b5060a08201526000610388845b60200190565b905060006103be6103b9837fffffffffffffffffffffffffffffffffffffffffffffffffffffffffffffffe0015190565b830190565b905060208201915060006103f2837fffffffffffffffffffffffffffffffffffffffffffffffffffffffffffffffe0015190565b905060008167ffffffffffffffff81111561040f5761040f6132e3565b604051908082528060200260200182016040528015610438578160200160208202803683370190505b5060208082018752858101908701819052945190915061045a90602002850190565b9350600084815b858210156104865761047c610382610477845190565b840190565b9150600101610461565b8067ffffffffffffffff81111561049f5761049f6132e3565b6040519080825280602002602001820160405280156104d257816020015b60608152602001906001900390816104bd5790505b5060c08901525b8587101561052357868860c0015184815181106104f8576104f8613597565b6020026020010181905250610516610382610511895190565b890190565b96506001909201916104d9565b509598975050505050505050565b6040517fffffffffffffffffffffffffffffffffffffffff0000000000000000000000003360601b166020820152603481018290526000906054015b604080517fffffffffffffffffffffffffffffffffffffffffffffffffffffffffffffffe0818403018152919052805160209091012092915050565b60c08301516020838102909101015180516000919081015b808210156105f257600491909101805190919061ffff601082901c811691166105e988828885565b955050506105c1565b83925050505b9392505050565b600081831061060e57816105f8565b5090919050565b606061ffff8216601083901c60008167ffffffffffffffff81111561063c5761063c6132e3565b604051908082528060200260200182016040528015610665578160200160208202803683370190505b50905060208101602082510281015b8082101561069a5784518252602080860151908301526040948501519490910190610674565b509095945050505050565b60606000604051806107e001604052806106bd603e90565b67ffffffffffffffff168152610a946020820152610aa26040820152610af86060820152610b4a6080820152610bc860a0820152610bf460c0820152610c8d60e0820152610e18610100820152610ee261012082015261101761014082015261104c61016082015261106a6101808201526110f26101a08201526111016101c082015261110f6101e082015261111e610200820181905261112c61022083015261113a6102408301526111486102608301526111566102808301526102a08201526111646102c08201526111726102e082015261118161030082015261118f61032082015261119d6103408201526112156103608201526112246103808201526112336103a08201526112426103c08201526112516103e082015261126061040082015261126f61042082015261127e61044082015261128d61046082015261129c6104808201526112ab6104a08201526112ba6104c08201526112c96104e08201526112d86105008201526112e76105208201526113306105408201526113426105608201526113506105808201526113826105a08201526113906105c082015261139e6105e08201526113ac6106008201526113bb6106208201526113ca6106408201526113d96106608201526113e76106808201526113f56106a08201526114036106c08201526114116106e082015261141f61070082015261142d61072082015261143b61074082015261144a6107608201526114596107808201526114676107a08201526114d96107c090910152905060006108fd826114e8565b90506109098185611537565b805b949350505050565b60606000825160020267ffffffffffffffff811115610934576109346132e3565b6040519080825280601f01601f19166020018201604052801561095e576020820181803683370190505b50905061ffff801990506020840160208551028101600284015b818310156109985780518351908516178152602090920191600201610978565b509295945050505050565b6060833b60008190036109c65750506040805160208101909152600081526105f8565b808411156109e45750506040805160208101909152600081526105f8565b83831015610a34576040517f2c4a89fa0000000000000000000000000000000000000000000000000000000081526004810182905260248101859052604481018490526064015b60405180910390fd5b8383038482036000828210610a495782610a4b565b815b60408051603f83017fffffffffffffffffffffffffffffffffffffffffffffffffffffffffffffffe0168101909152818152955090508087602087018a3c505050509392505050565b600061090b8261156d611579565b8251600090600f84811691600486901c90911690600886901c9060208402860388526000610ad18984896105a9565b9050610ae46020850282038a51866115e5565b508751975250602002909401949350505050565b600061090b8460a00151600885901c81518110610b1757610b17613597565b602002602001015160ff851681518110610b3357610b33613597565b60200260200101518361160d90919063ffffffff16565b6000806000610b7b847fffffffffffffffffffffffffffffffffffffffffffffffffffffffffffffffe00180519091565b915091506105f28660a001518681518110610b9857610b98613597565b60200260200101518281518110610bb157610bb1613597565b60200260200101518361161590919063ffffffff16565b600080836003811115610bdd57610bdd6135f5565b9050610bea858483611619565b5091949350505050565b600060ff831660018101600481901b851783610c32867fffffffffffffffffffffffffffffffffffffffffffffffffffffffffffffffe00180519091565b90965090505b8015610c8157610c49888388610aa2565b9550610c77867fffffffffffffffffffffffffffffffffffffffffffffffffffffffffffffffe00180519091565b9096509050610c38565b50939695505050505050565b602083810151600a84901c808302909101517fffffffffffffffffffffffffffffffffffffffffffffffffffffffffffffffe0601f86169384028503018051848252600094929360a085901c939192919085610cee85855b90815260200190565b6040517fb65ad68300000000000000000000000000000000000000000000000000000000815290995060058b901c601f1693506000925073ffffffffffffffffffffffffffffffffffffffff8816915063b65ad68390610d549088908790600401613624565b600060405180830381865afa158015610d71573d6000803e3d6000fd5b505050506040513d6000823e601f3d9081017fffffffffffffffffffffffffffffffffffffffffffffffffffffffffffffffe0168201604052610db7919081019061363d565b905081815114610e005780516040517fea4915ed000000000000000000000000000000000000000000000000000000008152610a2b918491600401918252602082015260400190565b610e0a888261173b565b9a9950505050505050505050565b6000600f83811690600485901c811690600886901c16600c86901c808201855b8960a001518581518110610e4e57610e4e613597565b6020026020010151518110156105235760005b84811015610ebe57610eb48b60a0015182880181518110610e8457610e84613597565b60200260200101518381518110610e9d57610e9d613597565b60200260200101518a61160d90919063ffffffff16565b9850600101610e61565b50600886901b600484901b178217610ed78b828b610aa2565b985050600101610e38565b600080610f11837fffffffffffffffffffffffffffffffffffffffffffffffffffffffffffffffe00180519091565b60408701519194509150600090610f289083611753565b9050600081600003610ff857608087015160608801516040517f669e48aa00000000000000000000000000000000000000000000000000000000815273ffffffffffffffffffffffffffffffffffffffff9092169163669e48aa91610f9a918790600401918252602082015260400190565b602060405180830381865afa158015610fb7573d6000803e3d6000fd5b505050506040513d601f19601f82011682018060405250810190610fdb91906136c3565b6040880151909150610fee90848361177c565b6040880152611004565b611001826117d5565b90505b808552602085015b979650505050505050565b6000600c83901c610fff8416825b8281101561099857611038878387610aa2565b9450806110448161370b565b915050611025565b60018281166020908102949094015192901c83029091015181520190565b600080600061109b847fffffffffffffffffffffffffffffffffffffffffffffffffffffffffffffffe00180519091565b90945090506110cc847fffffffffffffffffffffffffffffffffffffffffffffffffffffffffffffffe00180519091565b604088015191955092506110e190838361177c565b604087015250829150509392505050565b600061090b8261181c8561182f565b600061090b8261187c611916565b600061090b826119a885611a62565b600061090b82611b15611579565b600061090b82611baa611c1b565b600061090b82611c5a611916565b600061090b82611cb9611579565b600061090b82611d0f611c1b565b600061090b82611d9c611579565b600061090b82611e4b85611e58565b43815260006020820161090b565b42815260006020820161090b565b60008060006111ce847fffffffffffffffffffffffffffffffffffffffffffffffffffffffffffffffe00180519091565b909250905063ffffffff61100c83828416602085901c8416604086901c8516606087901c8616608088901c871660a089901c881660c08a901c891660e08b901c611e918b16565b600061090b82611ec785611ed3565b600061090b82611f1a85611ed3565b600061090b82611f2685611ed3565b600061090b82611f3285611ed3565b600061090b826105ff85611ed3565b600061090b82611f4185611ed3565b600061090b82611f4d85611ed3565b600061090b82611f5985611ed3565b600061090b82611f6585611f8c565b600061090b82611fc285611fdb565b600061090b8261203d85611fdb565b600061090b8261205885611fdb565b600061090b8261207185611f8c565b600061090b8261207e85611f8c565b6000602083028203805b83811015611321576000611303825190565b905080156113185782525060200190506105f8565b506020016112f1565b50602081015b95945050505050565b600061090b8261208b60018601611a62565b600061090b8261209b611579565b6000602083028203805b8381101561132157805160000361137a57506000815260200190506105f8565b60200161135a565b600061090b8261209f611579565b600061090b826120a3611c1b565b600061090b826120a7611579565b600061090b826120ab85611ed3565b600061090b826120e685611ed3565b600061090b8261211785611ed3565b600061090b8261212d6121ef565b600061090b826122a8611c1b565b600061090b826122f5611c1b565b600061090b82612342611c1b565b600061090b826123c4611c1b565b600061090b82612411611c1b565b600061090b8261245e611916565b600061090b826124bd85612514565b600061090b8261259e85612638565b600061090b82612701611579565b600060ff8316600884901c600316600a85901c83806114b38786602081029091037fffffffffffffffffffffffffffffffffffffffffffffffffffffffffffffffe00180519181529091565b915091506114cc6114c684868585612760565b82610ce5565b9998505050505050505050565b600061090b826128af85611fdb565b80518190603e146115325780516040517fc8b569010000000000000000000000000000000000000000000000000000000081526004810191909152603e6024820152604401610a2b565b919050565b60405182518251602080830286010183111561155257600080fd5b60208102830160405201835261156882826128c7565b505050565b60006105f883836128db565b7fffffffffffffffffffffffffffffffffffffffffffffffffffffffffffffffc0820180517fffffffffffffffffffffffffffffffffffffffffffffffffffffffffffffffe0909301805190936000929091906115da838363ffffffff8816565b905250929392505050565b8060200283015b808410156116075783518352602093840193909201916115ec565b50505050565b815260200190565b9052565b6000600382600381111561162f5761162f6135f5565b036116785760005b8460c00151518110156116725761166a8560c00151828151811061165d5761165d613597565b6020026020010151612a67565b600101611637565b50611733565b600082600381111561168c5761168c6135f5565b0361169d5783516116729084612af6565b60018260038111156116b1576116b16135f5565b036116f3576116ee6116e961026286602001517fffffffffffffffffffffffffffffffffffffffffffffffffffffffffffffffe00190565b612b13565b611733565b60005b8460a0015151811015611731576117298560a00151828151811061171c5761171c613597565b6020026020010151612b13565b6001016116f6565b505b509092915050565b600061174782846128c7565b815160200283016105f8565b61ffff828116905b81156117755781518314611775576040820151915061175b565b5092915050565b6000806117898585611753565b905061ffff811561179f578360208301526117cb565b60405191506060820160405284825283602083015280861660408301528160028760101c0160101b1795505b5093949350505050565b600081600003611814576040517f295cd22200000000000000000000000000000000000000000000000000000000815260048101839052602401610a2b565b506020015190565b60008160405160200161056d9190613743565b7fffffffffffffffffffffffffffffffffffffffffffffffffffffffffffffffe0602082028403018051828252600091600061186e828763ffffffff16565b905061100c81610ce5858582565b6040517efdd58e00000000000000000000000000000000000000000000000000000000815273ffffffffffffffffffffffffffffffffffffffff8381166004830152602482018390526000919085169062fdd58e906044015b602060405180830381865afa1580156118f2573d6000803e3d6000fd5b505050506040513d601f19601f8201168201806040525081019061090b91906136c3565b7fffffffffffffffffffffffffffffffffffffffffffffffffffffffffffffffa0820180517fffffffffffffffffffffffffffffffffffffffffffffffffffffffffffffffc0840180517fffffffffffffffffffffffffffffffffffffffffffffffffffffffffffffffe090950151909460009390919061199c84848463ffffffff8a16565b90525093949350505050565b6040517f4e1273f400000000000000000000000000000000000000000000000000000000815260609073ffffffffffffffffffffffffffffffffffffffff851690634e1273f4906119ff9086908690600401613779565b600060405180830381865afa158015611a1c573d6000803e3d6000fd5b505050506040513d6000823e601f3d9081017fffffffffffffffffffffffffffffffffffffffffffffffffffffffffffffffe016820160405261090b919081019061363d565b600060208202840381611a758285612bc7565b7fffffffffffffffffffffffffffffffffffffffffffffffffffffffffffffffe06020860284030180518682529192506000611ab68383868b63ffffffff16565b905086815114611aff5780516040517f231606ca000000000000000000000000000000000000000000000000000000008152610a2b918991600401918252602082015260400190565b81611b0a82826128c7565b602088028101610e0a565b6040517f70a0823100000000000000000000000000000000000000000000000000000000815273ffffffffffffffffffffffffffffffffffffffff8281166004830152600091908416906370a08231906024015b602060405180830381865afa158015611b86573d6000803e3d6000fd5b505050506040513d601f19601f820116820180604052508101906105f891906136c3565b60008173ffffffffffffffffffffffffffffffffffffffff166318160ddd6040518163ffffffff1660e01b8152600401602060405180830381865afa158015611bf7573d6000803e3d6000fd5b505050506040513d601f19601f8201168201806040525081019061013791906136c3565b7fffffffffffffffffffffffffffffffffffffffffffffffffffffffffffffffe082018051600091611c508263ffffffff8616565b9052509192915050565b6040517f4ee2cd7e00000000000000000000000000000000000000000000000000000000815273ffffffffffffffffffffffffffffffffffffffff83811660048301526024820183905260009190851690634ee2cd7e906044016118d5565b6040517f981b24d00000000000000000000000000000000000000000000000000000000081526004810182905260009073ffffffffffffffffffffffffffffffffffffffff84169063981b24d090602401611b69565b60008173ffffffffffffffffffffffffffffffffffffffff16638da5cb5b6040518163ffffffff1660e01b8152600401602060405180830381865afa158015611d5c573d6000803e3d6000fd5b505050506040513d601f19601f82011682018060405250810190611d8091906137dc565b73ffffffffffffffffffffffffffffffffffffffff1692915050565b6040517f6352211e0000000000000000000000000000000000000000000000000000000081526004810182905260009073ffffffffffffffffffffffffffffffffffffffff841690636352211e90602401602060405180830381865afa158015611e0a573d6000803e3d6000fd5b505050506040513d601f19601f82011682018060405250810190611e2e91906137dc565b73ffffffffffffffffffffffffffffffffffffffff169392505050565b80611e5557600080fd5b50565b600060208202840381815b86831015611e875782519150602083019250611e82828763ffffffff16565b611e63565b9695505050505050565b968852602088019590955260408701939093526060860191909152608085015260a084015260c083015260e08201526101000190565b60006105f882846137f9565b60208181028403805160009282019083825b88841015611f0c5783519150611eff83838a63ffffffff16565b9250602084019350611ee5565b919093529695505050505050565b60006105f8828461380c565b60006105f88284613940565b600081831161060e57816105f8565b60006105f8828461394c565b60006105f88284613960565b60006105f88284613977565b60006105f8600184901c600185166002811115611f8457611f846135f5565b849190612c1f565b7fffffffffffffffffffffffffffffffffffffffffffffffffffffffffffffffe0830180516000916115da848363ffffffff8816565b600061090b8282611fd4868883612c1f565b9190612c8e565b7fffffffffffffffffffffffffffffffffffffffffffffffffffffffffffffffc0830180517fffffffffffffffffffffffffffffffffffffffffffffffffffffffffffffffe09094018051909460009290919061199c85848463ffffffff8a16565b600061090b83600186166002811115611f8457611f846135f5565b600061090b828261206a868883612c1f565b9190612ca4565b60006105f8828483612cba565b60006105f8828483612d09565b606060008411611733578161090b565b1490565b1090565b1590565b1190565b60008282018381106120bd578061090b565b7fffffffffffffffffffffffffffffffffffffffffffffffffffffffffffffffff949350505050565b6000826000036120f857506000610137565b8282028284828161210b5761210b6135c6565b04036120bd578061090b565b60008183116121275760006105f8565b50900390565b6040517fd97b2e4800000000000000000000000000000000000000000000000000000000815273ffffffffffffffffffffffffffffffffffffffff84811660048301528381166024830152604482018390526000919086169063d97b2e4890606401602060405180830381865afa1580156121ac573d6000803e3d6000fd5b505050506040513d601f19601f820116820180604052508101906121d091906136c3565b73ffffffffffffffffffffffffffffffffffffffff1695945050505050565b7fffffffffffffffffffffffffffffffffffffffffffffffffffffffffffffff80820180517fffffffffffffffffffffffffffffffffffffffffffffffffffffffffffffffa0840180517fffffffffffffffffffffffffffffffffffffffffffffffffffffffffffffffc08601517fffffffffffffffffffffffffffffffffffffffffffffffffffffffffffffffe09096015191956000949192909161229b8585858563ffffffff8c16565b9052509495945050505050565b60008173ffffffffffffffffffffffffffffffffffffffff1663ec14b06e6040518163ffffffff1660e01b8152600401602060405180830381865afa158015611bf7573d6000803e3d6000fd5b60008173ffffffffffffffffffffffffffffffffffffffff1663cd3293de6040518163ffffffff1660e01b8152600401602060405180830381865afa158015611d5c573d6000803e3d6000fd5b60008173ffffffffffffffffffffffffffffffffffffffff1663f9020e336040518163ffffffff1660e01b8152600401602060405180830381865afa15801561238f573d6000803e3d6000fd5b505050506040513d601f19601f820116820180604052508101906123b3919061398a565b6003811115610137576101376135f5565b60008173ffffffffffffffffffffffffffffffffffffffff1663fc0c546a6040518163ffffffff1660e01b8152600401602060405180830381865afa158015611d5c573d6000803e3d6000fd5b60008173ffffffffffffffffffffffffffffffffffffffff166347e4bbb96040518163ffffffff1660e01b8152600401602060405180830381865afa158015611bf7573d6000803e3d6000fd5b6040517fdb8554fc00000000000000000000000000000000000000000000000000000000815273ffffffffffffffffffffffffffffffffffffffff8381166004830152602482018390526000919085169063db8554fc906044016118d5565b6040517f88d6860400000000000000000000000000000000000000000000000000000000815260009073ffffffffffffffffffffffffffffffffffffffff8516906388d68604906118d590869086906004016139ab565b6020810283037fffffffffffffffffffffffffffffffffffffffffffffffffffffffffffffffe001805182825260009182819050600080612577837fffffffffffffffffffffffffffffffffffffffffffffffffffffffffffffffe00180519091565b9150915061259161258d8287878c63ffffffff16565b8352565b5090979650505050505050565b6040517fcaa0eb3b00000000000000000000000000000000000000000000000000000000815260009073ffffffffffffffffffffffffffffffffffffffff86169063caa0eb3b906125f7908790879087906004016139da565b602060405180830381865afa158015612614573d6000803e3d6000fd5b505050506040513d601f19601f8201168201806040525081019061132791906136c3565b6020810283037fffffffffffffffffffffffffffffffffffffffffffffffffffffffffffffffe00180518282526000918280612696837fffffffffffffffffffffffffffffffffffffffffffffffffffffffffffffffe00180519091565b9150915060006126c6837fffffffffffffffffffffffffffffffffffffffffffffffffffffffffffffffe0015190565b90506125916126db828488888d63ffffffff16565b7fffffffffffffffffffffffffffffffffffffffffffffffffffffffffffffffe0850152565b60008060015b6008811161275857600061271b8683612d69565b905060006127298684612d69565b905060006127378383612117565b9050612747856001860383612e19565b945050600190920191506127079050565b509392505050565b805160009081908190819060015b600881116128a1576000925082896127a757507fffffffffffffffffffffffffffffffffffffffffffffffffffffffffffffffff6127ab565b5060005b60005b8381101561285f576127d98982815181106127cb576127cb613597565b602002602001015184612d69565b955089861161282a578a6127f8576127f186836105ff565b9150612821565b60018b0361280a576127f18683611f32565b60028b148015612818575084155b15612821578591505b60019450612857565b8b612857577fffffffffffffffffffffffffffffffffffffffffffffffffffffffffffffffff915061285f565b6001016127ae565b508361288857507fffffffffffffffffffffffffffffffffffffffffffffffffffffffffffffffff5b612896866001840383612e19565b95505060010161276e565b509298975050505050505050565b600061090b8385600f16600487901c600f1685612ea3565b6000602083019050611568818385516115e5565b60008060008473ffffffffffffffffffffffffffffffffffffffff1663feaf968c6040518163ffffffff1660e01b815260040160a060405180830381865afa15801561292b573d6000803e3d6000fd5b505050506040513d601f19601f8201168201806040525081019061294f9190613a29565b5093505092505060008213612993576040517f3351e26f00000000000000000000000000000000000000000000000000000000815260048101839052602401610a2b565b8361299e8242613977565b11156129e0576040517f2730eb480000000000000000000000000000000000000000000000000000000081526004810182905260248101859052604401610a2b565b6113278573ffffffffffffffffffffffffffffffffffffffff1663313ce5676040518163ffffffff1660e01b8152600401602060405180830381865afa158015612a2e573d6000803e3d6000fd5b505050506040513d601f19601f82011682018060405250810190612a529190613a79565b60ff166001612a6085612f49565b9190612c1f565b611e5581604051602401612a7b9190613584565b604080517fffffffffffffffffffffffffffffffffffffffffffffffffffffffffffffffe08184030181529190526020810180517bffffffffffffffffffffffffffffffffffffffffffffffffffffffff167f0be77f5600000000000000000000000000000000000000000000000000000000179052612fb9565b60008060208484030490506117336116e960208302850383612bc7565b612b516040518060400160405280600381526020017f7e7e7e0000000000000000000000000000000000000000000000000000000000815250612fda565b60005b8151811015612b8857612b8081838381518110612b7357612b73613597565b6020026020010151613069565b600101612b54565b50611e556040518060400160405280600381526020017f7e7e7e0000000000000000000000000000000000000000000000000000000000815250612fda565b606060008267ffffffffffffffff811115612be457612be46132e3565b604051908082528060200260200182016040528015612c0d578160200160208202803683370190505b509050602081016127588582866115e5565b60008083601203612c3357849150506105f8565b8360121115612c5f57506012839003612c57612c5082600a613940565b86906120e6565b9150506105f8565b507fffffffffffffffffffffffffffffffffffffffffffffffffffffffffffffffee8301612c57858285613100565b600061090b84670de0b6b3a76400008585613158565b600061090b8484670de0b6b3a764000085613158565b60008260000b600003612cce5750826105f8565b60008360000b1315612cf657612cef612ce884600a613a9c565b85906120e6565b90506105f8565b60ff600084900316612c57858285613100565b60008060128403612d1d57849150506105f8565b8360121115612d3757836012039050612c57858285613100565b507fffffffffffffffffffffffffffffffffffffffffffffffffffffffffffffffee8301612c57612c5082600a613940565b6000816008811115612dd7576040517f08c379a000000000000000000000000000000000000000000000000000000000815260206004820152600860248201527f4d41585f544945520000000000000000000000000000000000000000000000006044820152606401610a2b565b82600003612de85760009150611775565b50507fffffffffffffffffffffffffffffffffffffffffffffffffffffffffffffffff016020021c63ffffffff1690565b6000826008811115612e87576040517f08c379a000000000000000000000000000000000000000000000000000000000815260206004820152600860248201527f4d41585f544945520000000000000000000000000000000000000000000000006044820152606401610a2b565b505060209190910290811b63ffffffff90911b19919091161790565b6000826008811115612f11576040517f08c379a000000000000000000000000000000000000000000000000000000000815260206004820152600860248201527f4d41585f544945520000000000000000000000000000000000000000000000006044820152606401610a2b565b6000855b85811015612f3d5763ffffffff6020820290811b199890981685891b17979150600101612f15565b50959695505050505050565b600080821215612fb5576040517f08c379a000000000000000000000000000000000000000000000000000000000815260206004820181905260248201527f53616665436173743a2076616c7565206d75737420626520706f7369746976656044820152606401610a2b565b5090565b80516a636f6e736f6c652e6c6f67602083016000808483855afa5050505050565b611e5581604051602401612fee9190613584565b604080517fffffffffffffffffffffffffffffffffffffffffffffffffffffffffffffffe08184030181529190526020810180517bffffffffffffffffffffffffffffffffffffffffffffffffffffffff167f41304fac00000000000000000000000000000000000000000000000000000000179052612fb9565b60405160248101839052604481018290526130fc90606401604080517fffffffffffffffffffffffffffffffffffffffffffffffffffffffffffffffe08184030181529190526020810180517bffffffffffffffffffffffffffffffffffffffffffffffffffffffff167ff666715a00000000000000000000000000000000000000000000000000000000179052612fb9565b5050565b60008061310e84600a613940565b9050600061311c828761380c565b90506001846002811115613132576131326135f5565b14801561314857506131448282613960565b8614155b1561132757611e876001826137f9565b6000806131668686866131a8565b9050600183600281111561317c5761317c6135f5565b148015613148575060008480613194576131946135c6565b868809111561132757611e876001826137f9565b600080807fffffffffffffffffffffffffffffffffffffffffffffffffffffffffffffffff85870985870292508281108382030391505080600003613200578382816131f6576131f66135c6565b04925050506105f8565b80841161320c57600080fd5b60008486880960026001871981018816978890046003810283188082028403028082028403028082028403028082028403028082028403029081029092039091026000889003889004909101858311909403939093029303949094049190911702949350505050565b61327d613aab565b565b60006020828403121561329157600080fd5b81357fffffffff00000000000000000000000000000000000000000000000000000000811681146105f857600080fd5b73ffffffffffffffffffffffffffffffffffffffff81168114611e5557600080fd5b7f4e487b7100000000000000000000000000000000000000000000000000000000600052604160045260246000fd5b604051601f82017fffffffffffffffffffffffffffffffffffffffffffffffffffffffffffffffe016810167ffffffffffffffff81118282101715613359576133596132e3565b604052919050565b600067ffffffffffffffff82111561337b5761337b6132e3565b5060051b60200190565b6000806000806080858703121561339b57600080fd5b6133a585356132c1565b843593506020850135925060408501359150606085013567ffffffffffffffff808211156133d257600080fd5b818701915087601f8301126133e657600080fd5b6133f86133f38335613361565b613312565b82358082526020808301929160051b8501018a81111561341757600080fd5b602085015b818110156134ae57848135111561343257600080fd5b803586018c603f82011261344557600080fd5b60208101356134566133f382613361565b81815260059190911b82016040019060208101908f83111561347757600080fd5b6040840193505b8284101561349957833582526020938401939091019061347e565b8752505060209485019491909101905061341c565b50508094505050505092959194509250565b600081518084526020808501945080840160005b838110156134f0578151875295820195908201906001016134d4565b509495945050505050565b60408152600061350e60408301856134c0565b828103602084015261132781856134c0565b6000815180845260005b818110156135465760208185018101518683018201520161352a565b5060006020828601015260207fffffffffffffffffffffffffffffffffffffffffffffffffffffffffffffffe0601f83011685010191505092915050565b6020815260006105f86020830184613520565b7f4e487b7100000000000000000000000000000000000000000000000000000000600052603260045260246000fd5b7f4e487b7100000000000000000000000000000000000000000000000000000000600052601260045260246000fd5b7f4e487b7100000000000000000000000000000000000000000000000000000000600052602160045260246000fd5b82815260406020820152600061090b60408301846134c0565b6000602080838503121561365057600080fd5b825167ffffffffffffffff81111561366757600080fd5b8301601f8101851361367857600080fd5b80516136866133f382613361565b81815260059190911b820183019083810190878311156136a557600080fd5b928401925b8284101561100c578351825292840192908401906136aa565b6000602082840312156136d557600080fd5b5051919050565b7f4e487b7100000000000000000000000000000000000000000000000000000000600052601160045260246000fd5b60007fffffffffffffffffffffffffffffffffffffffffffffffffffffffffffffffff820361373c5761373c6136dc565b5060010190565b815160009082906020808601845b8381101561376d57815185529382019390820190600101613751565b50929695505050505050565b604080825283519082018190526000906020906060840190828701845b828110156137c857815173ffffffffffffffffffffffffffffffffffffffff1684529284019290840190600101613796565b50505083810382850152611e8781866134c0565b6000602082840312156137ee57600080fd5b81516105f8816132c1565b80820180821115610137576101376136dc565b60008261381b5761381b6135c6565b500490565b600181815b8085111561387957817fffffffffffffffffffffffffffffffffffffffffffffffffffffffffffffffff0482111561385f5761385f6136dc565b8085161561386c57918102915b93841c9390800290613825565b509250929050565b60008261389057506001610137565b8161389d57506000610137565b81600181146138b357600281146138bd576138d9565b6001915050610137565b60ff8411156138ce576138ce6136dc565b50506001821b610137565b5060208310610133831016604e8410600b84101617156138fc575081810a610137565b6139068383613820565b807fffffffffffffffffffffffffffffffffffffffffffffffffffffffffffffffff04821115613938576139386136dc565b029392505050565b60006105f88383613881565b60008261395b5761395b6135c6565b500690565b8082028115828204841417610137576101376136dc565b81810381811115610137576101376136dc565b60006020828403121561399c57600080fd5b8151600481106105f857600080fd5b73ffffffffffffffffffffffffffffffffffffffff8316815260406020820152600061090b60408301846134c0565b73ffffffffffffffffffffffffffffffffffffffff8416815282602082015260606040820152600061132760608301846134c0565b805169ffffffffffffffffffff8116811461153257600080fd5b600080600080600060a08688031215613a4157600080fd5b613a4a86613a0f565b9450602086015193506040860151925060608601519150613a6d60808701613a0f565b90509295509295909350565b600060208284031215613a8b57600080fd5b815160ff811681146105f857600080fd5b60006105f860ff841683613881565b7f4e487b7100000000000000000000000000000000000000000000000000000000600052605160045260246000fdfea2646970667358221220db9dbc7ea63b5156716d460acd64bbb06fe4b1077cae25cb6b1f4e316566069664736f6c63430008110033",
  "linkReferences": {},
  "deployedLinkReferences": {}
}