{
  "_format": "hh-sol-artifact-1",
  "contractName": "FlowERC20",
  "sourceName": "contracts/flow/erc20/FlowERC20.sol",
  "abi": [
    {
      "inputs": [
        {
          "components": [
            {
              "internalType": "address",
              "name": "deployer",
              "type": "address"
            },
            {
              "internalType": "bytes",
              "name": "meta",
              "type": "bytes"
            }
          ],
          "internalType": "struct DeployerDiscoverableMetaV1ConstructionConfig",
          "name": "config_",
          "type": "tuple"
        }
      ],
      "stateMutability": "nonpayable",
      "type": "constructor"
    },
    {
      "inputs": [
        {
          "internalType": "uint256",
          "name": "flowMinOutputs_",
          "type": "uint256"
        }
      ],
      "name": "BadMinStackLength",
      "type": "error"
    },
    {
      "inputs": [
        {
          "internalType": "uint256",
          "name": "i",
          "type": "uint256"
        }
      ],
      "name": "InvalidSignature",
      "type": "error"
    },
    {
      "inputs": [
        {
          "internalType": "Sentinel",
          "name": "sentinel",
          "type": "uint256"
        }
      ],
      "name": "MissingSentinel",
      "type": "error"
    },
    {
      "inputs": [
        {
          "internalType": "bytes",
          "name": "unmeta",
          "type": "bytes"
        }
      ],
      "name": "NotRainMetaV1",
      "type": "error"
    },
    {
      "inputs": [
        {
          "internalType": "bytes32",
          "name": "expectedHash",
          "type": "bytes32"
        },
        {
          "internalType": "bytes32",
          "name": "actualHash",
          "type": "bytes32"
        }
      ],
      "name": "UnexpectedMetaHash",
      "type": "error"
    },
    {
      "inputs": [
        {
          "internalType": "bytes32",
          "name": "unregisteredHash",
          "type": "bytes32"
        }
      ],
      "name": "UnregisteredFlow",
      "type": "error"
    },
    {
      "inputs": [],
      "name": "UnsupportedERC1155Flow",
      "type": "error"
    },
    {
      "inputs": [],
      "name": "UnsupportedERC20Flow",
      "type": "error"
    },
    {
      "inputs": [],
      "name": "UnsupportedERC721Flow",
      "type": "error"
    },
    {
      "anonymous": false,
      "inputs": [
        {
          "indexed": true,
          "internalType": "address",
          "name": "owner",
          "type": "address"
        },
        {
          "indexed": true,
          "internalType": "address",
          "name": "spender",
          "type": "address"
        },
        {
          "indexed": false,
          "internalType": "uint256",
          "name": "value",
          "type": "uint256"
        }
      ],
      "name": "Approval",
      "type": "event"
    },
    {
      "anonymous": false,
      "inputs": [
        {
          "indexed": false,
          "internalType": "address",
          "name": "sender",
          "type": "address"
        },
        {
          "indexed": false,
          "internalType": "uint256[][]",
          "name": "context",
          "type": "uint256[][]"
        }
      ],
      "name": "Context",
      "type": "event"
    },
    {
      "anonymous": false,
      "inputs": [
        {
          "indexed": false,
          "internalType": "address",
          "name": "sender",
          "type": "address"
        },
        {
          "components": [
            {
              "internalType": "contract IInterpreterV1",
              "name": "interpreter",
              "type": "address"
            },
            {
              "internalType": "contract IInterpreterStoreV1",
              "name": "store",
              "type": "address"
            },
            {
              "internalType": "address",
              "name": "expression",
              "type": "address"
            }
          ],
          "indexed": false,
          "internalType": "struct Evaluable",
          "name": "evaluable",
          "type": "tuple"
        }
      ],
      "name": "FlowInitialized",
      "type": "event"
    },
    {
      "anonymous": false,
      "inputs": [
        {
          "indexed": false,
          "internalType": "address",
          "name": "sender",
          "type": "address"
        },
        {
          "components": [
            {
              "internalType": "string",
              "name": "name",
              "type": "string"
            },
            {
              "internalType": "string",
              "name": "symbol",
              "type": "string"
            },
            {
              "components": [
                {
                  "internalType": "contract IExpressionDeployerV1",
                  "name": "deployer",
                  "type": "address"
                },
                {
                  "internalType": "bytes[]",
                  "name": "sources",
                  "type": "bytes[]"
                },
                {
                  "internalType": "uint256[]",
                  "name": "constants",
                  "type": "uint256[]"
                }
              ],
              "internalType": "struct EvaluableConfig",
              "name": "evaluableConfig",
              "type": "tuple"
            },
            {
              "components": [
                {
                  "internalType": "contract IExpressionDeployerV1",
                  "name": "deployer",
                  "type": "address"
                },
                {
                  "internalType": "bytes[]",
                  "name": "sources",
                  "type": "bytes[]"
                },
                {
                  "internalType": "uint256[]",
                  "name": "constants",
                  "type": "uint256[]"
                }
              ],
              "internalType": "struct EvaluableConfig[]",
              "name": "flowConfig",
              "type": "tuple[]"
            }
          ],
          "indexed": false,
          "internalType": "struct FlowERC20Config",
          "name": "config",
          "type": "tuple"
        }
      ],
      "name": "Initialize",
      "type": "event"
    },
    {
      "anonymous": false,
      "inputs": [
        {
          "indexed": false,
          "internalType": "uint8",
          "name": "version",
          "type": "uint8"
        }
      ],
      "name": "Initialized",
      "type": "event"
    },
    {
      "anonymous": false,
      "inputs": [
        {
          "indexed": false,
          "internalType": "address",
          "name": "sender",
          "type": "address"
        },
        {
          "indexed": false,
          "internalType": "uint256",
          "name": "subject",
          "type": "uint256"
        },
        {
          "indexed": false,
          "internalType": "bytes",
          "name": "meta",
          "type": "bytes"
        }
      ],
      "name": "MetaV1",
      "type": "event"
    },
    {
      "anonymous": false,
      "inputs": [
        {
          "indexed": true,
          "internalType": "address",
          "name": "from",
          "type": "address"
        },
        {
          "indexed": true,
          "internalType": "address",
          "name": "to",
          "type": "address"
        },
        {
          "indexed": false,
          "internalType": "uint256",
          "name": "value",
          "type": "uint256"
        }
      ],
      "name": "Transfer",
      "type": "event"
    },
    {
      "inputs": [
        {
          "internalType": "address",
          "name": "owner",
          "type": "address"
        },
        {
          "internalType": "address",
          "name": "spender",
          "type": "address"
        }
      ],
      "name": "allowance",
      "outputs": [
        {
          "internalType": "uint256",
          "name": "",
          "type": "uint256"
        }
      ],
      "stateMutability": "view",
      "type": "function"
    },
    {
      "inputs": [
        {
          "internalType": "address",
          "name": "spender",
          "type": "address"
        },
        {
          "internalType": "uint256",
          "name": "amount",
          "type": "uint256"
        }
      ],
      "name": "approve",
      "outputs": [
        {
          "internalType": "bool",
          "name": "",
          "type": "bool"
        }
      ],
      "stateMutability": "nonpayable",
      "type": "function"
    },
    {
      "inputs": [
        {
          "internalType": "address",
          "name": "account",
          "type": "address"
        }
      ],
      "name": "balanceOf",
      "outputs": [
        {
          "internalType": "uint256",
          "name": "",
          "type": "uint256"
        }
      ],
      "stateMutability": "view",
      "type": "function"
    },
    {
      "inputs": [],
      "name": "decimals",
      "outputs": [
        {
          "internalType": "uint8",
          "name": "",
          "type": "uint8"
        }
      ],
      "stateMutability": "view",
      "type": "function"
    },
    {
      "inputs": [
        {
          "internalType": "address",
          "name": "spender",
          "type": "address"
        },
        {
          "internalType": "uint256",
          "name": "subtractedValue",
          "type": "uint256"
        }
      ],
      "name": "decreaseAllowance",
      "outputs": [
        {
          "internalType": "bool",
          "name": "",
          "type": "bool"
        }
      ],
      "stateMutability": "nonpayable",
      "type": "function"
    },
    {
      "inputs": [
        {
          "components": [
            {
              "internalType": "contract IInterpreterV1",
              "name": "interpreter",
              "type": "address"
            },
            {
              "internalType": "contract IInterpreterStoreV1",
              "name": "store",
              "type": "address"
            },
            {
              "internalType": "address",
              "name": "expression",
              "type": "address"
            }
          ],
          "internalType": "struct Evaluable",
          "name": "evaluable_",
          "type": "tuple"
        },
        {
          "internalType": "uint256[]",
          "name": "callerContext_",
          "type": "uint256[]"
        },
        {
          "components": [
            {
              "internalType": "address",
              "name": "signer",
              "type": "address"
            },
            {
              "internalType": "uint256[]",
              "name": "context",
              "type": "uint256[]"
            },
            {
              "internalType": "bytes",
              "name": "signature",
              "type": "bytes"
            }
          ],
          "internalType": "struct SignedContextV1[]",
          "name": "signedContexts_",
          "type": "tuple[]"
        }
      ],
      "name": "flow",
      "outputs": [
        {
          "components": [
            {
              "components": [
                {
                  "internalType": "address",
                  "name": "account",
                  "type": "address"
                },
                {
                  "internalType": "uint256",
                  "name": "amount",
                  "type": "uint256"
                }
              ],
              "internalType": "struct ERC20SupplyChange[]",
              "name": "mints",
              "type": "tuple[]"
            },
            {
              "components": [
                {
                  "internalType": "address",
                  "name": "account",
                  "type": "address"
                },
                {
                  "internalType": "uint256",
                  "name": "amount",
                  "type": "uint256"
                }
              ],
              "internalType": "struct ERC20SupplyChange[]",
              "name": "burns",
              "type": "tuple[]"
            },
            {
              "components": [
                {
                  "components": [
                    {
                      "internalType": "address",
                      "name": "token",
                      "type": "address"
                    },
                    {
                      "internalType": "address",
                      "name": "from",
                      "type": "address"
                    },
                    {
                      "internalType": "address",
                      "name": "to",
                      "type": "address"
                    },
                    {
                      "internalType": "uint256",
                      "name": "amount",
                      "type": "uint256"
                    }
                  ],
                  "internalType": "struct ERC20Transfer[]",
                  "name": "erc20",
                  "type": "tuple[]"
                },
                {
                  "components": [
                    {
                      "internalType": "address",
                      "name": "token",
                      "type": "address"
                    },
                    {
                      "internalType": "address",
                      "name": "from",
                      "type": "address"
                    },
                    {
                      "internalType": "address",
                      "name": "to",
                      "type": "address"
                    },
                    {
                      "internalType": "uint256",
                      "name": "id",
                      "type": "uint256"
                    }
                  ],
                  "internalType": "struct ERC721Transfer[]",
                  "name": "erc721",
                  "type": "tuple[]"
                },
                {
                  "components": [
                    {
                      "internalType": "address",
                      "name": "token",
                      "type": "address"
                    },
                    {
                      "internalType": "address",
                      "name": "from",
                      "type": "address"
                    },
                    {
                      "internalType": "address",
                      "name": "to",
                      "type": "address"
                    },
                    {
                      "internalType": "uint256",
                      "name": "id",
                      "type": "uint256"
                    },
                    {
                      "internalType": "uint256",
                      "name": "amount",
                      "type": "uint256"
                    }
                  ],
                  "internalType": "struct ERC1155Transfer[]",
                  "name": "erc1155",
                  "type": "tuple[]"
                }
              ],
              "internalType": "struct FlowTransferV1",
              "name": "flow",
              "type": "tuple"
            }
          ],
          "internalType": "struct FlowERC20IOV1",
          "name": "",
          "type": "tuple"
        }
      ],
      "stateMutability": "nonpayable",
      "type": "function"
    },
    {
      "inputs": [
        {
          "internalType": "address",
          "name": "spender",
          "type": "address"
        },
        {
          "internalType": "uint256",
          "name": "addedValue",
          "type": "uint256"
        }
      ],
      "name": "increaseAllowance",
      "outputs": [
        {
          "internalType": "bool",
          "name": "",
          "type": "bool"
        }
      ],
      "stateMutability": "nonpayable",
      "type": "function"
    },
    {
      "inputs": [
        {
          "internalType": "bytes",
          "name": "data_",
          "type": "bytes"
        }
      ],
      "name": "initialize",
      "outputs": [],
      "stateMutability": "nonpayable",
      "type": "function"
    },
    {
      "inputs": [
        {
          "internalType": "bytes[]",
          "name": "data",
          "type": "bytes[]"
        }
      ],
      "name": "multicall",
      "outputs": [
        {
          "internalType": "bytes[]",
          "name": "results",
          "type": "bytes[]"
        }
      ],
      "stateMutability": "nonpayable",
      "type": "function"
    },
    {
      "inputs": [],
      "name": "name",
      "outputs": [
        {
          "internalType": "string",
          "name": "",
          "type": "string"
        }
      ],
      "stateMutability": "view",
      "type": "function"
    },
    {
      "inputs": [
        {
          "internalType": "address",
          "name": "",
          "type": "address"
        },
        {
          "internalType": "address",
          "name": "",
          "type": "address"
        },
        {
          "internalType": "uint256[]",
          "name": "",
          "type": "uint256[]"
        },
        {
          "internalType": "uint256[]",
          "name": "",
          "type": "uint256[]"
        },
        {
          "internalType": "bytes",
          "name": "",
          "type": "bytes"
        }
      ],
      "name": "onERC1155BatchReceived",
      "outputs": [
        {
          "internalType": "bytes4",
          "name": "",
          "type": "bytes4"
        }
      ],
      "stateMutability": "nonpayable",
      "type": "function"
    },
    {
      "inputs": [
        {
          "internalType": "address",
          "name": "",
          "type": "address"
        },
        {
          "internalType": "address",
          "name": "",
          "type": "address"
        },
        {
          "internalType": "uint256",
          "name": "",
          "type": "uint256"
        },
        {
          "internalType": "uint256",
          "name": "",
          "type": "uint256"
        },
        {
          "internalType": "bytes",
          "name": "",
          "type": "bytes"
        }
      ],
      "name": "onERC1155Received",
      "outputs": [
        {
          "internalType": "bytes4",
          "name": "",
          "type": "bytes4"
        }
      ],
      "stateMutability": "nonpayable",
      "type": "function"
    },
    {
      "inputs": [
        {
          "internalType": "address",
          "name": "",
          "type": "address"
        },
        {
          "internalType": "address",
          "name": "",
          "type": "address"
        },
        {
          "internalType": "uint256",
          "name": "",
          "type": "uint256"
        },
        {
          "internalType": "bytes",
          "name": "",
          "type": "bytes"
        }
      ],
      "name": "onERC721Received",
      "outputs": [
        {
          "internalType": "bytes4",
          "name": "",
          "type": "bytes4"
        }
      ],
      "stateMutability": "nonpayable",
      "type": "function"
    },
    {
      "inputs": [
        {
          "components": [
            {
              "internalType": "contract IInterpreterV1",
              "name": "interpreter",
              "type": "address"
            },
            {
              "internalType": "contract IInterpreterStoreV1",
              "name": "store",
              "type": "address"
            },
            {
              "internalType": "address",
              "name": "expression",
              "type": "address"
            }
          ],
          "internalType": "struct Evaluable",
          "name": "evaluable_",
          "type": "tuple"
        },
        {
          "internalType": "uint256[]",
          "name": "callerContext_",
          "type": "uint256[]"
        },
        {
          "components": [
            {
              "internalType": "address",
              "name": "signer",
              "type": "address"
            },
            {
              "internalType": "uint256[]",
              "name": "context",
              "type": "uint256[]"
            },
            {
              "internalType": "bytes",
              "name": "signature",
              "type": "bytes"
            }
          ],
          "internalType": "struct SignedContextV1[]",
          "name": "signedContexts_",
          "type": "tuple[]"
        }
      ],
      "name": "previewFlow",
      "outputs": [
        {
          "components": [
            {
              "components": [
                {
                  "internalType": "address",
                  "name": "account",
                  "type": "address"
                },
                {
                  "internalType": "uint256",
                  "name": "amount",
                  "type": "uint256"
                }
              ],
              "internalType": "struct ERC20SupplyChange[]",
              "name": "mints",
              "type": "tuple[]"
            },
            {
              "components": [
                {
                  "internalType": "address",
                  "name": "account",
                  "type": "address"
                },
                {
                  "internalType": "uint256",
                  "name": "amount",
                  "type": "uint256"
                }
              ],
              "internalType": "struct ERC20SupplyChange[]",
              "name": "burns",
              "type": "tuple[]"
            },
            {
              "components": [
                {
                  "components": [
                    {
                      "internalType": "address",
                      "name": "token",
                      "type": "address"
                    },
                    {
                      "internalType": "address",
                      "name": "from",
                      "type": "address"
                    },
                    {
                      "internalType": "address",
                      "name": "to",
                      "type": "address"
                    },
                    {
                      "internalType": "uint256",
                      "name": "amount",
                      "type": "uint256"
                    }
                  ],
                  "internalType": "struct ERC20Transfer[]",
                  "name": "erc20",
                  "type": "tuple[]"
                },
                {
                  "components": [
                    {
                      "internalType": "address",
                      "name": "token",
                      "type": "address"
                    },
                    {
                      "internalType": "address",
                      "name": "from",
                      "type": "address"
                    },
                    {
                      "internalType": "address",
                      "name": "to",
                      "type": "address"
                    },
                    {
                      "internalType": "uint256",
                      "name": "id",
                      "type": "uint256"
                    }
                  ],
                  "internalType": "struct ERC721Transfer[]",
                  "name": "erc721",
                  "type": "tuple[]"
                },
                {
                  "components": [
                    {
                      "internalType": "address",
                      "name": "token",
                      "type": "address"
                    },
                    {
                      "internalType": "address",
                      "name": "from",
                      "type": "address"
                    },
                    {
                      "internalType": "address",
                      "name": "to",
                      "type": "address"
                    },
                    {
                      "internalType": "uint256",
                      "name": "id",
                      "type": "uint256"
                    },
                    {
                      "internalType": "uint256",
                      "name": "amount",
                      "type": "uint256"
                    }
                  ],
                  "internalType": "struct ERC1155Transfer[]",
                  "name": "erc1155",
                  "type": "tuple[]"
                }
              ],
              "internalType": "struct FlowTransferV1",
              "name": "flow",
              "type": "tuple"
            }
          ],
          "internalType": "struct FlowERC20IOV1",
          "name": "",
          "type": "tuple"
        }
      ],
      "stateMutability": "view",
      "type": "function"
    },
    {
      "inputs": [
        {
          "internalType": "bytes4",
          "name": "interfaceId",
          "type": "bytes4"
        }
      ],
      "name": "supportsInterface",
      "outputs": [
        {
          "internalType": "bool",
          "name": "",
          "type": "bool"
        }
      ],
      "stateMutability": "view",
      "type": "function"
    },
    {
      "inputs": [],
      "name": "symbol",
      "outputs": [
        {
          "internalType": "string",
          "name": "",
          "type": "string"
        }
      ],
      "stateMutability": "view",
      "type": "function"
    },
    {
      "inputs": [],
      "name": "totalSupply",
      "outputs": [
        {
          "internalType": "uint256",
          "name": "",
          "type": "uint256"
        }
      ],
      "stateMutability": "view",
      "type": "function"
    },
    {
      "inputs": [
        {
          "internalType": "address",
          "name": "to",
          "type": "address"
        },
        {
          "internalType": "uint256",
          "name": "amount",
          "type": "uint256"
        }
      ],
      "name": "transfer",
      "outputs": [
        {
          "internalType": "bool",
          "name": "",
          "type": "bool"
        }
      ],
      "stateMutability": "nonpayable",
      "type": "function"
    },
    {
      "inputs": [
        {
          "internalType": "address",
          "name": "from",
          "type": "address"
        },
        {
          "internalType": "address",
          "name": "to",
          "type": "address"
        },
        {
          "internalType": "uint256",
          "name": "amount",
          "type": "uint256"
        }
      ],
      "name": "transferFrom",
      "outputs": [
        {
          "internalType": "bool",
          "name": "",
          "type": "bool"
        }
      ],
      "stateMutability": "nonpayable",
      "type": "function"
    }
  ],
  "bytecode": "0x60806040523480156200001157600080fd5b5060405162004dec38038062004dec8339810160408190526200003491620003b6565b7f11305809a22c188977ba526669c5811d6e9fd3f82f8c6cf9e23becf3f36315ef60001b81818162000071828260200151620000d560201b60201c565b60208101516040517fbea766d03fa1efd3f81cc8634d08320bc62bb0ed9234ac59bbaafa5893fb6b1391620000aa9133913091620004c4565b60405180910390a18051620000bf906200011c565b50620000cc9050620001e7565b50505062000636565b805160208201208281146200010c5760405163074fe10f60e41b815260048101849052602481018290526044015b60405180910390fd5b6200011782620002a6565b505050565b60408051600080825260208201909252819081906001600160a01b03851690635511cb6790836200015e565b6060815260200190600190039081620001485790505b5060408051600080825260208201908152818301928390526001600160e01b031960e086901b169092526200019892916044820162000533565b6060604051808303816000875af1158015620001b8573d6000803e3d6000fd5b505050506040513d601f19601f82011682018060405250810190620001de9190620005c6565b50505050505050565b600054610100900460ff1615620002515760405162461bcd60e51b815260206004820152602760248201527f496e697469616c697a61626c653a20636f6e747261637420697320696e697469604482015266616c697a696e6760c81b606482015260840162000103565b60005460ff9081161015620002a4576000805460ff191660ff9081179091556040519081527f7f26b83ff96e1f2b6a682f133852f6798a09c465da95921460cefb38474024989060200160405180910390a15b565b620002b181620002d6565b620002d35780604051630c89984b60e31b81526004016200010391906200061a565b50565b6000600882511015620002eb57506000919050565b50600801516001600160401b031667ff0a89c674ee78741490565b634e487b7160e01b600052604160045260246000fd5b604080519081016001600160401b038111828210171562000341576200034162000306565b60405290565b604051601f8201601f191681016001600160401b038111828210171562000372576200037262000306565b604052919050565b6001600160a01b0381168114620002d357600080fd5b60005b83811015620003ad57818101518382015260200162000393565b50506000910152565b60006020808385031215620003ca57600080fd5b82516001600160401b0380821115620003e257600080fd5b9084019060408287031215620003f757600080fd5b620004016200031c565b82516200040e816200037a565b815282840151828111156200042257600080fd5b80840193505086601f8401126200043857600080fd5b8251828111156200044d576200044d62000306565b62000461601f8201601f1916860162000347565b925080835287858286010111156200047857600080fd5b620004898186850187870162000390565b5092830152509392505050565b60008151808452620004b081602086016020860162000390565b601f01601f19169290920160200192915050565b60018060a01b0384168152826020820152606060408201526000620004ed606083018462000496565b95945050505050565b600081518084526020808501945080840160005b8381101562000528578151875295820195908201906001016200050a565b509495945050505050565b6000606082016060835280865180835260808501915060808160051b8601019250602080890160005b838110156200058e57607f198887030185526200057b86835162000496565b955093820193908201906001016200055c565b505085840381870152505050620005a68186620004f6565b90508281036040840152620005bc8185620004f6565b9695505050505050565b600080600060608486031215620005dc57600080fd5b8351620005e9816200037a565b6020850151909350620005fc816200037a565b60408501519092506200060f816200037a565b809150509250925092565b6020815260006200062f602083018462000496565b9392505050565b6147a680620006466000396000f3fe608060405234801561001057600080fd5b50600436106101515760003560e01c806370a08231116100cd578063ac9650d811610081578063dd62ed3e11610066578063dd62ed3e14610324578063f23a6e611461036b578063f83d765a146103a357600080fd5b8063ac9650d8146102cc578063bc197c81146102ec57600080fd5b806395d89b41116100b257806395d89b411461029e578063a457c2d7146102a6578063a9059cbb146102b957600080fd5b806370a082311461024757806390bcad691461027e57600080fd5b806318160ddd11610124578063313ce56711610109578063313ce56714610210578063395093511461021f578063439fab911461023257600080fd5b806318160ddd146101ea57806323b872dd146101fd57600080fd5b806301ffc9a71461015657806306fdde031461017e578063095ea7b314610193578063150b7a02146101a6575b600080fd5b6101696101643660046133ae565b6103b6565b60405190151581526020015b60405180910390f35b61018661044f565b604051610175919061345e565b6101696101a1366004613496565b6104e2565b6101b96101b436600461361a565b6104fa565b6040517fffffffff000000000000000000000000000000000000000000000000000000009091168152602001610175565b610162545b604051908152602001610175565b61016961020b366004613686565b610524565b60405160128152602001610175565b61016961022d366004613496565b61054a565b6102456102403660046136c7565b610597565b005b6101ef610255366004613739565b73ffffffffffffffffffffffffffffffffffffffff166000908152610160602052604090205490565b61029161028c3660046137da565b610950565b6040516101759190613a63565b610186610998565b6101696102b4366004613496565b6109a8565b6101696102c7366004613496565b610a85565b6102df6102da366004613bfd565b610a93565b6040516101759190613cb5565b6101b96102fa366004613cc8565b7fbc197c810000000000000000000000000000000000000000000000000000000095945050505050565b6101ef610332366004613d76565b73ffffffffffffffffffffffffffffffffffffffff91821660009081526101616020908152604080832093909416825291909152205490565b6101b9610379366004613daf565b7ff23a6e610000000000000000000000000000000000000000000000000000000095945050505050565b6102916103b13660046137da565b610b88565b60007fffffffff0000000000000000000000000000000000000000000000000000000082167f4e2312e000000000000000000000000000000000000000000000000000000000148061044957507f01ffc9a7000000000000000000000000000000000000000000000000000000007fffffffff000000000000000000000000000000000000000000000000000000008316145b92915050565b6060610163805461045f90613e18565b80601f016020809104026020016040519081016040528092919081815260200182805461048b90613e18565b80156104d85780601f106104ad576101008083540402835291602001916104d8565b820191906000526020600020905b8154815290600101906020018083116104bb57829003601f168201915b5050505050905090565b6000336104f0818585610b9b565b5060019392505050565b7f150b7a02000000000000000000000000000000000000000000000000000000005b949350505050565b600033610532858285610d4f565b61053d858585610e27565b60019150505b9392505050565b3360008181526101616020908152604080832073ffffffffffffffffffffffffffffffffffffffff871684529091528120549091906104f09082908690610592908790613e9a565b610b9b565b600054610100900460ff16158080156105b75750600054600160ff909116105b806105d15750303b1580156105d1575060005460ff166001145b610662576040517f08c379a000000000000000000000000000000000000000000000000000000000815260206004820152602e60248201527f496e697469616c697a61626c653a20636f6e747261637420697320616c72656160448201527f647920696e697469616c697a656400000000000000000000000000000000000060648201526084015b60405180910390fd5b600080547fffffffffffffffffffffffffffffffffffffffffffffffffffffffffffffff0016600117905580156106c057600080547fffffffffffffffffffffffffffffffffffffffffffffffffffffffffffff00ff166101001790555b60006106ce83850185614022565b90507fc82272b36b3b8d29347f1a457f530c7a00d77c3a567896ecf7f0ba3f9477e7bf3382604051610701929190614179565b60405180910390a16107116110a5565b61072381600001518260200151611146565b606081015161073d9061073860036002613e9a565b6111eb565b60008160400151602001515111801561077d57506000816040015160200151600061ffff168151811061077257610772614291565b602002602001015151115b156108e75761019280547fffffffffffffffffffffffffffffffffffffffffffffffffffffffffffffff001660011790556040808201518051602082015191909201516000928392839273ffffffffffffffffffffffffffffffffffffffff90921691635511cb6791906108038560408051600181526020810192909252818101905290565b6040518463ffffffff1660e01b8152600401610821939291906142c0565b6060604051808303816000875af1158015610840573d6000803e3d6000fd5b505050506040513d601f19601f820116820180604052508101906108649190614303565b6040805160608101825273ffffffffffffffffffffffffffffffffffffffff9485168082529385166020820181905292909416930183905261019380547fffffffffffffffffffffffff00000000000000000000000000000000000000009081169093179055610194805483169091179055610195805490911690911790555050505b50801561094b57600080547fffffffffffffffffffffffffffffffffffffffffffffffffffffffffffff00ff169055604051600181527f7f26b83ff96e1f2b6a682f133852f6798a09c465da95921460cefb38474024989060200160405180910390a15b505050565b61095861336c565b600061097f6109798560408051600181526020810192909252818101905290565b84611510565b9050600061098d8683611840565b509695505050505050565b6060610164805461045f90613e18565b3360008181526101616020908152604080832073ffffffffffffffffffffffffffffffffffffffff8716845290915281205490919083811015610a6d576040517f08c379a000000000000000000000000000000000000000000000000000000000815260206004820152602560248201527f45524332303a2064656372656173656420616c6c6f77616e63652062656c6f7760448201527f207a65726f0000000000000000000000000000000000000000000000000000006064820152608401610659565b610a7a8286868403610b9b565b506001949350505050565b6000336104f0818585610e27565b60608167ffffffffffffffff811115610aae57610aae6134c2565b604051908082528060200260200182016040528015610ae157816020015b6060815260200190600190039081610acc5790505b50905060005b82811015610b8157610b5130858584818110610b0557610b05614291565b9050602002810190610b179190614350565b8080601f01602080910402602001604051908101604052809392919081815260200183838082843760009201919091525061196e92505050565b828281518110610b6357610b63614291565b60200260200101819052508080610b79906143b5565b915050610ae7565b5092915050565b610b9061336c565b61051c848484611aad565b73ffffffffffffffffffffffffffffffffffffffff8316610c3d576040517f08c379a0000000000000000000000000000000000000000000000000000000008152602060048201526024808201527f45524332303a20617070726f76652066726f6d20746865207a65726f2061646460448201527f72657373000000000000000000000000000000000000000000000000000000006064820152608401610659565b73ffffffffffffffffffffffffffffffffffffffff8216610ce0576040517f08c379a000000000000000000000000000000000000000000000000000000000815260206004820152602260248201527f45524332303a20617070726f766520746f20746865207a65726f20616464726560448201527f73730000000000000000000000000000000000000000000000000000000000006064820152608401610659565b73ffffffffffffffffffffffffffffffffffffffff8381166000818152610161602090815260408083209487168084529482529182902085905590518481527f8c5be1e5ebec7d5bd14f71427d1e84f3dd0314c0f7b2291e5b200ac8c7c3b925910160405180910390a3505050565b73ffffffffffffffffffffffffffffffffffffffff838116600090815261016160209081526040808320938616835292905220547fffffffffffffffffffffffffffffffffffffffffffffffffffffffffffffffff8114610e215781811015610e14576040517f08c379a000000000000000000000000000000000000000000000000000000000815260206004820152601d60248201527f45524332303a20696e73756666696369656e7420616c6c6f77616e63650000006044820152606401610659565b610e218484848403610b9b565b50505050565b73ffffffffffffffffffffffffffffffffffffffff8316610eca576040517f08c379a000000000000000000000000000000000000000000000000000000000815260206004820152602560248201527f45524332303a207472616e736665722066726f6d20746865207a65726f20616460448201527f64726573730000000000000000000000000000000000000000000000000000006064820152608401610659565b73ffffffffffffffffffffffffffffffffffffffff8216610f6d576040517f08c379a000000000000000000000000000000000000000000000000000000000815260206004820152602360248201527f45524332303a207472616e7366657220746f20746865207a65726f206164647260448201527f65737300000000000000000000000000000000000000000000000000000000006064820152608401610659565b73ffffffffffffffffffffffffffffffffffffffff83166000908152610160602052604090205481811015611024576040517f08c379a000000000000000000000000000000000000000000000000000000000815260206004820152602660248201527f45524332303a207472616e7366657220616d6f756e742065786365656473206260448201527f616c616e636500000000000000000000000000000000000000000000000000006064820152608401610659565b73ffffffffffffffffffffffffffffffffffffffff8085166000818152610160602052604080822086860390559286168082529083902080548601905591517fddf252ad1be2c89b69c2b068fc378daa952ba7f163c4a11628f55a4df523b3ef906110929086815260200190565b60405180910390a3610e21848484611c11565b600054610100900460ff1661113c576040517f08c379a000000000000000000000000000000000000000000000000000000000815260206004820152602b60248201527f496e697469616c697a61626c653a20636f6e7472616374206973206e6f74206960448201527f6e697469616c697a696e670000000000000000000000000000000000000000006064820152608401610659565b611144611e71565b565b600054610100900460ff166111dd576040517f08c379a000000000000000000000000000000000000000000000000000000000815260206004820152602b60248201527f496e697469616c697a61626c653a20636f6e7472616374206973206e6f74206960448201527f6e697469616c697a696e670000000000000000000000000000000000000000006064820152608401610659565b6111e78282611f0e565b5050565b600054610100900460ff16611282576040517f08c379a000000000000000000000000000000000000000000000000000000000815260206004820152602b60248201527f496e697469616c697a61626c653a20636f6e7472616374206973206e6f74206960448201527f6e697469616c697a696e670000000000000000000000000000000000000000006064820152608401610659565b61128a611fc0565b611292611fc0565b61129a611fc0565b60038110156112d8576040517fb0682cf300000000000000000000000000000000000000000000000000000000815260048101829052602401610659565b6113126040518060600160405280600073ffffffffffffffffffffffffffffffffffffffff16815260200160608152602001606081525090565b60408051606081018252600080825260208201819052918101829052905b84518110156115095784818151811061134b5761134b614291565b602002602001015192506000806000856000015173ffffffffffffffffffffffffffffffffffffffff16635511cb67876020015188604001516113a08b60408051600181526020810192909252818101905290565b6040518463ffffffff1660e01b81526004016113be939291906142c0565b6060604051808303816000875af11580156113dd573d6000803e3d6000fd5b505050506040513d601f19601f820116820180604052508101906114019190614303565b92509250925060405180606001604052808473ffffffffffffffffffffffffffffffffffffffff1681526020018373ffffffffffffffffffffffffffffffffffffffff1681526020018273ffffffffffffffffffffffffffffffffffffffff168152509450600161012d6000611478886060902090565b81526020808201929092526040908101600020929092558151338152875173ffffffffffffffffffffffffffffffffffffffff9081168284015291880151821681840152918701511660608201527fed510090abe2a95b97a621e3d2c947ea3c26eced1c87470474d17e353dcc53389060800160405180910390a15050508080611501906143b5565b915050611330565b5050505050565b60606000825167ffffffffffffffff81111561152e5761152e6134c2565b604051908082528060200260200182016040528015611557578160200160208202803683370190505b50905060008084511161156b576000611571565b83516001015b855160010101905060008167ffffffffffffffff811115611594576115946134c2565b6040519080825280602002602001820160405280156115c757816020015b60608152602001906001900390816115b25790505b50905060006115ec604080516002815233602082015230818301526060810190915290565b8282815181106115fe576115fe614291565b602002602001018190525060005b875181101561165c57818060010192505087818151811061162f5761162f614291565b602002602001015183838151811061164957611649614291565b602090810291909101015260010161160c565b508551156118365780806001019150508382828151811061167f5761167f614291565b602002602001018190525060005b86518110156118345761175e8782815181106116ab576116ab614291565b60200260200101516000015161173b6116e88a85815181106116cf576116cf614291565b6020026020010151602001518051602090810291012090565b6040517f19457468657265756d205369676e6564204d6573736167653a0a3332000000006020820152603c8101829052600090605c01604051602081830303815290604052805190602001209050919050565b89848151811061174d5761174d614291565b602002602001015160400151612057565b611797576040517f52bf984800000000000000000000000000000000000000000000000000000000815260048101829052602401610659565b8681815181106117a9576117a9614291565b60200260200101516000015173ffffffffffffffffffffffffffffffffffffffff168582815181106117dd576117dd614291565b602002602001018181525050818060010192505086818151811061180357611803614291565b60200260200101516020015183838151811061182157611821614291565b602090810291909101015260010161168d565b505b5095945050505050565b61184861336c565b606080606060008060008061185d8a8a612224565b60408051808201909152601881527f5241494e5f464c4f575f45524332305f53454e54494e454c0000000000000000602090910152919450925090506118c683837ff339171dab445c29f9897dda2f42413426ee907dc7f8b52bd387bc7cf9384c6b6002612365565b60408051808201909152601881527f5241494e5f464c4f575f45524332305f53454e54494e454c00000000000000006020909101529650869450915061192f83837ff339171dab445c29f9897dda2f42413426ee907dc7f8b52bd387bc7cf9384c6b6002612365565b8095508193505050839450604051806060016040528087815260200186815260200161195b8585612411565b90529750955050505050505b9250929050565b606073ffffffffffffffffffffffffffffffffffffffff83163b611a14576040517f08c379a000000000000000000000000000000000000000000000000000000000815260206004820152602660248201527f416464726573733a2064656c65676174652063616c6c20746f206e6f6e2d636f60448201527f6e747261637400000000000000000000000000000000000000000000000000006064820152608401610659565b6000808473ffffffffffffffffffffffffffffffffffffffff1684604051611a3c91906143ed565b600060405180830381855af49150503d8060008114611a77576040519150601f19603f3d011682016040523d82523d6000602084013e611a7c565b606091505b5091509150611aa4828260405180606001604052806027815260200161477f60279139612598565b95945050505050565b611ab561336c565b611abd6125b1565b6000611ade6109798560408051600181526020810192909252818101905290565b90507f17a5c0f3785132a57703932032f6863e7920434150aa1dc940e567b440fdce1f3382604051611b11929190614451565b60405180910390a1600080611b268784611840565b9150915060005b825151811015611b8b57611b8383600001518281518110611b5057611b50614291565b60200260200101516000015184600001518381518110611b7257611b72614291565b602002602001015160200151612624565b600101611b2d565b5060005b826020015151811015611bf057611be883602001518281518110611bb557611bb5614291565b60200260200101516000015184602001518381518110611bd757611bd7614291565b602002602001015160200151612723565b600101611b8f565b50611c0482604001518860200151836128f3565b5091505061054360018055565b6101925460ff168015611c58575073ffffffffffffffffffffffffffffffffffffffff83161580611c56575073ffffffffffffffffffffffffffffffffffffffff8216155b155b1561094b57604080516060810182526101935473ffffffffffffffffffffffffffffffffffffffff9081168083526101945482166020840181905261019554909216938301849052919260009291636715f825918490611cb79061299d565b604080516003815273ffffffffffffffffffffffffffffffffffffffff8c811660208301528b1681830152606081018a905260016080820190815260a08201829052600060c0830181815260e0909301909352611d6992909190611d63565b611d506040518060600160405280600073ffffffffffffffffffffffffffffffffffffffff16815260200160608152602001606081525090565b815260200190600190039081611d165790505b50611510565b6040518563ffffffff1660e01b8152600401611d889493929190614480565b600060405180830381865afa158015611da5573d6000803e3d6000fd5b505050506040513d6000823e601f3d9081017fffffffffffffffffffffffffffffffffffffffffffffffffffffffffffffffe0168201604052611deb9190810190614516565b91505060008151111561150957816020015173ffffffffffffffffffffffffffffffffffffffff1663946aadc66000836040518363ffffffff1660e01b8152600401611e3892919061457a565b600060405180830381600087803b158015611e5257600080fd5b505af1158015611e66573d6000803e3d6000fd5b505050505050505050565b600054610100900460ff16611f08576040517f08c379a000000000000000000000000000000000000000000000000000000000815260206004820152602b60248201527f496e697469616c697a61626c653a20636f6e7472616374206973206e6f74206960448201527f6e697469616c697a696e670000000000000000000000000000000000000000006064820152608401610659565b60018055565b600054610100900460ff16611fa5576040517f08c379a000000000000000000000000000000000000000000000000000000000815260206004820152602b60248201527f496e697469616c697a61626c653a20636f6e7472616374206973206e6f74206960448201527f6e697469616c697a696e670000000000000000000000000000000000000000006064820152608401610659565b610163611fb283826145e1565b5061016461094b82826145e1565b600054610100900460ff16611144576040517f08c379a000000000000000000000000000000000000000000000000000000000815260206004820152602b60248201527f496e697469616c697a61626c653a20636f6e7472616374206973206e6f74206960448201527f6e697469616c697a696e670000000000000000000000000000000000000000006064820152608401610659565b600080600061206685856129c3565b9092509050600081600481111561207f5761207f6146fb565b1480156120b757508573ffffffffffffffffffffffffffffffffffffffff168273ffffffffffffffffffffffffffffffffffffffff16145b156120c757600192505050610543565b6000808773ffffffffffffffffffffffffffffffffffffffff16631626ba7e60e01b88886040516024016120fc92919061472a565b604080517fffffffffffffffffffffffffffffffffffffffffffffffffffffffffffffffe08184030181529181526020820180517bffffffffffffffffffffffffffffffffffffffffffffffffffffffff167fffffffff0000000000000000000000000000000000000000000000000000000090941693909317909252905161218591906143ed565b600060405180830381855afa9150503d80600081146121c0576040519150601f19603f3d011682016040523d82523d6000602084013e6121c5565b606091505b50915091508180156121d8575080516020145b8015612218575080517f1626ba7e00000000000000000000000000000000000000000000000000000000906122169083016020908101908401614743565b145b98975050505050505050565b6000806060846000612237826060902090565b600081815261012d602052604081205491925003612284576040517f7a80ba4d00000000000000000000000000000000000000000000000000000000815260048101829052602401610659565b600080886000015173ffffffffffffffffffffffffffffffffffffffff16636715f8258a6020015160006122bb8d60400151612a05565b8c6040518563ffffffff1660e01b81526004016122db9493929190614480565b600060405180830381865afa1580156122f8573d6000803e3d6000fd5b505050506040513d6000823e601f3d9081017fffffffffffffffffffffffffffffffffffffffffffffffffffffffffffffffe016820160405261233e9190810190614516565b9150915061234c8260200190565b8251909a60209182029093010198509650945050505050565b60008060208302855b87811115612392576020810386815103612389579350612392565b5081900361236e565b50826000036123d0576040517fd457746f00000000000000000000000000000000000000000000000000000000815260048101869052602401610659565b604051915060208201602084015b878110156123f65780825260209091019082016123de565b50806040526001602084830304038352505094509492505050565b61243560405180606001604052806060815260200160608152602001606081525090565b60408051808201909152601281527f5241494e5f464c4f575f53454e54494e454c000000000000000000000000000060209091015260608080600061249d87877ffea74d0c9bf4a3c28f0dd0674db22a3d7f8bf259c56af19f4ac1e735b156974f6004612365565b60408051808201909152601281527f5241494e5f464c4f575f53454e54494e454c0000000000000000000000000000602090910152909650935083905061250787877ffea74d0c9bf4a3c28f0dd0674db22a3d7f8bf259c56af19f4ac1e735b156974f6004612365565b60408051808201909152601281527f5241494e5f464c4f575f53454e54494e454c0000000000000000000000000000602090910152909650925082905061257187877ffea74d0c9bf4a3c28f0dd0674db22a3d7f8bf259c56af19f4ac1e735b156974f6005612365565b60408051606081018252968752602087019590955293850193909352509195945050505050565b606083156125a7575081610543565b6105438383612a2f565b60026001540361261d576040517f08c379a000000000000000000000000000000000000000000000000000000000815260206004820152601f60248201527f5265656e7472616e637947756172643a207265656e7472616e742063616c6c006044820152606401610659565b6002600155565b73ffffffffffffffffffffffffffffffffffffffff82166126a1576040517f08c379a000000000000000000000000000000000000000000000000000000000815260206004820152601f60248201527f45524332303a206d696e7420746f20746865207a65726f2061646472657373006044820152606401610659565b8061016260008282546126b49190613e9a565b909155505073ffffffffffffffffffffffffffffffffffffffff8216600081815261016060209081526040808320805486019055518481527fddf252ad1be2c89b69c2b068fc378daa952ba7f163c4a11628f55a4df523b3ef910160405180910390a36111e760008383611c11565b73ffffffffffffffffffffffffffffffffffffffff82166127c6576040517f08c379a000000000000000000000000000000000000000000000000000000000815260206004820152602160248201527f45524332303a206275726e2066726f6d20746865207a65726f2061646472657360448201527f73000000000000000000000000000000000000000000000000000000000000006064820152608401610659565b73ffffffffffffffffffffffffffffffffffffffff8216600090815261016060205260409020548181101561287d576040517f08c379a000000000000000000000000000000000000000000000000000000000815260206004820152602260248201527f45524332303a206275726e20616d6f756e7420657863656564732062616c616e60448201527f63650000000000000000000000000000000000000000000000000000000000006064820152608401610659565b73ffffffffffffffffffffffffffffffffffffffff8316600081815261016060209081526040808320868603905561016280548790039055518581529192917fddf252ad1be2c89b69c2b068fc378daa952ba7f163c4a11628f55a4df523b3ef910160405180910390a361094b83600084611c11565b805115612982576040517f946aadc600000000000000000000000000000000000000000000000000000000815273ffffffffffffffffffffffffffffffffffffffff83169063946aadc69061294f90600090859060040161457a565b600060405180830381600087803b15801561296957600080fd5b505af115801561297d573d6000803e3d6000fd5b505050505b61298b83612a73565b61299483612bcc565b61094b83612d5d565b6000602082901b77ffffffffffffffffffffffffffffffffffffffff0000000016610449565b60008082516041036129f95760208301516040840151606085015160001a6129ed87828585612f0d565b94509450505050611967565b50600090506002611967565b6000602082901b77ffffffffffffffffffffffffffffffffffffffff000000001661ffff17610449565b815115612a3f5781518083602001fd5b806040517f08c379a0000000000000000000000000000000000000000000000000000000008152600401610659919061345e565b6040805160808101825260008082526020820181905291810182905260608101829052905b82515181101561094b578251805182908110612ab657612ab6614291565b602002602001015191503373ffffffffffffffffffffffffffffffffffffffff16826020015173ffffffffffffffffffffffffffffffffffffffff1603612b2d57604082015160608301518351612b289273ffffffffffffffffffffffffffffffffffffffff90911691339190612ffc565b612bc4565b3073ffffffffffffffffffffffffffffffffffffffff16826020015173ffffffffffffffffffffffffffffffffffffffff1603612b9257604082015160608301518351612b289273ffffffffffffffffffffffffffffffffffffffff909116916130d8565b6040517fa521c60f00000000000000000000000000000000000000000000000000000000815260040160405180910390fd5b600101612a98565b6040805160808101825260008082526020820181905291810182905260608101829052905b82602001515181101561094b5782602001518181518110612c1457612c14614291565b602002602001015191503373ffffffffffffffffffffffffffffffffffffffff16826020015173ffffffffffffffffffffffffffffffffffffffff1614158015612c785750602082015173ffffffffffffffffffffffffffffffffffffffff163014155b15612caf576040517f3a5befc500000000000000000000000000000000000000000000000000000000815260040160405180910390fd5b81516020830151604080850151606086015191517f42842e0e00000000000000000000000000000000000000000000000000000000815273ffffffffffffffffffffffffffffffffffffffff9384166004820152908316602482015260448101919091529116906342842e0e90606401600060405180830381600087803b158015612d3957600080fd5b505af1158015612d4d573d6000803e3d6000fd5b505060019092019150612bf19050565b6040805160a0810182526000808252602082018190529181018290526060810182905260808101829052905b82604001515181101561094b5782604001518181518110612dac57612dac614291565b602002602001015191503373ffffffffffffffffffffffffffffffffffffffff16826020015173ffffffffffffffffffffffffffffffffffffffff1614158015612e105750602082015173ffffffffffffffffffffffffffffffffffffffff163014155b15612e47576040517fc6a91ecc00000000000000000000000000000000000000000000000000000000815260040160405180910390fd5b815160208301516040808501516060860151608087015192517ff242432a00000000000000000000000000000000000000000000000000000000815273ffffffffffffffffffffffffffffffffffffffff948516600482015291841660248301526044820152606481019190915260a06084820152600060a482015291169063f242432a9060c401600060405180830381600087803b158015612ee957600080fd5b505af1158015612efd573d6000803e3d6000fd5b505060019092019150612d899050565b6000807f7fffffffffffffffffffffffffffffff5d576e7357a4501ddfe92f46681b20a0831115612f445750600090506003612ff3565b6040805160008082526020820180845289905260ff881692820192909252606081018690526080810185905260019060a0016020604051602081039080840390855afa158015612f98573d6000803e3d6000fd5b50506040517fffffffffffffffffffffffffffffffffffffffffffffffffffffffffffffffe0015191505073ffffffffffffffffffffffffffffffffffffffff8116612fec57600060019250925050612ff3565b9150600090505b94509492505050565b60405173ffffffffffffffffffffffffffffffffffffffff80851660248301528316604482015260648101829052610e219085907f23b872dd00000000000000000000000000000000000000000000000000000000906084015b604080517fffffffffffffffffffffffffffffffffffffffffffffffffffffffffffffffe08184030181529190526020810180517bffffffffffffffffffffffffffffffffffffffffffffffffffffffff167fffffffff000000000000000000000000000000000000000000000000000000009093169290921790915261312e565b60405173ffffffffffffffffffffffffffffffffffffffff831660248201526044810182905261094b9084907fa9059cbb0000000000000000000000000000000000000000000000000000000090606401613056565b6000613190826040518060400160405280602081526020017f5361666545524332303a206c6f772d6c6576656c2063616c6c206661696c65648152508573ffffffffffffffffffffffffffffffffffffffff1661323a9092919063ffffffff16565b80519091501561094b57808060200190518101906131ae919061475c565b61094b576040517f08c379a000000000000000000000000000000000000000000000000000000000815260206004820152602a60248201527f5361666545524332303a204552433230206f7065726174696f6e20646964206e60448201527f6f742073756363656564000000000000000000000000000000000000000000006064820152608401610659565b606061051c8484600085856000808673ffffffffffffffffffffffffffffffffffffffff16858760405161326e91906143ed565b60006040518083038185875af1925050503d80600081146132ab576040519150601f19603f3d011682016040523d82523d6000602084013e6132b0565b606091505b50915091506132c1878383876132cc565b979650505050505050565b6060831561336257825160000361335b5773ffffffffffffffffffffffffffffffffffffffff85163b61335b576040517f08c379a000000000000000000000000000000000000000000000000000000000815260206004820152601d60248201527f416464726573733a2063616c6c20746f206e6f6e2d636f6e74726163740000006044820152606401610659565b508161051c565b61051c8383612a2f565b604051806060016040528060608152602001606081526020016133a960405180606001604052806060815260200160608152602001606081525090565b905290565b6000602082840312156133c057600080fd5b81357fffffffff000000000000000000000000000000000000000000000000000000008116811461054357600080fd5b60005b8381101561340b5781810151838201526020016133f3565b50506000910152565b6000815180845261342c8160208601602086016133f0565b601f017fffffffffffffffffffffffffffffffffffffffffffffffffffffffffffffffe0169290920160200192915050565b6020815260006105436020830184613414565b73ffffffffffffffffffffffffffffffffffffffff8116811461349357600080fd5b50565b600080604083850312156134a957600080fd5b82356134b481613471565b946020939093013593505050565b7f4e487b7100000000000000000000000000000000000000000000000000000000600052604160045260246000fd5b6040516060810167ffffffffffffffff81118282101715613514576135146134c2565b60405290565b6040516080810167ffffffffffffffff81118282101715613514576135146134c2565b604051601f82017fffffffffffffffffffffffffffffffffffffffffffffffffffffffffffffffe016810167ffffffffffffffff81118282101715613584576135846134c2565b604052919050565b600082601f83011261359d57600080fd5b813567ffffffffffffffff8111156135b7576135b76134c2565b6135e860207fffffffffffffffffffffffffffffffffffffffffffffffffffffffffffffffe0601f8401160161353d565b8181528460208386010111156135fd57600080fd5b816020850160208301376000918101602001919091529392505050565b6000806000806080858703121561363057600080fd5b843561363b81613471565b9350602085013561364b81613471565b925060408501359150606085013567ffffffffffffffff81111561366e57600080fd5b61367a8782880161358c565b91505092959194509250565b60008060006060848603121561369b57600080fd5b83356136a681613471565b925060208401356136b681613471565b929592945050506040919091013590565b600080602083850312156136da57600080fd5b823567ffffffffffffffff808211156136f257600080fd5b818501915085601f83011261370657600080fd5b81358181111561371557600080fd5b86602082850101111561372757600080fd5b60209290920196919550909350505050565b60006020828403121561374b57600080fd5b813561054381613471565b600067ffffffffffffffff821115613770576137706134c2565b5060051b60200190565b600082601f83011261378b57600080fd5b813560206137a061379b83613756565b61353d565b82815260059290921b840181019181810190868411156137bf57600080fd5b8286015b8481101561098d57803583529183019183016137c3565b600080600083850360a08112156137f057600080fd5b60608112156137fe57600080fd5b506138076134f1565b843561381281613471565b815260208581013561382381613471565b82820152604086013561383581613471565b604083015290935060608501359067ffffffffffffffff8083111561385957600080fd5b6138658884890161377a565b9450608087013592508083111561387b57600080fd5b828701925087601f84011261388f57600080fd5b823561389d61379b82613756565b81815260059190911b8401830190838101908a8311156138bc57600080fd5b8486015b8381101561397f578035858111156138d85760008081fd5b87016060818e037fffffffffffffffffffffffffffffffffffffffffffffffffffffffffffffffe001121561390d5760008081fd5b6139156134f1565b8782013561392281613471565b81526040820135878111156139375760008081fd5b6139458f8a8386010161377a565b898301525060608201358781111561395d5760008081fd5b61396b8f8a8386010161358c565b6040830152508452509185019185016138c0565b508096505050505050509250925092565b600081518084526020808501945080840160005b838110156139e1578151805173ffffffffffffffffffffffffffffffffffffffff16885283015183880152604090960195908201906001016139a4565b509495945050505050565b600081518084526020808501945080840160005b838110156139e1578151805173ffffffffffffffffffffffffffffffffffffffff9081168952848201518116858a015260408083015190911690890152606080820151908901526080908101519088015260a09096019590820190600101613a00565b6000602080835260808451606083860152613a8082860182613990565b9050828601517fffffffffffffffffffffffffffffffffffffffffffffffffffffffffffffffe080878403016040880152613abb8383613990565b92506040880151915080878403016060880152506060820181516060845281815180845286860191508783019350600092505b80831015613b5257613b3e82855173ffffffffffffffffffffffffffffffffffffffff80825116835280602083015116602084015280604083015116604084015250606081015160608301525050565b928701926001929092019190860190613aee565b5083870151858203868901528051808352908801935090870191506000905b80821015613bd557613bc183855173ffffffffffffffffffffffffffffffffffffffff80825116835280602083015116602084015280604083015116604084015250606081015160608301525050565b928701929186019160019190910190613b71565b5050604083015195508381036040850152613bf081876139ec565b9998505050505050505050565b60008060208385031215613c1057600080fd5b823567ffffffffffffffff80821115613c2857600080fd5b818501915085601f830112613c3c57600080fd5b813581811115613c4b57600080fd5b8660208260051b850101111561372757600080fd5b600081518084526020808501808196508360051b8101915082860160005b85811015613ca8578284038952613c96848351613414565b98850198935090840190600101613c7e565b5091979650505050505050565b6020815260006105436020830184613c60565b600080600080600060a08688031215613ce057600080fd5b8535613ceb81613471565b94506020860135613cfb81613471565b9350604086013567ffffffffffffffff80821115613d1857600080fd5b613d2489838a0161377a565b94506060880135915080821115613d3a57600080fd5b613d4689838a0161377a565b93506080880135915080821115613d5c57600080fd5b50613d698882890161358c565b9150509295509295909350565b60008060408385031215613d8957600080fd5b8235613d9481613471565b91506020830135613da481613471565b809150509250929050565b600080600080600060a08688031215613dc757600080fd5b8535613dd281613471565b94506020860135613de281613471565b93506040860135925060608601359150608086013567ffffffffffffffff811115613e0c57600080fd5b613d698882890161358c565b600181811c90821680613e2c57607f821691505b602082108103613e65577f4e487b7100000000000000000000000000000000000000000000000000000000600052602260045260246000fd5b50919050565b7f4e487b7100000000000000000000000000000000000000000000000000000000600052601160045260246000fd5b8082018082111561044957610449613e6b565b600060608284031215613ebf57600080fd5b613ec76134f1565b90508135613ed481613471565b815260208281013567ffffffffffffffff80821115613ef257600080fd5b818501915085601f830112613f0657600080fd5b8135613f1461379b82613756565b81815260059190911b83018401908481019088831115613f3357600080fd5b8585015b83811015613f6b57803585811115613f4f5760008081fd5b613f5d8b89838a010161358c565b845250918601918601613f37565b5080868801525050506040850135925080831115613f8857600080fd5b5050613f968482850161377a565b60408301525092915050565b600082601f830112613fb357600080fd5b81356020613fc361379b83613756565b82815260059290921b84018101918181019086841115613fe257600080fd5b8286015b8481101561098d57803567ffffffffffffffff8111156140065760008081fd5b6140148986838b0101613ead565b845250918301918301613fe6565b60006020828403121561403457600080fd5b813567ffffffffffffffff8082111561404c57600080fd5b908301906080828603121561406057600080fd5b61406861351a565b82358281111561407757600080fd5b6140838782860161358c565b82525060208301358281111561409857600080fd5b6140a48782860161358c565b6020830152506040830135828111156140bc57600080fd5b6140c887828601613ead565b6040830152506060830135828111156140e057600080fd5b6140ec87828601613fa2565b60608301525095945050505050565b600081518084526020808501945080840160005b838110156139e15781518752958201959082019060010161410f565b73ffffffffffffffffffffffffffffffffffffffff815116825260006020820151606060208501526141606060850182613c60565b905060408301518482036040860152611aa482826140fb565b73ffffffffffffffffffffffffffffffffffffffff83168152600060206040818401528351608060408501526141b260c0850182613414565b9050818501517fffffffffffffffffffffffffffffffffffffffffffffffffffffffffffffffc0808684030160608701526141ed8383613414565b9250604087015191508086840301608087015261420a838361412b565b606088015187820390920160a08801528151808252909350908401915083830190600581901b8401850160005b82811015614283577fffffffffffffffffffffffffffffffffffffffffffffffffffffffffffffffe086830301845261427182865161412b565b94870194938701939150600101614237565b509998505050505050505050565b7f4e487b7100000000000000000000000000000000000000000000000000000000600052603260045260246000fd5b6060815260006142d36060830186613c60565b82810360208401526142e581866140fb565b905082810360408401526142f981856140fb565b9695505050505050565b60008060006060848603121561431857600080fd5b835161432381613471565b602085015190935061433481613471565b604085015190925061434581613471565b809150509250925092565b60008083357fffffffffffffffffffffffffffffffffffffffffffffffffffffffffffffffe184360301811261438557600080fd5b83018035915067ffffffffffffffff8211156143a057600080fd5b60200191503681900382131561196757600080fd5b60007fffffffffffffffffffffffffffffffffffffffffffffffffffffffffffffffff82036143e6576143e6613e6b565b5060010190565b600082516143ff8184602087016133f0565b9190910192915050565b600081518084526020808501808196508360051b8101915082860160005b85811015613ca857828403895261443f8483516140fb565b98850198935090840190600101614427565b73ffffffffffffffffffffffffffffffffffffffff8316815260406020820152600061051c6040830184614409565b73ffffffffffffffffffffffffffffffffffffffff851681528360208201528260408201526080606082015260006142f96080830184614409565b600082601f8301126144cc57600080fd5b815160206144dc61379b83613756565b82815260059290921b840181019181810190868411156144fb57600080fd5b8286015b8481101561098d57805183529183019183016144ff565b6000806040838503121561452957600080fd5b825167ffffffffffffffff8082111561454157600080fd5b61454d868387016144bb565b9350602085015191508082111561456357600080fd5b50614570858286016144bb565b9150509250929050565b82815260406020820152600061051c60408301846140fb565b601f82111561094b57600081815260208120601f850160051c810160208610156145ba5750805b601f850160051c820191505b818110156145d9578281556001016145c6565b505050505050565b815167ffffffffffffffff8111156145fb576145fb6134c2565b61460f816146098454613e18565b84614593565b602080601f831160018114614662576000841561462c5750858301515b7fffffffffffffffffffffffffffffffffffffffffffffffffffffffffffffffff600386901b1c1916600185901b1785556145d9565b6000858152602081207fffffffffffffffffffffffffffffffffffffffffffffffffffffffffffffffe08616915b828110156146af57888601518255948401946001909101908401614690565b50858210156146eb57878501517fffffffffffffffffffffffffffffffffffffffffffffffffffffffffffffffff600388901b60f8161c191681555b5050505050600190811b01905550565b7f4e487b7100000000000000000000000000000000000000000000000000000000600052602160045260246000fd5b82815260406020820152600061051c6040830184613414565b60006020828403121561475557600080fd5b5051919050565b60006020828403121561476e57600080fd5b8151801515811461054357600080fdfe416464726573733a206c6f772d6c6576656c2064656c65676174652063616c6c206661696c6564",
  "linkReferences": {},
  "deployedLinkReferences": {}
}