{
  "_format": "hh-sol-artifact-1",
  "contractName": "RainterpreterStore",
  "sourceName": "contracts/interpreter/shared/RainterpreterStore.sol",
  "abi": [
    {
      "inputs": [
        {
          "internalType": "FullyQualifiedNamespace",
          "name": "namespace_",
          "type": "uint256"
        },
        {
          "internalType": "uint256",
          "name": "key_",
          "type": "uint256"
        }
      ],
      "name": "get",
      "outputs": [
        {
          "internalType": "uint256",
          "name": "",
          "type": "uint256"
        }
      ],
      "stateMutability": "view",
      "type": "function"
    },
    {
      "inputs": [
        {
          "internalType": "StateNamespace",
          "name": "namespace_",
          "type": "uint256"
        },
        {
          "internalType": "uint256[]",
          "name": "kvs_",
          "type": "uint256[]"
        }
      ],
      "name": "set",
      "outputs": [],
      "stateMutability": "nonpayable",
      "type": "function"
    },
    {
      "inputs": [
        {
          "internalType": "bytes4",
          "name": "interfaceId_",
          "type": "bytes4"
        }
      ],
      "name": "supportsInterface",
      "outputs": [
        {
          "internalType": "bool",
          "name": "",
          "type": "bool"
        }
      ],
      "stateMutability": "view",
      "type": "function"
    }
  ],
  "bytecode": "0x608060405234801561001057600080fd5b506102f0806100206000396000f3fe608060405234801561001057600080fd5b50600436106100415760003560e01c806301ffc9a714610046578063669e48aa1461006e578063946aadc6146100a5575b600080fd5b6100596100543660046101d7565b6100ba565b60405190151581526020015b60405180910390f35b61009761007c366004610220565b60009182526020828152604080842092845291905290205490565b604051908152602001610065565b6100b86100b3366004610242565b610153565b005b60007fffffffff0000000000000000000000000000000000000000000000000000000082167ff2f4e56c00000000000000000000000000000000000000000000000000000000148061014d57507fffffffff0000000000000000000000000000000000000000000000000000000082167f01ffc9a700000000000000000000000000000000000000000000000000000000145b92915050565b336000908152602084905260408120905b828110156101d057838382600101818110610181576101816102c1565b9050602002013560008084815260200190815260200160002060008686858181106101ae576101ae6102c1565b6020908102929092013583525081019190915260400160002055600201610164565b5050505050565b6000602082840312156101e957600080fd5b81357fffffffff000000000000000000000000000000000000000000000000000000008116811461021957600080fd5b9392505050565b6000806040838503121561023357600080fd5b50508035926020909101359150565b60008060006040848603121561025757600080fd5b83359250602084013567ffffffffffffffff8082111561027657600080fd5b818601915086601f83011261028a57600080fd5b81358181111561029957600080fd5b8760208260051b85010111156102ae57600080fd5b6020830194508093505050509250925092565b7f4e487b7100000000000000000000000000000000000000000000000000000000600052603260045260246000fd",
  "linkReferences": {},
  "deployedLinkReferences": {}
}