{
  "_format": "hh-sol-artifact-1",
  "contractName": "Flow",
  "sourceName": "contracts/flow/basic/Flow.sol",
  "abi": [
    {
      "inputs": [
        {
          "components": [
            {
              "internalType": "address",
              "name": "deployer",
              "type": "address"
            },
            {
              "internalType": "bytes",
              "name": "meta",
              "type": "bytes"
            }
          ],
          "internalType": "struct DeployerDiscoverableMetaV1ConstructionConfig",
          "name": "config_",
          "type": "tuple"
        }
      ],
      "stateMutability": "nonpayable",
      "type": "constructor"
    },
    {
      "inputs": [
        {
          "internalType": "uint256",
          "name": "flowMinOutputs_",
          "type": "uint256"
        }
      ],
      "name": "BadMinStackLength",
      "type": "error"
    },
    {
      "inputs": [
        {
          "internalType": "uint256",
          "name": "i",
          "type": "uint256"
        }
      ],
      "name": "InvalidSignature",
      "type": "error"
    },
    {
      "inputs": [
        {
          "internalType": "Sentinel",
          "name": "sentinel",
          "type": "uint256"
        }
      ],
      "name": "MissingSentinel",
      "type": "error"
    },
    {
      "inputs": [
        {
          "internalType": "bytes",
          "name": "unmeta",
          "type": "bytes"
        }
      ],
      "name": "NotRainMetaV1",
      "type": "error"
    },
    {
      "inputs": [
        {
          "internalType": "bytes32",
          "name": "expectedHash",
          "type": "bytes32"
        },
        {
          "internalType": "bytes32",
          "name": "actualHash",
          "type": "bytes32"
        }
      ],
      "name": "UnexpectedMetaHash",
      "type": "error"
    },
    {
      "inputs": [
        {
          "internalType": "bytes32",
          "name": "unregisteredHash",
          "type": "bytes32"
        }
      ],
      "name": "UnregisteredFlow",
      "type": "error"
    },
    {
      "inputs": [],
      "name": "UnsupportedERC1155Flow",
      "type": "error"
    },
    {
      "inputs": [],
      "name": "UnsupportedERC20Flow",
      "type": "error"
    },
    {
      "inputs": [],
      "name": "UnsupportedERC721Flow",
      "type": "error"
    },
    {
      "anonymous": false,
      "inputs": [
        {
          "indexed": false,
          "internalType": "address",
          "name": "sender",
          "type": "address"
        },
        {
          "indexed": false,
          "internalType": "uint256[][]",
          "name": "context",
          "type": "uint256[][]"
        }
      ],
      "name": "Context",
      "type": "event"
    },
    {
      "anonymous": false,
      "inputs": [
        {
          "indexed": false,
          "internalType": "address",
          "name": "sender",
          "type": "address"
        },
        {
          "components": [
            {
              "internalType": "contract IInterpreterV1",
              "name": "interpreter",
              "type": "address"
            },
            {
              "internalType": "contract IInterpreterStoreV1",
              "name": "store",
              "type": "address"
            },
            {
              "internalType": "address",
              "name": "expression",
              "type": "address"
            }
          ],
          "indexed": false,
          "internalType": "struct Evaluable",
          "name": "evaluable",
          "type": "tuple"
        }
      ],
      "name": "FlowInitialized",
      "type": "event"
    },
    {
      "anonymous": false,
      "inputs": [
        {
          "indexed": false,
          "internalType": "address",
          "name": "sender",
          "type": "address"
        },
        {
          "components": [
            {
              "components": [
                {
                  "internalType": "contract IExpressionDeployerV1",
                  "name": "deployer",
                  "type": "address"
                },
                {
                  "internalType": "bytes[]",
                  "name": "sources",
                  "type": "bytes[]"
                },
                {
                  "internalType": "uint256[]",
                  "name": "constants",
                  "type": "uint256[]"
                }
              ],
              "internalType": "struct EvaluableConfig",
              "name": "dummyConfig",
              "type": "tuple"
            },
            {
              "components": [
                {
                  "internalType": "contract IExpressionDeployerV1",
                  "name": "deployer",
                  "type": "address"
                },
                {
                  "internalType": "bytes[]",
                  "name": "sources",
                  "type": "bytes[]"
                },
                {
                  "internalType": "uint256[]",
                  "name": "constants",
                  "type": "uint256[]"
                }
              ],
              "internalType": "struct EvaluableConfig[]",
              "name": "config",
              "type": "tuple[]"
            }
          ],
          "indexed": false,
          "internalType": "struct FlowConfig",
          "name": "config",
          "type": "tuple"
        }
      ],
      "name": "Initialize",
      "type": "event"
    },
    {
      "anonymous": false,
      "inputs": [
        {
          "indexed": false,
          "internalType": "uint8",
          "name": "version",
          "type": "uint8"
        }
      ],
      "name": "Initialized",
      "type": "event"
    },
    {
      "anonymous": false,
      "inputs": [
        {
          "indexed": false,
          "internalType": "address",
          "name": "sender",
          "type": "address"
        },
        {
          "indexed": false,
          "internalType": "uint256",
          "name": "subject",
          "type": "uint256"
        },
        {
          "indexed": false,
          "internalType": "bytes",
          "name": "meta",
          "type": "bytes"
        }
      ],
      "name": "MetaV1",
      "type": "event"
    },
    {
      "inputs": [
        {
          "components": [
            {
              "internalType": "contract IInterpreterV1",
              "name": "interpreter",
              "type": "address"
            },
            {
              "internalType": "contract IInterpreterStoreV1",
              "name": "store",
              "type": "address"
            },
            {
              "internalType": "address",
              "name": "expression",
              "type": "address"
            }
          ],
          "internalType": "struct Evaluable",
          "name": "evaluable_",
          "type": "tuple"
        },
        {
          "internalType": "uint256[]",
          "name": "callerContext_",
          "type": "uint256[]"
        },
        {
          "components": [
            {
              "internalType": "address",
              "name": "signer",
              "type": "address"
            },
            {
              "internalType": "uint256[]",
              "name": "context",
              "type": "uint256[]"
            },
            {
              "internalType": "bytes",
              "name": "signature",
              "type": "bytes"
            }
          ],
          "internalType": "struct SignedContextV1[]",
          "name": "signedContexts_",
          "type": "tuple[]"
        }
      ],
      "name": "flow",
      "outputs": [
        {
          "components": [
            {
              "components": [
                {
                  "internalType": "address",
                  "name": "token",
                  "type": "address"
                },
                {
                  "internalType": "address",
                  "name": "from",
                  "type": "address"
                },
                {
                  "internalType": "address",
                  "name": "to",
                  "type": "address"
                },
                {
                  "internalType": "uint256",
                  "name": "amount",
                  "type": "uint256"
                }
              ],
              "internalType": "struct ERC20Transfer[]",
              "name": "erc20",
              "type": "tuple[]"
            },
            {
              "components": [
                {
                  "internalType": "address",
                  "name": "token",
                  "type": "address"
                },
                {
                  "internalType": "address",
                  "name": "from",
                  "type": "address"
                },
                {
                  "internalType": "address",
                  "name": "to",
                  "type": "address"
                },
                {
                  "internalType": "uint256",
                  "name": "id",
                  "type": "uint256"
                }
              ],
              "internalType": "struct ERC721Transfer[]",
              "name": "erc721",
              "type": "tuple[]"
            },
            {
              "components": [
                {
                  "internalType": "address",
                  "name": "token",
                  "type": "address"
                },
                {
                  "internalType": "address",
                  "name": "from",
                  "type": "address"
                },
                {
                  "internalType": "address",
                  "name": "to",
                  "type": "address"
                },
                {
                  "internalType": "uint256",
                  "name": "id",
                  "type": "uint256"
                },
                {
                  "internalType": "uint256",
                  "name": "amount",
                  "type": "uint256"
                }
              ],
              "internalType": "struct ERC1155Transfer[]",
              "name": "erc1155",
              "type": "tuple[]"
            }
          ],
          "internalType": "struct FlowTransferV1",
          "name": "",
          "type": "tuple"
        }
      ],
      "stateMutability": "nonpayable",
      "type": "function"
    },
    {
      "inputs": [
        {
          "internalType": "bytes",
          "name": "data_",
          "type": "bytes"
        }
      ],
      "name": "initialize",
      "outputs": [],
      "stateMutability": "nonpayable",
      "type": "function"
    },
    {
      "inputs": [
        {
          "internalType": "bytes[]",
          "name": "data",
          "type": "bytes[]"
        }
      ],
      "name": "multicall",
      "outputs": [
        {
          "internalType": "bytes[]",
          "name": "results",
          "type": "bytes[]"
        }
      ],
      "stateMutability": "nonpayable",
      "type": "function"
    },
    {
      "inputs": [
        {
          "internalType": "address",
          "name": "",
          "type": "address"
        },
        {
          "internalType": "address",
          "name": "",
          "type": "address"
        },
        {
          "internalType": "uint256[]",
          "name": "",
          "type": "uint256[]"
        },
        {
          "internalType": "uint256[]",
          "name": "",
          "type": "uint256[]"
        },
        {
          "internalType": "bytes",
          "name": "",
          "type": "bytes"
        }
      ],
      "name": "onERC1155BatchReceived",
      "outputs": [
        {
          "internalType": "bytes4",
          "name": "",
          "type": "bytes4"
        }
      ],
      "stateMutability": "nonpayable",
      "type": "function"
    },
    {
      "inputs": [
        {
          "internalType": "address",
          "name": "",
          "type": "address"
        },
        {
          "internalType": "address",
          "name": "",
          "type": "address"
        },
        {
          "internalType": "uint256",
          "name": "",
          "type": "uint256"
        },
        {
          "internalType": "uint256",
          "name": "",
          "type": "uint256"
        },
        {
          "internalType": "bytes",
          "name": "",
          "type": "bytes"
        }
      ],
      "name": "onERC1155Received",
      "outputs": [
        {
          "internalType": "bytes4",
          "name": "",
          "type": "bytes4"
        }
      ],
      "stateMutability": "nonpayable",
      "type": "function"
    },
    {
      "inputs": [
        {
          "internalType": "address",
          "name": "",
          "type": "address"
        },
        {
          "internalType": "address",
          "name": "",
          "type": "address"
        },
        {
          "internalType": "uint256",
          "name": "",
          "type": "uint256"
        },
        {
          "internalType": "bytes",
          "name": "",
          "type": "bytes"
        }
      ],
      "name": "onERC721Received",
      "outputs": [
        {
          "internalType": "bytes4",
          "name": "",
          "type": "bytes4"
        }
      ],
      "stateMutability": "nonpayable",
      "type": "function"
    },
    {
      "inputs": [
        {
          "components": [
            {
              "internalType": "contract IInterpreterV1",
              "name": "interpreter",
              "type": "address"
            },
            {
              "internalType": "contract IInterpreterStoreV1",
              "name": "store",
              "type": "address"
            },
            {
              "internalType": "address",
              "name": "expression",
              "type": "address"
            }
          ],
          "internalType": "struct Evaluable",
          "name": "evaluable_",
          "type": "tuple"
        },
        {
          "internalType": "uint256[]",
          "name": "callerContext_",
          "type": "uint256[]"
        },
        {
          "components": [
            {
              "internalType": "address",
              "name": "signer",
              "type": "address"
            },
            {
              "internalType": "uint256[]",
              "name": "context",
              "type": "uint256[]"
            },
            {
              "internalType": "bytes",
              "name": "signature",
              "type": "bytes"
            }
          ],
          "internalType": "struct SignedContextV1[]",
          "name": "signedContexts_",
          "type": "tuple[]"
        }
      ],
      "name": "previewFlow",
      "outputs": [
        {
          "components": [
            {
              "components": [
                {
                  "internalType": "address",
                  "name": "token",
                  "type": "address"
                },
                {
                  "internalType": "address",
                  "name": "from",
                  "type": "address"
                },
                {
                  "internalType": "address",
                  "name": "to",
                  "type": "address"
                },
                {
                  "internalType": "uint256",
                  "name": "amount",
                  "type": "uint256"
                }
              ],
              "internalType": "struct ERC20Transfer[]",
              "name": "erc20",
              "type": "tuple[]"
            },
            {
              "components": [
                {
                  "internalType": "address",
                  "name": "token",
                  "type": "address"
                },
                {
                  "internalType": "address",
                  "name": "from",
                  "type": "address"
                },
                {
                  "internalType": "address",
                  "name": "to",
                  "type": "address"
                },
                {
                  "internalType": "uint256",
                  "name": "id",
                  "type": "uint256"
                }
              ],
              "internalType": "struct ERC721Transfer[]",
              "name": "erc721",
              "type": "tuple[]"
            },
            {
              "components": [
                {
                  "internalType": "address",
                  "name": "token",
                  "type": "address"
                },
                {
                  "internalType": "address",
                  "name": "from",
                  "type": "address"
                },
                {
                  "internalType": "address",
                  "name": "to",
                  "type": "address"
                },
                {
                  "internalType": "uint256",
                  "name": "id",
                  "type": "uint256"
                },
                {
                  "internalType": "uint256",
                  "name": "amount",
                  "type": "uint256"
                }
              ],
              "internalType": "struct ERC1155Transfer[]",
              "name": "erc1155",
              "type": "tuple[]"
            }
          ],
          "internalType": "struct FlowTransferV1",
          "name": "",
          "type": "tuple"
        }
      ],
      "stateMutability": "view",
      "type": "function"
    },
    {
      "inputs": [
        {
          "internalType": "bytes4",
          "name": "interfaceId",
          "type": "bytes4"
        }
      ],
      "name": "supportsInterface",
      "outputs": [
        {
          "internalType": "bool",
          "name": "",
          "type": "bool"
        }
      ],
      "stateMutability": "view",
      "type": "function"
    }
  ],
  "bytecode": "0x60806040523480156200001157600080fd5b50604051620035c4380380620035c48339810160408190526200003491620003b6565b7f3939727b6d233d590e82d29d8e5fef403ddcd96f3ec8a8db3640f5e0a71649a560001b81818162000071828260200151620000d560201b60201c565b60208101516040517fbea766d03fa1efd3f81cc8634d08320bc62bb0ed9234ac59bbaafa5893fb6b1391620000aa9133913091620004c4565b60405180910390a18051620000bf906200011c565b50620000cc9050620001e7565b50505062000636565b805160208201208281146200010c5760405163074fe10f60e41b815260048101849052602481018290526044015b60405180910390fd5b6200011782620002a6565b505050565b60408051600080825260208201909252819081906001600160a01b03851690635511cb6790836200015e565b6060815260200190600190039081620001485790505b5060408051600080825260208201908152818301928390526001600160e01b031960e086901b169092526200019892916044820162000533565b6060604051808303816000875af1158015620001b8573d6000803e3d6000fd5b505050506040513d601f19601f82011682018060405250810190620001de9190620005c6565b50505050505050565b600054610100900460ff1615620002515760405162461bcd60e51b815260206004820152602760248201527f496e697469616c697a61626c653a20636f6e747261637420697320696e697469604482015266616c697a696e6760c81b606482015260840162000103565b60005460ff9081161015620002a4576000805460ff191660ff9081179091556040519081527f7f26b83ff96e1f2b6a682f133852f6798a09c465da95921460cefb38474024989060200160405180910390a15b565b620002b181620002d6565b620002d35780604051630c89984b60e31b81526004016200010391906200061a565b50565b6000600882511015620002eb57506000919050565b50600801516001600160401b031667ff0a89c674ee78741490565b634e487b7160e01b600052604160045260246000fd5b604080519081016001600160401b038111828210171562000341576200034162000306565b60405290565b604051601f8201601f191681016001600160401b038111828210171562000372576200037262000306565b604052919050565b6001600160a01b0381168114620002d357600080fd5b60005b83811015620003ad57818101518382015260200162000393565b50506000910152565b60006020808385031215620003ca57600080fd5b82516001600160401b0380821115620003e257600080fd5b9084019060408287031215620003f757600080fd5b620004016200031c565b82516200040e816200037a565b815282840151828111156200042257600080fd5b80840193505086601f8401126200043857600080fd5b8251828111156200044d576200044d62000306565b62000461601f8201601f1916860162000347565b925080835287858286010111156200047857600080fd5b620004898186850187870162000390565b5092830152509392505050565b60008151808452620004b081602086016020860162000390565b601f01601f19169290920160200192915050565b60018060a01b0384168152826020820152606060408201526000620004ed606083018462000496565b95945050505050565b600081518084526020808501945080840160005b8381101562000528578151875295820195908201906001016200050a565b509495945050505050565b6000606082016060835280865180835260808501915060808160051b8601019250602080890160005b838110156200058e57607f198887030185526200057b86835162000496565b955093820193908201906001016200055c565b505085840381870152505050620005a68186620004f6565b90508281036040840152620005bc8185620004f6565b9695505050505050565b600080600060608486031215620005dc57600080fd5b8351620005e9816200037a565b6020850151909350620005fc816200037a565b60408501519092506200060f816200037a565b809150509250925092565b6020815260006200062f602083018462000496565b9392505050565b612f7e80620006466000396000f3fe608060405234801561001057600080fd5b50600436106100885760003560e01c8063ac9650d81161005b578063ac9650d81461012e578063bc197c811461014e578063f23a6e6114610186578063f83d765a146101be57600080fd5b806301ffc9a71461008d578063150b7a02146100b5578063439fab91146100f957806390bcad691461010e575b600080fd5b6100a061009b366004611f34565b6101d1565b60405190151581526020015b60405180910390f35b6100c86100c33660046120f3565b61026a565b6040517fffffffff0000000000000000000000000000000000000000000000000000000090911681526020016100ac565b61010c61010736600461215f565b610294565b005b61012161011c366004612260565b61047e565b6040516100ac9190612498565b61014161013c3660046125f6565b6104e4565b6040516100ac919061271c565b6100c861015c36600461272f565b7fbc197c810000000000000000000000000000000000000000000000000000000095945050505050565b6100c86101943660046127dd565b7ff23a6e610000000000000000000000000000000000000000000000000000000095945050505050565b6101216101cc366004612260565b6105d9565b60007fffffffff0000000000000000000000000000000000000000000000000000000082167f4e2312e000000000000000000000000000000000000000000000000000000000148061026457507f01ffc9a7000000000000000000000000000000000000000000000000000000007fffffffff000000000000000000000000000000000000000000000000000000008316145b92915050565b7f150b7a02000000000000000000000000000000000000000000000000000000005b949350505050565b600054610100900460ff16158080156102b45750600054600160ff909116105b806102ce5750303b1580156102ce575060005460ff166001145b61035f576040517f08c379a000000000000000000000000000000000000000000000000000000000815260206004820152602e60248201527f496e697469616c697a61626c653a20636f6e747261637420697320616c72656160448201527f647920696e697469616c697a656400000000000000000000000000000000000060648201526084015b60405180910390fd5b600080547fffffffffffffffffffffffffffffffffffffffffffffffffffffffffffffff0016600117905580156103bd57600080547fffffffffffffffffffffffffffffffffffffffffffffffffffffffffffff00ff166101001790555b60006103cb8385018561293b565b90507f0958255eac6e436f3a69fab24003de5b7bdb73c4432fe988ae98288d24dfd38933826040516103fe929190612abc565b60405180910390a16104158160200151600361068e565b50801561047957600080547fffffffffffffffffffffffffffffffffffffffffffffffffffffffffffff00ff169055604051600181527f7f26b83ff96e1f2b6a682f133852f6798a09c465da95921460cefb38474024989060200160405180910390a15b505050565b6104a260405180606001604052806060815260200160608152602001606081525090565b60006104c96104c38560408051600181526020810192909252818101905290565b846109b3565b905060006104d78683610ce3565b50925050505b9392505050565b60608167ffffffffffffffff8111156104ff576104ff611f9b565b60405190808252806020026020018201604052801561053257816020015b606081526020019060019003908161051d5790505b50905060005b828110156105d2576105a23085858481811061055657610556612b97565b90506020028101906105689190612bc6565b8080601f016020809104026020016040519081016040528093929190818152602001838380828437600092019190915250610d3692505050565b8282815181106105b4576105b4612b97565b602002602001018190525080806105ca90612c2b565b915050610538565b5092915050565b6105fd60405180606001604052806060815260200160608152602001606081525090565b610605610e75565b60006106266104c38560408051600181526020810192909252818101905290565b90507f17a5c0f3785132a57703932032f6863e7920434150aa1dc940e567b440fdce1f3382604051610659929190612cd2565b60405180910390a160008061066e8784610ce3565b9150915061068182886020015183610ee8565b509150506104dd60018055565b600054610100900460ff16610725576040517f08c379a000000000000000000000000000000000000000000000000000000000815260206004820152602b60248201527f496e697469616c697a61626c653a20636f6e7472616374206973206e6f74206960448201527f6e697469616c697a696e670000000000000000000000000000000000000000006064820152608401610356565b61072d610f92565b610735610f92565b61073d610f92565b600381101561077b576040517fb0682cf300000000000000000000000000000000000000000000000000000000815260048101829052602401610356565b6107b56040518060600160405280600073ffffffffffffffffffffffffffffffffffffffff16815260200160608152602001606081525090565b60408051606081018252600080825260208201819052918101829052905b84518110156109ac578481815181106107ee576107ee612b97565b602002602001015192506000806000856000015173ffffffffffffffffffffffffffffffffffffffff16635511cb67876020015188604001516108438b60408051600181526020810192909252818101905290565b6040518463ffffffff1660e01b815260040161086193929190612d01565b6060604051808303816000875af1158015610880573d6000803e3d6000fd5b505050506040513d601f19601f820116820180604052508101906108a49190612d44565b92509250925060405180606001604052808473ffffffffffffffffffffffffffffffffffffffff1681526020018373ffffffffffffffffffffffffffffffffffffffff1681526020018273ffffffffffffffffffffffffffffffffffffffff168152509450600161012d600061091b886060902090565b81526020808201929092526040908101600020929092558151338152875173ffffffffffffffffffffffffffffffffffffffff9081168284015291880151821681840152918701511660608201527fed510090abe2a95b97a621e3d2c947ea3c26eced1c87470474d17e353dcc53389060800160405180910390a150505080806109a490612c2b565b9150506107d3565b5050505050565b60606000825167ffffffffffffffff8111156109d1576109d1611f9b565b6040519080825280602002602001820160405280156109fa578160200160208202803683370190505b509050600080845111610a0e576000610a14565b83516001015b855160010101905060008167ffffffffffffffff811115610a3757610a37611f9b565b604051908082528060200260200182016040528015610a6a57816020015b6060815260200190600190039081610a555790505b5090506000610a8f604080516002815233602082015230818301526060810190915290565b828281518110610aa157610aa1612b97565b602002602001018190525060005b8751811015610aff578180600101925050878181518110610ad257610ad2612b97565b6020026020010151838381518110610aec57610aec612b97565b6020908102919091010152600101610aaf565b50855115610cd957808060010191505083828281518110610b2257610b22612b97565b602002602001018190525060005b8651811015610cd757610c01878281518110610b4e57610b4e612b97565b602002602001015160000151610bde610b8b8a8581518110610b7257610b72612b97565b6020026020010151602001518051602090810291012090565b6040517f19457468657265756d205369676e6564204d6573736167653a0a3332000000006020820152603c8101829052600090605c01604051602081830303815290604052805190602001209050919050565b898481518110610bf057610bf0612b97565b60200260200101516040015161102b565b610c3a576040517f52bf984800000000000000000000000000000000000000000000000000000000815260048101829052602401610356565b868181518110610c4c57610c4c612b97565b60200260200101516000015173ffffffffffffffffffffffffffffffffffffffff16858281518110610c8057610c80612b97565b6020026020010181815250508180600101925050868181518110610ca657610ca6612b97565b602002602001015160200151838381518110610cc457610cc4612b97565b6020908102919091010152600101610b30565b505b5095945050505050565b610d0760405180606001604052806060815260200160608152602001606081525090565b60606000806000610d1887876111f8565b925092509250610d288383611339565b9450925050505b9250929050565b606073ffffffffffffffffffffffffffffffffffffffff83163b610ddc576040517f08c379a000000000000000000000000000000000000000000000000000000000815260206004820152602660248201527f416464726573733a2064656c65676174652063616c6c20746f206e6f6e2d636f60448201527f6e747261637400000000000000000000000000000000000000000000000000006064820152608401610356565b6000808473ffffffffffffffffffffffffffffffffffffffff1684604051610e049190612d91565b600060405180830381855af49150503d8060008114610e3f576040519150601f19603f3d011682016040523d82523d6000602084013e610e44565b606091505b5091509150610e6c8282604051806060016040528060278152602001612f57602791396114c0565b95945050505050565b600260015403610ee1576040517f08c379a000000000000000000000000000000000000000000000000000000000815260206004820152601f60248201527f5265656e7472616e637947756172643a207265656e7472616e742063616c6c006044820152606401610356565b6002600155565b805115610f77576040517f946aadc600000000000000000000000000000000000000000000000000000000815273ffffffffffffffffffffffffffffffffffffffff83169063946aadc690610f44906000908590600401612dad565b600060405180830381600087803b158015610f5e57600080fd5b505af1158015610f72573d6000803e3d6000fd5b505050505b610f80836114d9565b610f8983611632565b610479836117c3565b600054610100900460ff16611029576040517f08c379a000000000000000000000000000000000000000000000000000000000815260206004820152602b60248201527f496e697469616c697a61626c653a20636f6e7472616374206973206e6f74206960448201527f6e697469616c697a696e670000000000000000000000000000000000000000006064820152608401610356565b565b600080600061103a8585611973565b9092509050600081600481111561105357611053612dc6565b14801561108b57508573ffffffffffffffffffffffffffffffffffffffff168273ffffffffffffffffffffffffffffffffffffffff16145b1561109b576001925050506104dd565b6000808773ffffffffffffffffffffffffffffffffffffffff16631626ba7e60e01b88886040516024016110d0929190612df5565b604080517fffffffffffffffffffffffffffffffffffffffffffffffffffffffffffffffe08184030181529181526020820180517bffffffffffffffffffffffffffffffffffffffffffffffffffffffff167fffffffff000000000000000000000000000000000000000000000000000000009094169390931790925290516111599190612d91565b600060405180830381855afa9150503d8060008114611194576040519150601f19603f3d011682016040523d82523d6000602084013e611199565b606091505b50915091508180156111ac575080516020145b80156111ec575080517f1626ba7e00000000000000000000000000000000000000000000000000000000906111ea9083016020908101908401612e0e565b145b98975050505050505050565b600080606084600061120b826060902090565b600081815261012d602052604081205491925003611258576040517f7a80ba4d00000000000000000000000000000000000000000000000000000000815260048101829052602401610356565b600080886000015173ffffffffffffffffffffffffffffffffffffffff16636715f8258a60200151600061128f8d604001516119b5565b8c6040518563ffffffff1660e01b81526004016112af9493929190612e27565b600060405180830381865afa1580156112cc573d6000803e3d6000fd5b505050506040513d6000823e601f3d9081017fffffffffffffffffffffffffffffffffffffffffffffffffffffffffffffffe01682016040526113129190810190612ebd565b915091506113208260200190565b8251909a60209182029093010198509650945050505050565b61135d60405180606001604052806060815260200160608152602001606081525090565b60408051808201909152601281527f5241494e5f464c4f575f53454e54494e454c00000000000000000000000000006020909101526060808060006113c587877ffea74d0c9bf4a3c28f0dd0674db22a3d7f8bf259c56af19f4ac1e735b156974f60046119df565b60408051808201909152601281527f5241494e5f464c4f575f53454e54494e454c0000000000000000000000000000602090910152909650935083905061142f87877ffea74d0c9bf4a3c28f0dd0674db22a3d7f8bf259c56af19f4ac1e735b156974f60046119df565b60408051808201909152601281527f5241494e5f464c4f575f53454e54494e454c0000000000000000000000000000602090910152909650925082905061149987877ffea74d0c9bf4a3c28f0dd0674db22a3d7f8bf259c56af19f4ac1e735b156974f60056119df565b60408051606081018252968752602087019590955293850193909352509195945050505050565b606083156114cf5750816104dd565b6104dd8383611a8b565b6040805160808101825260008082526020820181905291810182905260608101829052905b82515181101561047957825180518290811061151c5761151c612b97565b602002602001015191503373ffffffffffffffffffffffffffffffffffffffff16826020015173ffffffffffffffffffffffffffffffffffffffff16036115935760408201516060830151835161158e9273ffffffffffffffffffffffffffffffffffffffff90911691339190611acf565b61162a565b3073ffffffffffffffffffffffffffffffffffffffff16826020015173ffffffffffffffffffffffffffffffffffffffff16036115f85760408201516060830151835161158e9273ffffffffffffffffffffffffffffffffffffffff90911691611bb1565b6040517fa521c60f00000000000000000000000000000000000000000000000000000000815260040160405180910390fd5b6001016114fe565b6040805160808101825260008082526020820181905291810182905260608101829052905b826020015151811015610479578260200151818151811061167a5761167a612b97565b602002602001015191503373ffffffffffffffffffffffffffffffffffffffff16826020015173ffffffffffffffffffffffffffffffffffffffff16141580156116de5750602082015173ffffffffffffffffffffffffffffffffffffffff163014155b15611715576040517f3a5befc500000000000000000000000000000000000000000000000000000000815260040160405180910390fd5b81516020830151604080850151606086015191517f42842e0e00000000000000000000000000000000000000000000000000000000815273ffffffffffffffffffffffffffffffffffffffff9384166004820152908316602482015260448101919091529116906342842e0e90606401600060405180830381600087803b15801561179f57600080fd5b505af11580156117b3573d6000803e3d6000fd5b5050600190920191506116579050565b6040805160a0810182526000808252602082018190529181018290526060810182905260808101829052905b826040015151811015610479578260400151818151811061181257611812612b97565b602002602001015191503373ffffffffffffffffffffffffffffffffffffffff16826020015173ffffffffffffffffffffffffffffffffffffffff16141580156118765750602082015173ffffffffffffffffffffffffffffffffffffffff163014155b156118ad576040517fc6a91ecc00000000000000000000000000000000000000000000000000000000815260040160405180910390fd5b815160208301516040808501516060860151608087015192517ff242432a00000000000000000000000000000000000000000000000000000000815273ffffffffffffffffffffffffffffffffffffffff948516600482015291841660248301526044820152606481019190915260a06084820152600060a482015291169063f242432a9060c401600060405180830381600087803b15801561194f57600080fd5b505af1158015611963573d6000803e3d6000fd5b5050600190920191506117ef9050565b60008082516041036119a95760208301516040840151606085015160001a61199d87828585611c07565b94509450505050610d2f565b50600090506002610d2f565b6000602082901b77ffffffffffffffffffffffffffffffffffffffff000000001661ffff17610264565b60008060208302855b87811115611a0c576020810386815103611a03579350611a0c565b508190036119e8565b5082600003611a4a576040517fd457746f00000000000000000000000000000000000000000000000000000000815260048101869052602401610356565b604051915060208201602084015b87811015611a70578082526020909101908201611a58565b50806040526001602084830304038352505094509492505050565b815115611a9b5781518083602001fd5b806040517f08c379a00000000000000000000000000000000000000000000000000000000081526004016103569190612f21565b60405173ffffffffffffffffffffffffffffffffffffffff80851660248301528316604482015260648101829052611bab9085907f23b872dd00000000000000000000000000000000000000000000000000000000906084015b604080517fffffffffffffffffffffffffffffffffffffffffffffffffffffffffffffffe08184030181529190526020810180517bffffffffffffffffffffffffffffffffffffffffffffffffffffffff167fffffffff0000000000000000000000000000000000000000000000000000000090931692909217909152611cf6565b50505050565b60405173ffffffffffffffffffffffffffffffffffffffff83166024820152604481018290526104799084907fa9059cbb0000000000000000000000000000000000000000000000000000000090606401611b29565b6000807f7fffffffffffffffffffffffffffffff5d576e7357a4501ddfe92f46681b20a0831115611c3e5750600090506003611ced565b6040805160008082526020820180845289905260ff881692820192909252606081018690526080810185905260019060a0016020604051602081039080840390855afa158015611c92573d6000803e3d6000fd5b50506040517fffffffffffffffffffffffffffffffffffffffffffffffffffffffffffffffe0015191505073ffffffffffffffffffffffffffffffffffffffff8116611ce657600060019250925050611ced565b9150600090505b94509492505050565b6000611d58826040518060400160405280602081526020017f5361666545524332303a206c6f772d6c6576656c2063616c6c206661696c65648152508573ffffffffffffffffffffffffffffffffffffffff16611e029092919063ffffffff16565b8051909150156104795780806020019051810190611d769190612f34565b610479576040517f08c379a000000000000000000000000000000000000000000000000000000000815260206004820152602a60248201527f5361666545524332303a204552433230206f7065726174696f6e20646964206e60448201527f6f742073756363656564000000000000000000000000000000000000000000006064820152608401610356565b606061028c8484600085856000808673ffffffffffffffffffffffffffffffffffffffff168587604051611e369190612d91565b60006040518083038185875af1925050503d8060008114611e73576040519150601f19603f3d011682016040523d82523d6000602084013e611e78565b606091505b5091509150611e8987838387611e94565b979650505050505050565b60608315611f2a578251600003611f235773ffffffffffffffffffffffffffffffffffffffff85163b611f23576040517f08c379a000000000000000000000000000000000000000000000000000000000815260206004820152601d60248201527f416464726573733a2063616c6c20746f206e6f6e2d636f6e74726163740000006044820152606401610356565b508161028c565b61028c8383611a8b565b600060208284031215611f4657600080fd5b81357fffffffff00000000000000000000000000000000000000000000000000000000811681146104dd57600080fd5b73ffffffffffffffffffffffffffffffffffffffff81168114611f9857600080fd5b50565b7f4e487b7100000000000000000000000000000000000000000000000000000000600052604160045260246000fd5b6040516060810167ffffffffffffffff81118282101715611fed57611fed611f9b565b60405290565b6040805190810167ffffffffffffffff81118282101715611fed57611fed611f9b565b604051601f82017fffffffffffffffffffffffffffffffffffffffffffffffffffffffffffffffe016810167ffffffffffffffff8111828210171561205d5761205d611f9b565b604052919050565b600082601f83011261207657600080fd5b813567ffffffffffffffff81111561209057612090611f9b565b6120c160207fffffffffffffffffffffffffffffffffffffffffffffffffffffffffffffffe0601f84011601612016565b8181528460208386010111156120d657600080fd5b816020850160208301376000918101602001919091529392505050565b6000806000806080858703121561210957600080fd5b843561211481611f76565b9350602085013561212481611f76565b925060408501359150606085013567ffffffffffffffff81111561214757600080fd5b61215387828801612065565b91505092959194509250565b6000806020838503121561217257600080fd5b823567ffffffffffffffff8082111561218a57600080fd5b818501915085601f83011261219e57600080fd5b8135818111156121ad57600080fd5b8660208285010111156121bf57600080fd5b60209290920196919550909350505050565b600067ffffffffffffffff8211156121eb576121eb611f9b565b5060051b60200190565b600082601f83011261220657600080fd5b8135602061221b612216836121d1565b612016565b82815260059290921b8401810191818101908684111561223a57600080fd5b8286015b84811015612255578035835291830191830161223e565b509695505050505050565b600080600083850360a081121561227657600080fd5b606081121561228457600080fd5b5061228d611fca565b843561229881611f76565b81526020858101356122a981611f76565b8282015260408601356122bb81611f76565b604083015290935060608501359067ffffffffffffffff808311156122df57600080fd5b6122eb888489016121f5565b9450608087013592508083111561230157600080fd5b828701925087601f84011261231557600080fd5b8235612323612216826121d1565b81815260059190911b8401830190838101908a83111561234257600080fd5b8486015b838110156124055780358581111561235e5760008081fd5b87016060818e037fffffffffffffffffffffffffffffffffffffffffffffffffffffffffffffffe00112156123935760008081fd5b61239b611fca565b878201356123a881611f76565b81526040820135878111156123bd5760008081fd5b6123cb8f8a838601016121f5565b89830152506060820135878111156123e35760008081fd5b6123f18f8a83860101612065565b604083015250845250918501918501612346565b508096505050505050509250925092565b600081518084526020808501945080840160005b8381101561248d578151805173ffffffffffffffffffffffffffffffffffffffff9081168952848201518116858a015260408083015190911690890152606080820151908901526080908101519088015260a0909601959082019060010161242a565b509495945050505050565b600060208083526080808401855160608487015281815180845260a0880191508583019350600092505b808310156125265761251282855173ffffffffffffffffffffffffffffffffffffffff80825116835280602083015116602084015280604083015116604084015250606081015160608301525050565b9285019260019290920191908401906124c2565b50848801517fffffffffffffffffffffffffffffffffffffffffffffffffffffffffffffffe0888303810160408a01528151808452918701945092506000918601905b808310156125cd576125b982865173ffffffffffffffffffffffffffffffffffffffff80825116835280602083015116602084015280604083015116604084015250606081015160608301525050565b938601936001929092019190850190612569565b5060408901519550828882030160608901526125e98187612416565b9998505050505050505050565b6000806020838503121561260957600080fd5b823567ffffffffffffffff8082111561262157600080fd5b818501915085601f83011261263557600080fd5b81358181111561264457600080fd5b8660208260051b85010111156121bf57600080fd5b60005b8381101561267457818101518382015260200161265c565b50506000910152565b60008151808452612695816020860160208601612659565b601f017fffffffffffffffffffffffffffffffffffffffffffffffffffffffffffffffe0169290920160200192915050565b600081518084526020808501808196508360051b8101915082860160005b8581101561270f5782840389526126fd84835161267d565b988501989350908401906001016126e5565b5091979650505050505050565b6020815260006104dd60208301846126c7565b600080600080600060a0868803121561274757600080fd5b853561275281611f76565b9450602086013561276281611f76565b9350604086013567ffffffffffffffff8082111561277f57600080fd5b61278b89838a016121f5565b945060608801359150808211156127a157600080fd5b6127ad89838a016121f5565b935060808801359150808211156127c357600080fd5b506127d088828901612065565b9150509295509295909350565b600080600080600060a086880312156127f557600080fd5b853561280081611f76565b9450602086013561281081611f76565b93506040860135925060608601359150608086013567ffffffffffffffff81111561283a57600080fd5b6127d088828901612065565b60006060828403121561285857600080fd5b612860611fca565b9050813561286d81611f76565b815260208281013567ffffffffffffffff8082111561288b57600080fd5b818501915085601f83011261289f57600080fd5b81356128ad612216826121d1565b81815260059190911b830184019084810190888311156128cc57600080fd5b8585015b83811015612904578035858111156128e85760008081fd5b6128f68b89838a0101612065565b8452509186019186016128d0565b508086880152505050604085013592508083111561292157600080fd5b505061292f848285016121f5565b60408301525092915050565b6000602080838503121561294e57600080fd5b823567ffffffffffffffff8082111561296657600080fd5b908401906040828703121561297a57600080fd5b612982611ff3565b82358281111561299157600080fd5b61299d88828601612846565b82525083830135828111156129b157600080fd5b80840193505086601f8401126129c657600080fd5b82356129d4612216826121d1565b81815260059190911b840185019085810190898311156129f357600080fd5b8686015b83811015612a2b57803586811115612a0f5760008081fd5b612a1d8c8a838b0101612846565b8452509187019187016129f7565b5095830195909552509695505050505050565b600081518084526020808501945080840160005b8381101561248d57815187529582019590820190600101612a52565b73ffffffffffffffffffffffffffffffffffffffff81511682526000602082015160606020850152612aa360608501826126c7565b905060408301518482036040860152610e6c8282612a3e565b73ffffffffffffffffffffffffffffffffffffffff83168152600060206040818401528351604080850152612af46080850182612a6e565b858301518582037fffffffffffffffffffffffffffffffffffffffffffffffffffffffffffffffc0016060870152805180835291925083019083830190600581901b8401850160005b82811015612b89577fffffffffffffffffffffffffffffffffffffffffffffffffffffffffffffffe0868303018452612b77828651612a6e565b94870194938701939150600101612b3d565b509998505050505050505050565b7f4e487b7100000000000000000000000000000000000000000000000000000000600052603260045260246000fd5b60008083357fffffffffffffffffffffffffffffffffffffffffffffffffffffffffffffffe1843603018112612bfb57600080fd5b83018035915067ffffffffffffffff821115612c1657600080fd5b602001915036819003821315610d2f57600080fd5b60007fffffffffffffffffffffffffffffffffffffffffffffffffffffffffffffffff8203612c83577f4e487b7100000000000000000000000000000000000000000000000000000000600052601160045260246000fd5b5060010190565b600081518084526020808501808196508360051b8101915082860160005b8581101561270f578284038952612cc0848351612a3e565b98850198935090840190600101612ca8565b73ffffffffffffffffffffffffffffffffffffffff8316815260406020820152600061028c6040830184612c8a565b606081526000612d1460608301866126c7565b8281036020840152612d268186612a3e565b90508281036040840152612d3a8185612a3e565b9695505050505050565b600080600060608486031215612d5957600080fd5b8351612d6481611f76565b6020850151909350612d7581611f76565b6040850151909250612d8681611f76565b809150509250925092565b60008251612da3818460208701612659565b9190910192915050565b82815260406020820152600061028c6040830184612a3e565b7f4e487b7100000000000000000000000000000000000000000000000000000000600052602160045260246000fd5b82815260406020820152600061028c604083018461267d565b600060208284031215612e2057600080fd5b5051919050565b73ffffffffffffffffffffffffffffffffffffffff85168152836020820152826040820152608060608201526000612d3a6080830184612c8a565b600082601f830112612e7357600080fd5b81516020612e83612216836121d1565b82815260059290921b84018101918181019086841115612ea257600080fd5b8286015b848110156122555780518352918301918301612ea6565b60008060408385031215612ed057600080fd5b825167ffffffffffffffff80821115612ee857600080fd5b612ef486838701612e62565b93506020850151915080821115612f0a57600080fd5b50612f1785828601612e62565b9150509250929050565b6020815260006104dd602083018461267d565b600060208284031215612f4657600080fd5b815180151581146104dd57600080fdfe416464726573733a206c6f772d6c6576656c2064656c65676174652063616c6c206661696c6564",
  "linkReferences": {},
  "deployedLinkReferences": {}
}